{
  "_format": "hh-sol-artifact-1",
  "contractName": "WatchAuction",
  "sourceName": "contracts/WatchAuction.sol",
  "abi": [
    {
      "inputs": [
        {
          "internalType": "address",
          "name": "_nft",
          "type": "address"
        },
        {
          "internalType": "address",
          "name": "_token",
          "type": "address"
        },
        {
          "internalType": "address",
          "name": "_marketplace",
          "type": "address"
        }
      ],
      "stateMutability": "nonpayable",
      "type": "constructor"
    },
    {
      "inputs": [],
      "name": "AuctionAlreadyEnded",
      "type": "error"
    },
    {
      "inputs": [],
      "name": "AuctionNotActive",
      "type": "error"
    },
    {
      "inputs": [],
      "name": "AuctionNotEnded",
      "type": "error"
    },
    {
      "inputs": [],
      "name": "BidTooLow",
      "type": "error"
    },
    {
      "inputs": [],
      "name": "EnforcedPause",
      "type": "error"
    },
    {
      "inputs": [],
      "name": "ExpectedPause",
      "type": "error"
    },
    {
      "inputs": [],
      "name": "InvalidPrice",
      "type": "error"
    },
    {
      "inputs": [],
      "name": "NotOwner",
      "type": "error"
    },
    {
      "inputs": [],
      "name": "ReentrancyGuardReentrantCall",
      "type": "error"
    },
    {
      "inputs": [],
      "name": "SellerCannotBid",
      "type": "error"
    },
    {
      "inputs": [],
      "name": "TransferFailed",
      "type": "error"
    },
    {
      "inputs": [],
      "name": "Unauthorized",
      "type": "error"
    },
    {
      "anonymous": false,
      "inputs": [
        {
          "indexed": true,
          "internalType": "uint256",
          "name": "tokenId",
          "type": "uint256"
        },
        {
          "indexed": true,
          "internalType": "address",
          "name": "seller",
          "type": "address"
        },
        {
          "indexed": false,
          "internalType": "uint256",
          "name": "minPrice",
          "type": "uint256"
        },
        {
          "indexed": false,
          "internalType": "uint256",
          "name": "endTime",
          "type": "uint256"
        }
      ],
      "name": "AuctionCreated",
      "type": "event"
    },
    {
      "anonymous": false,
      "inputs": [
        {
          "indexed": true,
          "internalType": "uint256",
          "name": "tokenId",
          "type": "uint256"
        },
        {
          "indexed": true,
          "internalType": "address",
          "name": "winner",
          "type": "address"
        },
        {
          "indexed": false,
          "internalType": "uint256",
          "name": "amount",
          "type": "uint256"
        }
      ],
      "name": "AuctionEndedWithWinner",
      "type": "event"
    },
    {
      "anonymous": false,
      "inputs": [
        {
          "indexed": true,
          "internalType": "uint256",
          "name": "tokenId",
          "type": "uint256"
        }
      ],
      "name": "AuctionEndedWithoutWinner",
      "type": "event"
    },
    {
      "anonymous": false,
      "inputs": [
        {
          "indexed": true,
          "internalType": "uint256",
          "name": "tokenId",
          "type": "uint256"
        },
        {
          "indexed": true,
          "internalType": "address",
          "name": "bidder",
          "type": "address"
        },
        {
          "indexed": false,
          "internalType": "uint256",
          "name": "amount",
          "type": "uint256"
        }
      ],
      "name": "BidPlaced",
      "type": "event"
    },
    {
      "anonymous": false,
      "inputs": [
        {
          "indexed": false,
          "internalType": "address",
          "name": "account",
          "type": "address"
        }
      ],
      "name": "Paused",
      "type": "event"
    },
    {
      "anonymous": false,
      "inputs": [
        {
          "indexed": false,
          "internalType": "address",
          "name": "account",
          "type": "address"
        }
      ],
      "name": "Unpaused",
      "type": "event"
    },
    {
      "inputs": [
        {
          "internalType": "uint256",
          "name": "",
          "type": "uint256"
        }
      ],
      "name": "auctions",
      "outputs": [
        {
          "internalType": "address",
          "name": "seller",
          "type": "address"
        },
        {
          "internalType": "address",
          "name": "highestBidder",
          "type": "address"
        },
        {
          "internalType": "uint256",
          "name": "highestBid",
          "type": "uint256"
        },
        {
          "internalType": "uint256",
          "name": "endTime",
          "type": "uint256"
        },
        {
          "internalType": "uint256",
          "name": "minPrice",
          "type": "uint256"
        },
        {
          "internalType": "bool",
          "name": "active",
          "type": "bool"
        }
      ],
      "stateMutability": "view",
      "type": "function"
    },
    {
      "inputs": [
        {
          "internalType": "uint256",
          "name": "_tokenId",
          "type": "uint256"
        },
        {
          "internalType": "uint256",
          "name": "_minPrice",
          "type": "uint256"
        },
        {
          "internalType": "uint256",
          "name": "_durationInSeconds",
          "type": "uint256"
        }
      ],
      "name": "createAuction",
      "outputs": [],
      "stateMutability": "nonpayable",
      "type": "function"
    },
    {
      "inputs": [
        {
          "internalType": "uint256",
          "name": "_tokenId",
          "type": "uint256"
        }
      ],
      "name": "endAuction",
      "outputs": [],
      "stateMutability": "nonpayable",
      "type": "function"
    },
    {
      "inputs": [],
      "name": "marketplace",
      "outputs": [
        {
          "internalType": "contract WatchMarketplace",
          "name": "",
          "type": "address"
        }
      ],
      "stateMutability": "view",
      "type": "function"
    },
    {
      "inputs": [],
      "name": "paused",
      "outputs": [
        {
          "internalType": "bool",
          "name": "",
          "type": "bool"
        }
      ],
      "stateMutability": "view",
      "type": "function"
    },
    {
      "inputs": [],
      "name": "paymentToken",
      "outputs": [
        {
          "internalType": "contract IERC20",
          "name": "",
          "type": "address"
        }
      ],
      "stateMutability": "view",
      "type": "function"
    },
    {
      "inputs": [
        {
          "internalType": "uint256",
          "name": "_tokenId",
          "type": "uint256"
        },
        {
          "internalType": "uint256",
          "name": "_bidAmount",
          "type": "uint256"
        }
      ],
      "name": "placeBid",
      "outputs": [],
      "stateMutability": "nonpayable",
      "type": "function"
    },
    {
      "inputs": [],
      "name": "watchNFT",
      "outputs": [
        {
          "internalType": "contract WatchNFT",
          "name": "",
          "type": "address"
        }
      ],
      "stateMutability": "view",
      "type": "function"
    }
  ],
  "bytecode": "0x608060405234801561000f575f5ffd5b50604051611841380380611841833981810160405281019061003191906101ad565b600161004f61004461011d60201b60201c565b61014660201b60201c565b5f0181905550825f60016101000a81548173ffffffffffffffffffffffffffffffffffffffff021916908373ffffffffffffffffffffffffffffffffffffffff1602179055508160015f6101000a81548173ffffffffffffffffffffffffffffffffffffffff021916908373ffffffffffffffffffffffffffffffffffffffff1602179055508060025f6101000a81548173ffffffffffffffffffffffffffffffffffffffff021916908373ffffffffffffffffffffffffffffffffffffffff1602179055505050506101fd565b5f7f9b779b17422d0df92223018b32b4d1fa46e071723d6817e2486d003becc55f005f1b905090565b5f819050919050565b5f5ffd5b5f73ffffffffffffffffffffffffffffffffffffffff82169050919050565b5f61017c82610153565b9050919050565b61018c81610172565b8114610196575f5ffd5b50565b5f815190506101a781610183565b92915050565b5f5f5f606084860312156101c4576101c361014f565b5b5f6101d186828701610199565b93505060206101e286828701610199565b92505060406101f386828701610199565b9150509250925092565b6116378061020a5f395ff3fe608060405234801561000f575f5ffd5b5060043610610086575f3560e01c80635c975abb116100595780635c975abb14610117578063abc8c7af14610135578063b9a2de3a14610153578063cda4beef1461016f57610086565b80633013ce291461008a578063571a26a0146100a857806357c90de5146100dd5780635baef4ac146100f9575b5f5ffd5b61009261018b565b60405161009f91906111c3565b60405180910390f35b6100c260048036038101906100bd9190611213565b6101b0565b6040516100d496959493929190611287565b60405180910390f35b6100f760048036038101906100f291906112e6565b610232565b005b61010161069f565b60405161010e9190611344565b60405180910390f35b61011f6106c4565b60405161012c919061135d565b60405180910390f35b61013d6106d8565b60405161014a9190611396565b60405180910390f35b61016d60048036038101906101689190611213565b6106fd565b005b610189600480360381019061018491906113af565b610bea565b005b60015f9054906101000a900473ffffffffffffffffffffffffffffffffffffffff1681565b6003602052805f5260405f205f91509050805f015f9054906101000a900473ffffffffffffffffffffffffffffffffffffffff1690806001015f9054906101000a900473ffffffffffffffffffffffffffffffffffffffff1690806002015490806003015490806004015490806005015f9054906101000a900460ff16905086565b61023a61103d565b5f60035f8481526020019081526020015f209050806005015f9054906101000a900460ff16610295576040517f69b8d0fe00000000000000000000000000000000000000000000000000000000815260040160405180910390fd5b806003015442106102d2576040517fd02e774d00000000000000000000000000000000000000000000000000000000815260040160405180910390fd5b8060040154821015610310576040517fa0d26eb600000000000000000000000000000000000000000000000000000000815260040160405180910390fd5b8060020154821161034d576040517fa0d26eb600000000000000000000000000000000000000000000000000000000815260040160405180910390fd5b805f015f9054906101000a900473ffffffffffffffffffffffffffffffffffffffff1673ffffffffffffffffffffffffffffffffffffffff163373ffffffffffffffffffffffffffffffffffffffff16036103d4576040517fef02588900000000000000000000000000000000000000000000000000000000815260040160405180910390fd5b5f73ffffffffffffffffffffffffffffffffffffffff16816001015f9054906101000a900473ffffffffffffffffffffffffffffffffffffffff1673ffffffffffffffffffffffffffffffffffffffff16146105245760015f9054906101000a900473ffffffffffffffffffffffffffffffffffffffff1673ffffffffffffffffffffffffffffffffffffffff1663a9059cbb826001015f9054906101000a900473ffffffffffffffffffffffffffffffffffffffff1683600201546040518363ffffffff1660e01b81526004016104ad9291906113ff565b6020604051808303815f875af11580156104c9573d5f5f3e3d5ffd5b505050506040513d601f19601f820116820180604052508101906104ed9190611450565b610523576040517f90b8ec1800000000000000000000000000000000000000000000000000000000815260040160405180910390fd5b5b60015f9054906101000a900473ffffffffffffffffffffffffffffffffffffffff1673ffffffffffffffffffffffffffffffffffffffff166323b872dd3330856040518463ffffffff1660e01b81526004016105829392919061147b565b6020604051808303815f875af115801561059e573d5f5f3e3d5ffd5b505050506040513d601f19601f820116820180604052508101906105c29190611450565b6105f8576040517f90b8ec1800000000000000000000000000000000000000000000000000000000815260040160405180910390fd5b33816001015f6101000a81548173ffffffffffffffffffffffffffffffffffffffff021916908373ffffffffffffffffffffffffffffffffffffffff1602179055508181600201819055503373ffffffffffffffffffffffffffffffffffffffff16837f0e54eff26401bf69b81b26f60bd85ef47f5d85275c1d268d84f68d6897431c478460405161068a91906114b0565b60405180910390a35061069b61105f565b5050565b5f60019054906101000a900473ffffffffffffffffffffffffffffffffffffffff1681565b5f5f5f9054906101000a900460ff16905090565b60025f9054906101000a900473ffffffffffffffffffffffffffffffffffffffff1681565b61070561103d565b5f60035f8381526020019081526020015f209050806005015f9054906101000a900460ff16610760576040517f69b8d0fe00000000000000000000000000000000000000000000000000000000815260040160405180910390fd5b806003015442101561079e576040517f6463738900000000000000000000000000000000000000000000000000000000815260040160405180910390fd5b5f816005015f6101000a81548160ff0219169083151502179055505f73ffffffffffffffffffffffffffffffffffffffff16816001015f9054906101000a900473ffffffffffffffffffffffffffffffffffffffff1673ffffffffffffffffffffffffffffffffffffffff1614610b035760015f9054906101000a900473ffffffffffffffffffffffffffffffffffffffff1673ffffffffffffffffffffffffffffffffffffffff1663a9059cbb60025f9054906101000a900473ffffffffffffffffffffffffffffffffffffffff1683600201546040518363ffffffff1660e01b81526004016108909291906113ff565b6020604051808303815f875af11580156108ac573d5f5f3e3d5ffd5b505050506040513d601f19601f820116820180604052508101906108d09190611450565b610906576040517f90b8ec1800000000000000000000000000000000000000000000000000000000815260040160405180910390fd5b5f60019054906101000a900473ffffffffffffffffffffffffffffffffffffffff1673ffffffffffffffffffffffffffffffffffffffff166323b872dd3060025f9054906101000a900473ffffffffffffffffffffffffffffffffffffffff16856040518463ffffffff1660e01b81526004016109859392919061147b565b5f604051808303815f87803b15801561099c575f5ffd5b505af11580156109ae573d5f5f3e3d5ffd5b5050505060025f9054906101000a900473ffffffffffffffffffffffffffffffffffffffff1673ffffffffffffffffffffffffffffffffffffffff166305f1fb2883835f015f9054906101000a900473ffffffffffffffffffffffffffffffffffffffff16846001015f9054906101000a900473ffffffffffffffffffffffffffffffffffffffff1685600201546040518563ffffffff1660e01b8152600401610a5b94939291906114c9565b5f604051808303815f87803b158015610a72575f5ffd5b505af1158015610a84573d5f5f3e3d5ffd5b50505050806001015f9054906101000a900473ffffffffffffffffffffffffffffffffffffffff1673ffffffffffffffffffffffffffffffffffffffff16827fab41e3f06042d2db81478807ab10a02315433d6f63128f9e25858e37e2ac7dfe8360020154604051610af691906114b0565b60405180910390a3610bde565b5f60019054906101000a900473ffffffffffffffffffffffffffffffffffffffff1673ffffffffffffffffffffffffffffffffffffffff166323b872dd30835f015f9054906101000a900473ffffffffffffffffffffffffffffffffffffffff16856040518463ffffffff1660e01b8152600401610b839392919061147b565b5f604051808303815f87803b158015610b9a575f5ffd5b505af1158015610bac573d5f5f3e3d5ffd5b50505050817fe3ca3b93b5f22afd7703b926d38a93268068434002b0e858ce2dafa564fa0d6e60405160405180910390a25b50610be761105f565b50565b610bf2611079565b610bfa61103d565b5f60019054906101000a900473ffffffffffffffffffffffffffffffffffffffff1673ffffffffffffffffffffffffffffffffffffffff1663a7c4af80336040518263ffffffff1660e01b8152600401610c54919061150c565b602060405180830381865afa158015610c6f573d5f5f3e3d5ffd5b505050506040513d601f19601f82011682018060405250810190610c939190611450565b610cc9576040517f82b4290000000000000000000000000000000000000000000000000000000000815260040160405180910390fd5b5f8203610d01576040517ebfc92100000000000000000000000000000000000000000000000000000000815260040160405180910390fd5b3373ffffffffffffffffffffffffffffffffffffffff165f60019054906101000a900473ffffffffffffffffffffffffffffffffffffffff1673ffffffffffffffffffffffffffffffffffffffff16636352211e856040518263ffffffff1660e01b8152600401610d7291906114b0565b602060405180830381865afa158015610d8d573d5f5f3e3d5ffd5b505050506040513d601f19601f82011682018060405250810190610db1919061154f565b73ffffffffffffffffffffffffffffffffffffffff1614610dfe576040517f30cd747100000000000000000000000000000000000000000000000000000000815260040160405180910390fd5b5f60019054906101000a900473ffffffffffffffffffffffffffffffffffffffff1673ffffffffffffffffffffffffffffffffffffffff166323b872dd3330866040518463ffffffff1660e01b8152600401610e5c9392919061147b565b5f604051808303815f87803b158015610e73575f5ffd5b505af1158015610e85573d5f5f3e3d5ffd5b505050506040518060c001604052803373ffffffffffffffffffffffffffffffffffffffff1681526020015f73ffffffffffffffffffffffffffffffffffffffff1681526020015f81526020018242610ede91906115a7565b81526020018381526020016001151581525060035f8581526020019081526020015f205f820151815f015f6101000a81548173ffffffffffffffffffffffffffffffffffffffff021916908373ffffffffffffffffffffffffffffffffffffffff1602179055506020820151816001015f6101000a81548173ffffffffffffffffffffffffffffffffffffffff021916908373ffffffffffffffffffffffffffffffffffffffff16021790555060408201518160020155606082015181600301556080820151816004015560a0820151816005015f6101000a81548160ff0219169083151502179055509050503373ffffffffffffffffffffffffffffffffffffffff16837fc9050d42180a61cb0d9ebb8ad118b62fe6eab12cf12ff752c4a0cc7da9ddf6278460035f8881526020019081526020015f20600301546040516110289291906115da565b60405180910390a361103861105f565b505050565b6110456110ba565b60026110576110526110fb565b611124565b5f0181905550565b600161107161106c6110fb565b611124565b5f0181905550565b6110816106c4565b156110b8576040517fd93c066500000000000000000000000000000000000000000000000000000000815260040160405180910390fd5b565b6110c261112d565b156110f9576040517f3ee5aeb500000000000000000000000000000000000000000000000000000000815260040160405180910390fd5b565b5f7f9b779b17422d0df92223018b32b4d1fa46e071723d6817e2486d003becc55f005f1b905090565b5f819050919050565b5f600261114061113b6110fb565b611124565b5f015414905090565b5f73ffffffffffffffffffffffffffffffffffffffff82169050919050565b5f819050919050565b5f61118b61118661118184611149565b611168565b611149565b9050919050565b5f61119c82611171565b9050919050565b5f6111ad82611192565b9050919050565b6111bd816111a3565b82525050565b5f6020820190506111d65f8301846111b4565b92915050565b5f5ffd5b5f819050919050565b6111f2816111e0565b81146111fc575f5ffd5b50565b5f8135905061120d816111e9565b92915050565b5f60208284031215611228576112276111dc565b5b5f611235848285016111ff565b91505092915050565b5f61124882611149565b9050919050565b6112588161123e565b82525050565b611267816111e0565b82525050565b5f8115159050919050565b6112818161126d565b82525050565b5f60c08201905061129a5f83018961124f565b6112a7602083018861124f565b6112b4604083018761125e565b6112c1606083018661125e565b6112ce608083018561125e565b6112db60a0830184611278565b979650505050505050565b5f5f604083850312156112fc576112fb6111dc565b5b5f611309858286016111ff565b925050602061131a858286016111ff565b9150509250929050565b5f61132e82611192565b9050919050565b61133e81611324565b82525050565b5f6020820190506113575f830184611335565b92915050565b5f6020820190506113705f830184611278565b92915050565b5f61138082611192565b9050919050565b61139081611376565b82525050565b5f6020820190506113a95f830184611387565b92915050565b5f5f5f606084860312156113c6576113c56111dc565b5b5f6113d3868287016111ff565b93505060206113e4868287016111ff565b92505060406113f5868287016111ff565b9150509250925092565b5f6040820190506114125f83018561124f565b61141f602083018461125e565b9392505050565b61142f8161126d565b8114611439575f5ffd5b50565b5f8151905061144a81611426565b92915050565b5f60208284031215611465576114646111dc565b5b5f6114728482850161143c565b91505092915050565b5f60608201905061148e5f83018661124f565b61149b602083018561124f565b6114a8604083018461125e565b949350505050565b5f6020820190506114c35f83018461125e565b92915050565b5f6080820190506114dc5f83018761125e565b6114e9602083018661124f565b6114f6604083018561124f565b611503606083018461125e565b95945050505050565b5f60208201905061151f5f83018461124f565b92915050565b61152e8161123e565b8114611538575f5ffd5b50565b5f8151905061154981611525565b92915050565b5f60208284031215611564576115636111dc565b5b5f6115718482850161153b565b91505092915050565b7f4e487b71000000000000000000000000000000000000000000000000000000005f52601160045260245ffd5b5f6115b1826111e0565b91506115bc836111e0565b92508282019050808211156115d4576115d361157a565b5b92915050565b5f6040820190506115ed5f83018561125e565b6115fa602083018461125e565b939250505056fea2646970667358221220dada990d5b7491370c2e8645d12a8ad54e00a617d22dcc27debee840a8ca452364736f6c634300081c0033",
  "linkReferences": {},
  "deployedLinkReferences": {}
}