{
  "_format": "hh-sol-artifact-1",
  "contractName": "WatchMarketplace",
  "sourceName": "contracts/WatchMarketplace.sol",
  "abi": [
    {
      "inputs": [
        {
          "internalType": "address",
          "name": "_watchNFTAddress",
          "type": "address"
        },
        {
          "internalType": "address",
          "name": "_paymentTokenAddress",
          "type": "address"
        }
      ],
      "stateMutability": "nonpayable",
      "type": "constructor"
    },
    {
      "inputs": [],
      "name": "AlreadyListed",
      "type": "error"
    },
    {
      "inputs": [],
      "name": "AlreadyShipped",
      "type": "error"
    },
    {
      "inputs": [],
      "name": "EnforcedPause",
      "type": "error"
    },
    {
      "inputs": [],
      "name": "ExpectedPause",
      "type": "error"
    },
    {
      "inputs": [],
      "name": "InactiveListing",
      "type": "error"
    },
    {
      "inputs": [],
      "name": "InvalidAddress",
      "type": "error"
    },
    {
      "inputs": [],
      "name": "InvalidPrice",
      "type": "error"
    },
    {
      "inputs": [],
      "name": "MarketplaceNotApproved",
      "type": "error"
    },
    {
      "inputs": [],
      "name": "NotAssignedWatchmaker",
      "type": "error"
    },
    {
      "inputs": [],
      "name": "NotInEscrow",
      "type": "error"
    },
    {
      "inputs": [],
      "name": "NotLogisticsSystem",
      "type": "error"
    },
    {
      "inputs": [],
      "name": "NotOwner",
      "type": "error"
    },
    {
      "inputs": [],
      "name": "NotShipped",
      "type": "error"
    },
    {
      "inputs": [
        {
          "internalType": "address",
          "name": "owner",
          "type": "address"
        }
      ],
      "name": "OwnableInvalidOwner",
      "type": "error"
    },
    {
      "inputs": [
        {
          "internalType": "address",
          "name": "account",
          "type": "address"
        }
      ],
      "name": "OwnableUnauthorizedAccount",
      "type": "error"
    },
    {
      "inputs": [],
      "name": "PendingVerification",
      "type": "error"
    },
    {
      "inputs": [],
      "name": "ReentrancyGuardReentrantCall",
      "type": "error"
    },
    {
      "inputs": [],
      "name": "SelfPurchaseNotAllowed",
      "type": "error"
    },
    {
      "inputs": [],
      "name": "TransferFailed",
      "type": "error"
    },
    {
      "inputs": [],
      "name": "Unauthorized",
      "type": "error"
    },
    {
      "inputs": [],
      "name": "WatchNotActive",
      "type": "error"
    },
    {
      "anonymous": false,
      "inputs": [
        {
          "indexed": true,
          "internalType": "uint256",
          "name": "tokenId",
          "type": "uint256"
        },
        {
          "indexed": true,
          "internalType": "address",
          "name": "watchmaker",
          "type": "address"
        }
      ],
      "name": "AuthenticityApproved",
      "type": "event"
    },
    {
      "anonymous": false,
      "inputs": [
        {
          "indexed": true,
          "internalType": "uint256",
          "name": "tokenId",
          "type": "uint256"
        },
        {
          "indexed": true,
          "internalType": "address",
          "name": "watchmaker",
          "type": "address"
        }
      ],
      "name": "AuthenticityRejected",
      "type": "event"
    },
    {
      "anonymous": false,
      "inputs": [
        {
          "indexed": true,
          "internalType": "uint256",
          "name": "tokenId",
          "type": "uint256"
        },
        {
          "indexed": true,
          "internalType": "address",
          "name": "buyer",
          "type": "address"
        },
        {
          "indexed": false,
          "internalType": "uint256",
          "name": "price",
          "type": "uint256"
        }
      ],
      "name": "EscrowInitiated",
      "type": "event"
    },
    {
      "anonymous": false,
      "inputs": [
        {
          "indexed": true,
          "internalType": "uint256",
          "name": "tokenId",
          "type": "uint256"
        },
        {
          "indexed": true,
          "internalType": "address",
          "name": "buyer",
          "type": "address"
        },
        {
          "indexed": true,
          "internalType": "address",
          "name": "seller",
          "type": "address"
        },
        {
          "indexed": false,
          "internalType": "uint256",
          "name": "price",
          "type": "uint256"
        }
      ],
      "name": "EscrowRefunded",
      "type": "event"
    },
    {
      "anonymous": false,
      "inputs": [
        {
          "indexed": false,
          "internalType": "address",
          "name": "newRecipient",
          "type": "address"
        }
      ],
      "name": "FeeRecipientUpdated",
      "type": "event"
    },
    {
      "anonymous": false,
      "inputs": [
        {
          "indexed": true,
          "internalType": "uint256",
          "name": "tokenId",
          "type": "uint256"
        },
        {
          "indexed": true,
          "internalType": "address",
          "name": "seller",
          "type": "address"
        }
      ],
      "name": "ListingCancelled",
      "type": "event"
    },
    {
      "anonymous": false,
      "inputs": [
        {
          "indexed": true,
          "internalType": "uint256",
          "name": "tokenId",
          "type": "uint256"
        },
        {
          "indexed": false,
          "internalType": "uint256",
          "name": "oldPrice",
          "type": "uint256"
        },
        {
          "indexed": false,
          "internalType": "uint256",
          "name": "newPrice",
          "type": "uint256"
        }
      ],
      "name": "ListingPriceUpdated",
      "type": "event"
    },
    {
      "anonymous": false,
      "inputs": [
        {
          "indexed": true,
          "internalType": "address",
          "name": "previousOwner",
          "type": "address"
        },
        {
          "indexed": true,
          "internalType": "address",
          "name": "newOwner",
          "type": "address"
        }
      ],
      "name": "OwnershipTransferred",
      "type": "event"
    },
    {
      "anonymous": false,
      "inputs": [
        {
          "indexed": false,
          "internalType": "address",
          "name": "account",
          "type": "address"
        }
      ],
      "name": "Paused",
      "type": "event"
    },
    {
      "anonymous": false,
      "inputs": [
        {
          "indexed": true,
          "internalType": "uint256",
          "name": "tokenId",
          "type": "uint256"
        },
        {
          "indexed": true,
          "internalType": "address",
          "name": "buyer",
          "type": "address"
        },
        {
          "indexed": true,
          "internalType": "address",
          "name": "seller",
          "type": "address"
        },
        {
          "indexed": false,
          "internalType": "uint256",
          "name": "price",
          "type": "uint256"
        }
      ],
      "name": "SaleCompleted",
      "type": "event"
    },
    {
      "anonymous": false,
      "inputs": [
        {
          "indexed": false,
          "internalType": "address",
          "name": "account",
          "type": "address"
        }
      ],
      "name": "Unpaused",
      "type": "event"
    },
    {
      "anonymous": false,
      "inputs": [
        {
          "indexed": true,
          "internalType": "uint256",
          "name": "tokenId",
          "type": "uint256"
        },
        {
          "indexed": true,
          "internalType": "address",
          "name": "seller",
          "type": "address"
        },
        {
          "indexed": false,
          "internalType": "uint256",
          "name": "price",
          "type": "uint256"
        }
      ],
      "name": "WatchListed",
      "type": "event"
    },
    {
      "anonymous": false,
      "inputs": [
        {
          "indexed": true,
          "internalType": "uint256",
          "name": "tokenId",
          "type": "uint256"
        }
      ],
      "name": "WatchShipped",
      "type": "event"
    },
    {
      "anonymous": false,
      "inputs": [
        {
          "indexed": true,
          "internalType": "uint256",
          "name": "tokenId",
          "type": "uint256"
        },
        {
          "indexed": true,
          "internalType": "address",
          "name": "watchmaker",
          "type": "address"
        }
      ],
      "name": "WatchmakerAssigned",
      "type": "event"
    },
    {
      "inputs": [
        {
          "internalType": "uint256",
          "name": "_tokenId",
          "type": "uint256"
        }
      ],
      "name": "approveReturn",
      "outputs": [],
      "stateMutability": "nonpayable",
      "type": "function"
    },
    {
      "inputs": [
        {
          "internalType": "uint256",
          "name": "_tokenId",
          "type": "uint256"
        },
        {
          "internalType": "address",
          "name": "_watchmaker",
          "type": "address"
        }
      ],
      "name": "assignWatchmaker",
      "outputs": [],
      "stateMutability": "nonpayable",
      "type": "function"
    },
    {
      "inputs": [],
      "name": "auctionContract",
      "outputs": [
        {
          "internalType": "address",
          "name": "",
          "type": "address"
        }
      ],
      "stateMutability": "view",
      "type": "function"
    },
    {
      "inputs": [
        {
          "internalType": "uint256",
          "name": "_tokenId",
          "type": "uint256"
        }
      ],
      "name": "buyWatchEscrow",
      "outputs": [],
      "stateMutability": "nonpayable",
      "type": "function"
    },
    {
      "inputs": [
        {
          "internalType": "uint256",
          "name": "_tokenId",
          "type": "uint256"
        }
      ],
      "name": "cancelListing",
      "outputs": [],
      "stateMutability": "nonpayable",
      "type": "function"
    },
    {
      "inputs": [
        {
          "internalType": "uint256",
          "name": "_tokenId",
          "type": "uint256"
        }
      ],
      "name": "confirmDelivery",
      "outputs": [],
      "stateMutability": "nonpayable",
      "type": "function"
    },
    {
      "inputs": [
        {
          "internalType": "uint256",
          "name": "_tokenId",
          "type": "uint256"
        },
        {
          "internalType": "address",
          "name": "_seller",
          "type": "address"
        },
        {
          "internalType": "address",
          "name": "_buyer",
          "type": "address"
        },
        {
          "internalType": "uint256",
          "name": "_price",
          "type": "uint256"
        }
      ],
      "name": "createAuctionEscrow",
      "outputs": [],
      "stateMutability": "nonpayable",
      "type": "function"
    },
    {
      "inputs": [],
      "name": "feeRecipient",
      "outputs": [
        {
          "internalType": "address",
          "name": "",
          "type": "address"
        }
      ],
      "stateMutability": "view",
      "type": "function"
    },
    {
      "inputs": [
        {
          "internalType": "uint256",
          "name": "_tokenId",
          "type": "uint256"
        },
        {
          "internalType": "uint256",
          "name": "_price",
          "type": "uint256"
        }
      ],
      "name": "listWatch",
      "outputs": [],
      "stateMutability": "nonpayable",
      "type": "function"
    },
    {
      "inputs": [
        {
          "internalType": "uint256",
          "name": "",
          "type": "uint256"
        }
      ],
      "name": "listings",
      "outputs": [
        {
          "internalType": "address",
          "name": "seller",
          "type": "address"
        },
        {
          "internalType": "address",
          "name": "buyer",
          "type": "address"
        },
        {
          "internalType": "uint256",
          "name": "price",
          "type": "uint256"
        },
        {
          "internalType": "uint256",
          "name": "sellerDeposit",
          "type": "uint256"
        },
        {
          "internalType": "bool",
          "name": "isP2P",
          "type": "bool"
        },
        {
          "internalType": "bool",
          "name": "watchmakerApproved",
          "type": "bool"
        },
        {
          "internalType": "bool",
          "name": "isShipped",
          "type": "bool"
        },
        {
          "internalType": "address",
          "name": "assignedWatchmaker",
          "type": "address"
        },
        {
          "internalType": "address",
          "name": "verifyingWatchmaker",
          "type": "address"
        },
        {
          "internalType": "enum WatchMarketplace.ListingState",
          "name": "state",
          "type": "uint8"
        }
      ],
      "stateMutability": "view",
      "type": "function"
    },
    {
      "inputs": [],
      "name": "logisticsSystem",
      "outputs": [
        {
          "internalType": "address",
          "name": "",
          "type": "address"
        }
      ],
      "stateMutability": "view",
      "type": "function"
    },
    {
      "inputs": [
        {
          "internalType": "uint256",
          "name": "_tokenId",
          "type": "uint256"
        }
      ],
      "name": "markAsShipped",
      "outputs": [],
      "stateMutability": "nonpayable",
      "type": "function"
    },
    {
      "inputs": [],
      "name": "marketPlaceFeePercent",
      "outputs": [
        {
          "internalType": "uint256",
          "name": "",
          "type": "uint256"
        }
      ],
      "stateMutability": "view",
      "type": "function"
    },
    {
      "inputs": [],
      "name": "owner",
      "outputs": [
        {
          "internalType": "address",
          "name": "",
          "type": "address"
        }
      ],
      "stateMutability": "view",
      "type": "function"
    },
    {
      "inputs": [],
      "name": "pauseMarketplace",
      "outputs": [],
      "stateMutability": "nonpayable",
      "type": "function"
    },
    {
      "inputs": [],
      "name": "paused",
      "outputs": [
        {
          "internalType": "bool",
          "name": "",
          "type": "bool"
        }
      ],
      "stateMutability": "view",
      "type": "function"
    },
    {
      "inputs": [],
      "name": "paymentToken",
      "outputs": [
        {
          "internalType": "contract IERC20",
          "name": "",
          "type": "address"
        }
      ],
      "stateMutability": "view",
      "type": "function"
    },
    {
      "inputs": [
        {
          "internalType": "uint256",
          "name": "_tokenId",
          "type": "uint256"
        },
        {
          "internalType": "bool",
          "name": "punishSeller",
          "type": "bool"
        }
      ],
      "name": "refundEscrow",
      "outputs": [],
      "stateMutability": "nonpayable",
      "type": "function"
    },
    {
      "inputs": [],
      "name": "renounceOwnership",
      "outputs": [],
      "stateMutability": "nonpayable",
      "type": "function"
    },
    {
      "inputs": [],
      "name": "resumeMarketplace",
      "outputs": [],
      "stateMutability": "nonpayable",
      "type": "function"
    },
    {
      "inputs": [],
      "name": "royaltyPercent",
      "outputs": [
        {
          "internalType": "uint256",
          "name": "",
          "type": "uint256"
        }
      ],
      "stateMutability": "view",
      "type": "function"
    },
    {
      "inputs": [],
      "name": "sellerDepositPercent",
      "outputs": [
        {
          "internalType": "uint256",
          "name": "",
          "type": "uint256"
        }
      ],
      "stateMutability": "view",
      "type": "function"
    },
    {
      "inputs": [
        {
          "internalType": "address",
          "name": "_auctionContract",
          "type": "address"
        }
      ],
      "name": "setAuctionContract",
      "outputs": [],
      "stateMutability": "nonpayable",
      "type": "function"
    },
    {
      "inputs": [
        {
          "internalType": "uint256",
          "name": "_market",
          "type": "uint256"
        },
        {
          "internalType": "uint256",
          "name": "_royalty",
          "type": "uint256"
        },
        {
          "internalType": "uint256",
          "name": "_wm",
          "type": "uint256"
        },
        {
          "internalType": "uint256",
          "name": "_deposit",
          "type": "uint256"
        }
      ],
      "name": "setFees",
      "outputs": [],
      "stateMutability": "nonpayable",
      "type": "function"
    },
    {
      "inputs": [
        {
          "internalType": "address",
          "name": "_systemAddress",
          "type": "address"
        }
      ],
      "name": "setLogisticsSystem",
      "outputs": [],
      "stateMutability": "nonpayable",
      "type": "function"
    },
    {
      "inputs": [
        {
          "internalType": "address",
          "name": "newOwner",
          "type": "address"
        }
      ],
      "name": "transferOwnership",
      "outputs": [],
      "stateMutability": "nonpayable",
      "type": "function"
    },
    {
      "inputs": [
        {
          "internalType": "address",
          "name": "_newRecipient",
          "type": "address"
        }
      ],
      "name": "updateFeeRecipient",
      "outputs": [],
      "stateMutability": "nonpayable",
      "type": "function"
    },
    {
      "inputs": [
        {
          "internalType": "uint256",
          "name": "_tokenId",
          "type": "uint256"
        },
        {
          "internalType": "uint256",
          "name": "_newPrice",
          "type": "uint256"
        }
      ],
      "name": "updateListingPrice",
      "outputs": [],
      "stateMutability": "nonpayable",
      "type": "function"
    },
    {
      "inputs": [
        {
          "internalType": "uint256",
          "name": "_tokenId",
          "type": "uint256"
        },
        {
          "internalType": "bool",
          "name": "_isAuthentic",
          "type": "bool"
        }
      ],
      "name": "verifyAuthenticity",
      "outputs": [],
      "stateMutability": "nonpayable",
      "type": "function"
    },
    {
      "inputs": [],
      "name": "watchNFT",
      "outputs": [
        {
          "internalType": "contract WatchNFT",
          "name": "",
          "type": "address"
        }
      ],
      "stateMutability": "view",
      "type": "function"
    },
    {
      "inputs": [],
      "name": "watchmakerFeePercent",
      "outputs": [
        {
          "internalType": "uint256",
          "name": "",
          "type": "uint256"
        }
      ],
      "stateMutability": "view",
      "type": "function"
    }
  ],
  "bytecode": "0x60806040526096600355606460045560c860055560c8600655348015610023575f5ffd5b5060405161534c38038061534c833981810160405281019061004591906103cc565b335f73ffffffffffffffffffffffffffffffffffffffff168173ffffffffffffffffffffffffffffffffffffffff16036100b6575f6040517f1e4fbdf70000000000000000000000000000000000000000000000000000000081526004016100ad9190610419565b60405180910390fd5b6100c58161027b60201b60201c565b5060016100e46100d961033c60201b60201c565b61036560201b60201c565b5f01819055505f73ffffffffffffffffffffffffffffffffffffffff168273ffffffffffffffffffffffffffffffffffffffff160361014f576040517fe6c4247b00000000000000000000000000000000000000000000000000000000815260040160405180910390fd5b5f73ffffffffffffffffffffffffffffffffffffffff168173ffffffffffffffffffffffffffffffffffffffff16036101b4576040517fe6c4247b00000000000000000000000000000000000000000000000000000000815260040160405180910390fd5b8160015f6101000a81548173ffffffffffffffffffffffffffffffffffffffff021916908373ffffffffffffffffffffffffffffffffffffffff1602179055508060025f6101000a81548173ffffffffffffffffffffffffffffffffffffffff021916908373ffffffffffffffffffffffffffffffffffffffff1602179055503360075f6101000a81548173ffffffffffffffffffffffffffffffffffffffff021916908373ffffffffffffffffffffffffffffffffffffffff1602179055505050610432565b5f5f5f9054906101000a900473ffffffffffffffffffffffffffffffffffffffff169050815f5f6101000a81548173ffffffffffffffffffffffffffffffffffffffff021916908373ffffffffffffffffffffffffffffffffffffffff1602179055508173ffffffffffffffffffffffffffffffffffffffff168173ffffffffffffffffffffffffffffffffffffffff167f8be0079c531659141344cd1fd0a4f28419497f9722a3daafe3b4186f6b6457e060405160405180910390a35050565b5f7f9b779b17422d0df92223018b32b4d1fa46e071723d6817e2486d003becc55f005f1b905090565b5f819050919050565b5f5ffd5b5f73ffffffffffffffffffffffffffffffffffffffff82169050919050565b5f61039b82610372565b9050919050565b6103ab81610391565b81146103b5575f5ffd5b50565b5f815190506103c6816103a2565b92915050565b5f5f604083850312156103e2576103e161036e565b5b5f6103ef858286016103b8565b9250506020610400858286016103b8565b9150509250929050565b61041381610391565b82525050565b5f60208201905061042c5f83018461040a565b92915050565b614f0d8061043f5f395ff3fe608060405234801561000f575f5ffd5b50600436106101e3575f3560e01c8063715018a61161010d578063c4604943116100a0578063f160d3691161006f578063f160d369146104d8578063f2fde38b146104f4578063f6a03b2714610510578063fd84cb971461052c576101e3565b8063c460494314610449578063cd88c82814610465578063de74e57b14610481578063e3d20a36146104ba576101e3565b8063941fdbfe116100dc578063941fdbfe146103e95780639f67756d146103f3578063a626a68214610411578063bd99840e1461042d576101e3565b8063715018a61461038557806379ee4e361461038f57806384874eb8146103ad5780638da5cb5b146103cb576101e3565b8063409b8c94116101855780635a3c88ea116101545780635a3c88ea146103115780635baef4ac1461032d5780635c975abb1461034b5780636fcba37714610369576101e3565b8063409b8c941461029d57806346431a56146102b957806346904840146102d5578063592c7f0a146102f3576101e3565b806328596a58116101c157806328596a581461023d5780633013ce2914610259578063305a67a8146102775780633ec6227914610293576101e3565b8063023924c7146101e757806305f1fb28146102035780630ab8afac1461021f575b5f5ffd5b61020160048036038101906101fc9190614545565b610548565b005b61021d600480360381019061021891906145a3565b6105f8565b005b6102276107d9565b6040516102349190614616565b60405180910390f35b6102576004803603810190610252919061462f565b6107fe565b005b61026161099d565b60405161026e91906146c8565b60405180910390f35b610291600480360381019061028c91906146e1565b6109c2565b005b61029b610c25565b005b6102b760048036038101906102b29190614741565b610c37565b005b6102d360048036038101906102ce919061477f565b6112a4565b005b6102dd611b1a565b6040516102ea9190614616565b60405180910390f35b6102fb611b3f565b60405161030891906147cc565b60405180910390f35b61032b600480360381019061032691906146e1565b611b45565b005b6103356122e2565b6040516103429190614805565b60405180910390f35b610353612307565b604051610360919061482d565b60405180910390f35b610383600480360381019061037e9190614846565b61231c565b005b61038d6123a5565b005b6103976123b8565b6040516103a491906147cc565b60405180910390f35b6103b56123be565b6040516103c291906147cc565b60405180910390f35b6103d36123c4565b6040516103e09190614616565b60405180910390f35b6103f16123eb565b005b6103fb6123fd565b60405161040891906147cc565b60405180910390f35b61042b60048036038101906104269190614545565b612403565b005b610447600480360381019061044291906146e1565b6124b3565b005b610463600480360381019061045e919061477f565b612652565b005b61047f600480360381019061047a91906146e1565b6127e5565b005b61049b600480360381019061049691906146e1565b612c8b565b6040516104b19a9998979695949392919061491d565b60405180910390f35b6104c2612d8b565b6040516104cf9190614616565b60405180910390f35b6104f260048036038101906104ed9190614545565b612db0565b005b61050e60048036038101906105099190614545565b612e97565b005b61052a60048036038101906105259190614741565b612f1b565b005b610546600480360381019061054191906146e1565b6136ff565b005b61055061417c565b5f73ffffffffffffffffffffffffffffffffffffffff168173ffffffffffffffffffffffffffffffffffffffff16036105b5576040517fe6c4247b00000000000000000000000000000000000000000000000000000000815260040160405180910390fd5b8060095f6101000a81548173ffffffffffffffffffffffffffffffffffffffff021916908373ffffffffffffffffffffffffffffffffffffffff16021790555050565b60095f9054906101000a900473ffffffffffffffffffffffffffffffffffffffff1673ffffffffffffffffffffffffffffffffffffffff163373ffffffffffffffffffffffffffffffffffffffff161461067e576040517f82b4290000000000000000000000000000000000000000000000000000000000815260040160405180910390fd5b5f600a5f8681526020019081526020015f20905083815f015f6101000a81548173ffffffffffffffffffffffffffffffffffffffff021916908373ffffffffffffffffffffffffffffffffffffffff16021790555082816001015f6101000a81548173ffffffffffffffffffffffffffffffffffffffff021916908373ffffffffffffffffffffffffffffffffffffffff16021790555081816002018190555060028160050160146101000a81548160ff02191690836002811115610746576107456148aa565b5b021790555060018160040160016101000a81548160ff0219169083151502179055505f816004015f6101000a81548160ff0219169083151502179055508273ffffffffffffffffffffffffffffffffffffffff16857f2662de1021999d111db09723c07dc9b40847f2054ef3ef7912a31446531c4503846040516107ca91906147cc565b60405180910390a35050505050565b60095f9054906101000a900473ffffffffffffffffffffffffffffffffffffffff1681565b60085f9054906101000a900473ffffffffffffffffffffffffffffffffffffffff1673ffffffffffffffffffffffffffffffffffffffff163373ffffffffffffffffffffffffffffffffffffffff1614610884576040517f82b4290000000000000000000000000000000000000000000000000000000000815260040160405180910390fd5b600280811115610897576108966148aa565b5b600a5f8481526020019081526020015f2060050160149054906101000a900460ff1660028111156108cb576108ca6148aa565b5b14610902576040517f9ce8b72100000000000000000000000000000000000000000000000000000000815260040160405180910390fd5b80600a5f8481526020019081526020015f2060040160036101000a81548173ffffffffffffffffffffffffffffffffffffffff021916908373ffffffffffffffffffffffffffffffffffffffff1602179055508073ffffffffffffffffffffffffffffffffffffffff16827f5cd02397af3c9df12becbe41d4e442bd7cbc8c84f4dae3ceb4d985f93c68808a60405160405180910390a35050565b60025f9054906101000a900473ffffffffffffffffffffffffffffffffffffffff1681565b6109ca614203565b5f600a5f8381526020019081526020015f2090503373ffffffffffffffffffffffffffffffffffffffff16815f015f9054906101000a900473ffffffffffffffffffffffffffffffffffffffff1673ffffffffffffffffffffffffffffffffffffffff1614610a65576040517f82b4290000000000000000000000000000000000000000000000000000000000815260040160405180910390fd5b60016002811115610a7957610a786148aa565b5b8160050160149054906101000a900460ff166002811115610a9d57610a9c6148aa565b5b14610ad4576040517faa41c14700000000000000000000000000000000000000000000000000000000815260040160405180910390fd5b600a5f8381526020019081526020015f205f5f82015f6101000a81549073ffffffffffffffffffffffffffffffffffffffff0219169055600182015f6101000a81549073ffffffffffffffffffffffffffffffffffffffff0219169055600282015f9055600382015f9055600482015f6101000a81549060ff02191690556004820160016101000a81549060ff02191690556004820160026101000a81549060ff02191690556004820160036101000a81549073ffffffffffffffffffffffffffffffffffffffff0219169055600582015f6101000a81549073ffffffffffffffffffffffffffffffffffffffff02191690556005820160146101000a81549060ff021916905550503373ffffffffffffffffffffffffffffffffffffffff16827f8e25282255ab31897df2b0456bb993ac7f84d376861aefd84901d2d63a7428a260405160405180910390a35050565b610c2d61417c565b610c35614244565b565b610c3f614203565b610c476142a6565b5f600a5f8481526020019081526020015f209050600280811115610c6e57610c6d6148aa565b5b8160050160149054906101000a900460ff166002811115610c9257610c916148aa565b5b14610cc9576040517faa41c14700000000000000000000000000000000000000000000000000000000815260040160405180910390fd5b610cd16123c4565b73ffffffffffffffffffffffffffffffffffffffff163373ffffffffffffffffffffffffffffffffffffffff1614158015610d59575060085f9054906101000a900473ffffffffffffffffffffffffffffffffffffffff1673ffffffffffffffffffffffffffffffffffffffff163373ffffffffffffffffffffffffffffffffffffffff1614155b15610d90576040517f82b4290000000000000000000000000000000000000000000000000000000000815260040160405180910390fd5b5f816001015f9054906101000a900473ffffffffffffffffffffffffffffffffffffffff1690505f825f015f9054906101000a900473ffffffffffffffffffffffffffffffffffffffff1690505f836002015490505f84600301549050600a5f8881526020019081526020015f205f5f82015f6101000a81549073ffffffffffffffffffffffffffffffffffffffff0219169055600182015f6101000a81549073ffffffffffffffffffffffffffffffffffffffff0219169055600282015f9055600382015f9055600482015f6101000a81549060ff02191690556004820160016101000a81549060ff02191690556004820160026101000a81549060ff02191690556004820160036101000a81549073ffffffffffffffffffffffffffffffffffffffff0219169055600582015f6101000a81549073ffffffffffffffffffffffffffffffffffffffff02191690556005820160146101000a81549060ff0219169055505060025f9054906101000a900473ffffffffffffffffffffffffffffffffffffffff1673ffffffffffffffffffffffffffffffffffffffff1663a9059cbb85846040518363ffffffff1660e01b8152600401610f529291906149b7565b6020604051808303815f875af1158015610f6e573d5f5f3e3d5ffd5b505050506040513d601f19601f82011682018060405250810190610f9291906149f2565b610fc8576040517f90b8ec1800000000000000000000000000000000000000000000000000000000815260040160405180910390fd5b5f8111156111a25785156110ce5760025f9054906101000a900473ffffffffffffffffffffffffffffffffffffffff1673ffffffffffffffffffffffffffffffffffffffff1663a9059cbb60075f9054906101000a900473ffffffffffffffffffffffffffffffffffffffff16836040518363ffffffff1660e01b81526004016110539291906149b7565b6020604051808303815f875af115801561106f573d5f5f3e3d5ffd5b505050506040513d601f19601f8201168201806040525081019061109391906149f2565b6110c9576040517f90b8ec1800000000000000000000000000000000000000000000000000000000815260040160405180910390fd5b6111a1565b60025f9054906101000a900473ffffffffffffffffffffffffffffffffffffffff1673ffffffffffffffffffffffffffffffffffffffff1663a9059cbb84836040518363ffffffff1660e01b815260040161112a9291906149b7565b6020604051808303815f875af1158015611146573d5f5f3e3d5ffd5b505050506040513d601f19601f8201168201806040525081019061116a91906149f2565b6111a0576040517f90b8ec1800000000000000000000000000000000000000000000000000000000815260040160405180910390fd5b5b5b60015f9054906101000a900473ffffffffffffffffffffffffffffffffffffffff1673ffffffffffffffffffffffffffffffffffffffff166323b872dd30858a6040518463ffffffff1660e01b815260040161120093929190614a1d565b5f604051808303815f87803b158015611217575f5ffd5b505af1158015611229573d5f5f3e3d5ffd5b505050508273ffffffffffffffffffffffffffffffffffffffff168473ffffffffffffffffffffffffffffffffffffffff16887f469dcfeabdfb097901614c8b01cc632c073274fd19f39b9b64e2d72a2f0ab99b8560405161128b91906147cc565b60405180910390a450505050506112a06142c8565b5050565b6112ac614203565b6112b46142a6565b5f81036112ec576040517ebfc92100000000000000000000000000000000000000000000000000000000815260040160405180910390fd5b3373ffffffffffffffffffffffffffffffffffffffff1660015f9054906101000a900473ffffffffffffffffffffffffffffffffffffffff1673ffffffffffffffffffffffffffffffffffffffff16636352211e846040518263ffffffff1660e01b815260040161135d91906147cc565b602060405180830381865afa158015611378573d5f5f3e3d5ffd5b505050506040513d601f19601f8201168201806040525081019061139c9190614a66565b73ffffffffffffffffffffffffffffffffffffffff16146113e9576040517f30cd747100000000000000000000000000000000000000000000000000000000815260040160405180910390fd5b5f60028111156113fc576113fb6148aa565b5b600a5f8481526020019081526020015f2060050160149054906101000a900460ff1660028111156114305761142f6148aa565b5b14611467576040517fa3d582ec00000000000000000000000000000000000000000000000000000000815260040160405180910390fd5b3073ffffffffffffffffffffffffffffffffffffffff1660015f9054906101000a900473ffffffffffffffffffffffffffffffffffffffff1673ffffffffffffffffffffffffffffffffffffffff1663081812fc846040518263ffffffff1660e01b81526004016114d891906147cc565b602060405180830381865afa1580156114f3573d5f5f3e3d5ffd5b505050506040513d601f19601f820116820180604052508101906115179190614a66565b73ffffffffffffffffffffffffffffffffffffffff1614806115d0575060015f9054906101000a900473ffffffffffffffffffffffffffffffffffffffff1673ffffffffffffffffffffffffffffffffffffffff1663e985e9c533306040518363ffffffff1660e01b8152600401611590929190614a91565b602060405180830381865afa1580156115ab573d5f5f3e3d5ffd5b505050506040513d601f19601f820116820180604052508101906115cf91906149f2565b5b611606576040517fa9248d2500000000000000000000000000000000000000000000000000000000815260040160405180910390fd5b5f60015f9054906101000a900473ffffffffffffffffffffffffffffffffffffffff1673ffffffffffffffffffffffffffffffffffffffff16637e7892ad846040518263ffffffff1660e01b815260040161166191906147cc565b5f60405180830381865afa15801561167b573d5f5f3e3d5ffd5b505050506040513d5f823e3d601f19601f820116820180604052508101906116a39190614d6b565b90505f8160a0015160048111156116bd576116bc6148aa565b5b146116f4576040517f5537533e00000000000000000000000000000000000000000000000000000000815260040160405180910390fd5b5f60015f9054906101000a900473ffffffffffffffffffffffffffffffffffffffff1673ffffffffffffffffffffffffffffffffffffffff1663a7c4af80336040518263ffffffff1660e01b815260040161174f9190614616565b602060405180830381865afa15801561176a573d5f5f3e3d5ffd5b505050506040513d601f19601f8201168201806040525081019061178e91906149f2565b8061182e575060015f9054906101000a900473ffffffffffffffffffffffffffffffffffffffff1673ffffffffffffffffffffffffffffffffffffffff166324b04245336040518263ffffffff1660e01b81526004016117ee9190614616565b602060405180830381865afa158015611809573d5f5f3e3d5ffd5b505050506040513d601f19601f8201168201806040525081019061182d91906149f2565b5b90505f811590506040518061014001604052803373ffffffffffffffffffffffffffffffffffffffff1681526020015f73ffffffffffffffffffffffffffffffffffffffff1681526020018581526020015f8152602001821515815260200183151581526020015f151581526020015f73ffffffffffffffffffffffffffffffffffffffff1681526020015f73ffffffffffffffffffffffffffffffffffffffff168152602001600160028111156118e9576118e86148aa565b5b815250600a5f8781526020019081526020015f205f820151815f015f6101000a81548173ffffffffffffffffffffffffffffffffffffffff021916908373ffffffffffffffffffffffffffffffffffffffff1602179055506020820151816001015f6101000a81548173ffffffffffffffffffffffffffffffffffffffff021916908373ffffffffffffffffffffffffffffffffffffffff16021790555060408201518160020155606082015181600301556080820151816004015f6101000a81548160ff02191690831515021790555060a08201518160040160016101000a81548160ff02191690831515021790555060c08201518160040160026101000a81548160ff02191690831515021790555060e08201518160040160036101000a81548173ffffffffffffffffffffffffffffffffffffffff021916908373ffffffffffffffffffffffffffffffffffffffff160217905550610100820151816005015f6101000a81548173ffffffffffffffffffffffffffffffffffffffff021916908373ffffffffffffffffffffffffffffffffffffffff1602179055506101208201518160050160146101000a81548160ff02191690836002811115611ab457611ab36148aa565b5b02179055509050503373ffffffffffffffffffffffffffffffffffffffff16857ff5808f80cabd6e9e5fdb4c9b558ea920d9261a8b12265368808c7dc6fbdd960986604051611b0391906147cc565b60405180910390a3505050611b166142c8565b5050565b60075f9054906101000a900473ffffffffffffffffffffffffffffffffffffffff1681565b60035481565b611b4d614203565b611b556142a6565b5f600a5f8381526020019081526020015f209050600280811115611b7c57611b7b6148aa565b5b8160050160149054906101000a900460ff166002811115611ba057611b9f6148aa565b5b14611bd7576040517f9ce8b72100000000000000000000000000000000000000000000000000000000815260040160405180910390fd5b3373ffffffffffffffffffffffffffffffffffffffff16815f015f9054906101000a900473ffffffffffffffffffffffffffffffffffffffff1673ffffffffffffffffffffffffffffffffffffffff1614611c5e576040517f82b4290000000000000000000000000000000000000000000000000000000000815260040160405180910390fd5b5f816001015f9054906101000a900473ffffffffffffffffffffffffffffffffffffffff1690505f825f015f9054906101000a900473ffffffffffffffffffffffffffffffffffffffff1690505f836002015490505f846003015490505f5f90505f866005015f9054906101000a900473ffffffffffffffffffffffffffffffffffffffff169050866004015f9054906101000a900460ff168015611d1157508660040160019054906101000a900460ff165b8015611d4957505f73ffffffffffffffffffffffffffffffffffffffff168173ffffffffffffffffffffffffffffffffffffffff1614155b15611d6c5761271060055485611d5f9190614ddf565b611d699190614e4d565b91505b600a5f8981526020019081526020015f205f5f82015f6101000a81549073ffffffffffffffffffffffffffffffffffffffff0219169055600182015f6101000a81549073ffffffffffffffffffffffffffffffffffffffff0219169055600282015f9055600382015f9055600482015f6101000a81549060ff02191690556004820160016101000a81549060ff02191690556004820160026101000a81549060ff02191690556004820160036101000a81549073ffffffffffffffffffffffffffffffffffffffff0219169055600582015f6101000a81549073ffffffffffffffffffffffffffffffffffffffff02191690556005820160146101000a81549060ff021916905550505f8211156120315760025f9054906101000a900473ffffffffffffffffffffffffffffffffffffffff1673ffffffffffffffffffffffffffffffffffffffff1663a9059cbb82846040518363ffffffff1660e01b8152600401611ed99291906149b7565b6020604051808303815f875af1158015611ef5573d5f5f3e3d5ffd5b505050506040513d601f19601f82011682018060405250810190611f1991906149f2565b611f4f576040517f90b8ec1800000000000000000000000000000000000000000000000000000000815260040160405180910390fd5b60025f9054906101000a900473ffffffffffffffffffffffffffffffffffffffff1673ffffffffffffffffffffffffffffffffffffffff1663a9059cbb878487611f999190614e7d565b6040518363ffffffff1660e01b8152600401611fb69291906149b7565b6020604051808303815f875af1158015611fd2573d5f5f3e3d5ffd5b505050506040513d601f19601f82011682018060405250810190611ff691906149f2565b61202c576040517f90b8ec1800000000000000000000000000000000000000000000000000000000815260040160405180910390fd5b612104565b60025f9054906101000a900473ffffffffffffffffffffffffffffffffffffffff1673ffffffffffffffffffffffffffffffffffffffff1663a9059cbb87866040518363ffffffff1660e01b815260040161208d9291906149b7565b6020604051808303815f875af11580156120a9573d5f5f3e3d5ffd5b505050506040513d601f19601f820116820180604052508101906120cd91906149f2565b612103576040517f90b8ec1800000000000000000000000000000000000000000000000000000000815260040160405180910390fd5b5b5f8311156121df5760025f9054906101000a900473ffffffffffffffffffffffffffffffffffffffff1673ffffffffffffffffffffffffffffffffffffffff1663a9059cbb86856040518363ffffffff1660e01b81526004016121689291906149b7565b6020604051808303815f875af1158015612184573d5f5f3e3d5ffd5b505050506040513d601f19601f820116820180604052508101906121a891906149f2565b6121de576040517f90b8ec1800000000000000000000000000000000000000000000000000000000815260040160405180910390fd5b5b60015f9054906101000a900473ffffffffffffffffffffffffffffffffffffffff1673ffffffffffffffffffffffffffffffffffffffff166323b872dd30878b6040518463ffffffff1660e01b815260040161223d93929190614a1d565b5f604051808303815f87803b158015612254575f5ffd5b505af1158015612266573d5f5f3e3d5ffd5b505050508473ffffffffffffffffffffffffffffffffffffffff168673ffffffffffffffffffffffffffffffffffffffff16897f469dcfeabdfb097901614c8b01cc632c073274fd19f39b9b64e2d72a2f0ab99b876040516122c891906147cc565b60405180910390a4505050505050506122df6142c8565b50565b60015f9054906101000a900473ffffffffffffffffffffffffffffffffffffffff1681565b5f5f60149054906101000a900460ff16905090565b61232461417c565b6103e884118061233557506103e883115b8061234157506101f482115b8061234d57506101f481115b15612383576040517ebfc92100000000000000000000000000000000000000000000000000000000815260040160405180910390fd5b8360038190555082600481905550816005819055508060068190555050505050565b6123ad61417c565b6123b65f6142e2565b565b60065481565b60055481565b5f5f5f9054906101000a900473ffffffffffffffffffffffffffffffffffffffff16905090565b6123f361417c565b6123fb6143a3565b565b60045481565b61240b61417c565b5f73ffffffffffffffffffffffffffffffffffffffff168173ffffffffffffffffffffffffffffffffffffffff1603612470576040517fe6c4247b00000000000000000000000000000000000000000000000000000000815260040160405180910390fd5b8060085f6101000a81548173ffffffffffffffffffffffffffffffffffffffff021916908373ffffffffffffffffffffffffffffffffffffffff16021790555050565b60085f9054906101000a900473ffffffffffffffffffffffffffffffffffffffff1673ffffffffffffffffffffffffffffffffffffffff163373ffffffffffffffffffffffffffffffffffffffff1614612539576040517f7817702700000000000000000000000000000000000000000000000000000000815260040160405180910390fd5b5f600a5f8381526020019081526020015f2090506002808111156125605761255f6148aa565b5b8160050160149054906101000a900460ff166002811115612584576125836148aa565b5b146125bb576040517f9ce8b72100000000000000000000000000000000000000000000000000000000815260040160405180910390fd5b8060040160029054906101000a900460ff1615612604576040517f86dfc9e500000000000000000000000000000000000000000000000000000000815260040160405180910390fd5b60018160040160026101000a81548160ff021916908315150217905550817f0ed4077f3b9cc367bc77e8a2cff86f30075ed708a0ae9d5b0cd8d51a0a2f63c860405160405180910390a25050565b5f600a5f8481526020019081526020015f2090503373ffffffffffffffffffffffffffffffffffffffff16815f015f9054906101000a900473ffffffffffffffffffffffffffffffffffffffff1673ffffffffffffffffffffffffffffffffffffffff16146126ed576040517f82b4290000000000000000000000000000000000000000000000000000000000815260040160405180910390fd5b5f8203612725576040517ebfc92100000000000000000000000000000000000000000000000000000000815260040160405180910390fd5b60016002811115612739576127386148aa565b5b8160050160149054906101000a900460ff16600281111561275d5761275c6148aa565b5b14612794576040517faa41c14700000000000000000000000000000000000000000000000000000000815260040160405180910390fd5b5f81600201549050828260020181905550837f36cfe22dfcf2d3781d9de6b307d67a5431b45492dad5e70e53dd4af34c25b84982856040516127d7929190614eb0565b60405180910390a250505050565b6127ed614203565b6127f56142a6565b5f600a5f8381526020019081526020015f2090506001600281111561281d5761281c6148aa565b5b8160050160149054906101000a900460ff166002811115612841576128406148aa565b5b14612878576040517faa41c14700000000000000000000000000000000000000000000000000000000815260040160405180910390fd5b3373ffffffffffffffffffffffffffffffffffffffff16815f015f9054906101000a900473ffffffffffffffffffffffffffffffffffffffff1673ffffffffffffffffffffffffffffffffffffffff16036128ff576040517fcb01f96a00000000000000000000000000000000000000000000000000000000815260040160405180910390fd5b806004015f9054906101000a900460ff1615612a38575f612710600654836002015461292b9190614ddf565b6129359190614e4d565b905080826003018190555060025f9054906101000a900473ffffffffffffffffffffffffffffffffffffffff1673ffffffffffffffffffffffffffffffffffffffff166323b872dd835f015f9054906101000a900473ffffffffffffffffffffffffffffffffffffffff1630846040518463ffffffff1660e01b81526004016129c093929190614a1d565b6020604051808303815f875af11580156129dc573d5f5f3e3d5ffd5b505050506040513d601f19601f82011682018060405250810190612a0091906149f2565b612a36576040517f90b8ec1800000000000000000000000000000000000000000000000000000000815260040160405180910390fd5b505b60025f9054906101000a900473ffffffffffffffffffffffffffffffffffffffff1673ffffffffffffffffffffffffffffffffffffffff166323b872dd333084600201546040518463ffffffff1660e01b8152600401612a9a93929190614a1d565b6020604051808303815f875af1158015612ab6573d5f5f3e3d5ffd5b505050506040513d601f19601f82011682018060405250810190612ada91906149f2565b612b10576040517f90b8ec1800000000000000000000000000000000000000000000000000000000815260040160405180910390fd5b33816001015f6101000a81548173ffffffffffffffffffffffffffffffffffffffff021916908373ffffffffffffffffffffffffffffffffffffffff16021790555060028160050160146101000a81548160ff02191690836002811115612b7a57612b796148aa565b5b021790555060015f9054906101000a900473ffffffffffffffffffffffffffffffffffffffff1673ffffffffffffffffffffffffffffffffffffffff166323b872dd825f015f9054906101000a900473ffffffffffffffffffffffffffffffffffffffff1630856040518463ffffffff1660e01b8152600401612bff93929190614a1d565b5f604051808303815f87803b158015612c16575f5ffd5b505af1158015612c28573d5f5f3e3d5ffd5b505050503373ffffffffffffffffffffffffffffffffffffffff16827f2662de1021999d111db09723c07dc9b40847f2054ef3ef7912a31446531c45038360020154604051612c7791906147cc565b60405180910390a350612c886142c8565b50565b600a602052805f5260405f205f91509050805f015f9054906101000a900473ffffffffffffffffffffffffffffffffffffffff1690806001015f9054906101000a900473ffffffffffffffffffffffffffffffffffffffff1690806002015490806003015490806004015f9054906101000a900460ff16908060040160019054906101000a900460ff16908060040160029054906101000a900460ff16908060040160039054906101000a900473ffffffffffffffffffffffffffffffffffffffff1690806005015f9054906101000a900473ffffffffffffffffffffffffffffffffffffffff16908060050160149054906101000a900460ff1690508a565b60085f9054906101000a900473ffffffffffffffffffffffffffffffffffffffff1681565b612db861417c565b5f73ffffffffffffffffffffffffffffffffffffffff168173ffffffffffffffffffffffffffffffffffffffff1603612e1d576040517fe6c4247b00000000000000000000000000000000000000000000000000000000815260040160405180910390fd5b8060075f6101000a81548173ffffffffffffffffffffffffffffffffffffffff021916908373ffffffffffffffffffffffffffffffffffffffff1602179055507f7a7b5a0a132f9e0581eb8527f66eae9ee89c2a3e79d4ac7e41a1f1f4d48a7fc281604051612e8c9190614616565b60405180910390a150565b612e9f61417c565b5f73ffffffffffffffffffffffffffffffffffffffff168173ffffffffffffffffffffffffffffffffffffffff1603612f0f575f6040517f1e4fbdf7000000000000000000000000000000000000000000000000000000008152600401612f069190614616565b60405180910390fd5b612f18816142e2565b50565b612f23614203565b612f2b6142a6565b5f600a5f8481526020019081526020015f209050600280811115612f5257612f516148aa565b5b8160050160149054906101000a900460ff166002811115612f7657612f756148aa565b5b14612fad576040517f9ce8b72100000000000000000000000000000000000000000000000000000000815260040160405180910390fd5b8060040160029054906101000a900460ff16612ff5576040517fb9fca4ec00000000000000000000000000000000000000000000000000000000815260040160405180910390fd5b8060040160039054906101000a900473ffffffffffffffffffffffffffffffffffffffff1673ffffffffffffffffffffffffffffffffffffffff163373ffffffffffffffffffffffffffffffffffffffff161461307e576040517fc9bc72d300000000000000000000000000000000000000000000000000000000815260040160405180910390fd5b5f61271060055483600201546130949190614ddf565b61309e9190614e4d565b9050821561314e5760018260040160016101000a81548160ff02191690831515021790555033826005015f6101000a81548173ffffffffffffffffffffffffffffffffffffffff021916908373ffffffffffffffffffffffffffffffffffffffff1602179055503373ffffffffffffffffffffffffffffffffffffffff16847f213ed9c62fc3f1ceb155014ceb9460317e4f4f9736c49c00c0e80f3dbdcd567f60405160405180910390a36136f1565b5f826001015f9054906101000a900473ffffffffffffffffffffffffffffffffffffffff1690505f835f015f9054906101000a900473ffffffffffffffffffffffffffffffffffffffff1690505f846002015490505f85600301549050600a5f8981526020019081526020015f205f5f82015f6101000a81549073ffffffffffffffffffffffffffffffffffffffff0219169055600182015f6101000a81549073ffffffffffffffffffffffffffffffffffffffff0219169055600282015f9055600382015f9055600482015f6101000a81549060ff02191690556004820160016101000a81549060ff02191690556004820160026101000a81549060ff02191690556004820160036101000a81549073ffffffffffffffffffffffffffffffffffffffff0219169055600582015f6101000a81549073ffffffffffffffffffffffffffffffffffffffff02191690556005820160146101000a81549060ff0219169055505060025f9054906101000a900473ffffffffffffffffffffffffffffffffffffffff1673ffffffffffffffffffffffffffffffffffffffff1663a9059cbb85846040518363ffffffff1660e01b81526004016133109291906149b7565b6020604051808303815f875af115801561332c573d5f5f3e3d5ffd5b505050506040513d601f19601f8201168201806040525081019061335091906149f2565b613386576040517f90b8ec1800000000000000000000000000000000000000000000000000000000815260040160405180910390fd5b5f8186116133945785613396565b815b90505f81118015613440575060025f9054906101000a900473ffffffffffffffffffffffffffffffffffffffff1673ffffffffffffffffffffffffffffffffffffffff1663a9059cbb33836040518363ffffffff1660e01b81526004016133fe9291906149b7565b6020604051808303815f875af115801561341a573d5f5f3e3d5ffd5b505050506040513d601f19601f8201168201806040525081019061343e91906149f2565b155b15613477576040517f90b8ec1800000000000000000000000000000000000000000000000000000000815260040160405180910390fd5b5f818311613485575f613492565b81836134919190614e7d565b5b90505f8111801561355d575060025f9054906101000a900473ffffffffffffffffffffffffffffffffffffffff1673ffffffffffffffffffffffffffffffffffffffff1663a9059cbb60075f9054906101000a900473ffffffffffffffffffffffffffffffffffffffff16836040518363ffffffff1660e01b815260040161351b9291906149b7565b6020604051808303815f875af1158015613537573d5f5f3e3d5ffd5b505050506040513d601f19601f8201168201806040525081019061355b91906149f2565b155b15613594576040517f90b8ec1800000000000000000000000000000000000000000000000000000000815260040160405180910390fd5b60015f9054906101000a900473ffffffffffffffffffffffffffffffffffffffff1673ffffffffffffffffffffffffffffffffffffffff166323b872dd30878d6040518463ffffffff1660e01b81526004016135f293929190614a1d565b5f604051808303815f87803b158015613609575f5ffd5b505af115801561361b573d5f5f3e3d5ffd5b5050505060015f9054906101000a900473ffffffffffffffffffffffffffffffffffffffff1673ffffffffffffffffffffffffffffffffffffffff16631757520e8b6040518263ffffffff1660e01b815260040161367991906147cc565b5f604051808303815f87803b158015613690575f5ffd5b505af11580156136a2573d5f5f3e3d5ffd5b505050503373ffffffffffffffffffffffffffffffffffffffff168a7f6220127034fd15fd91b9d561504747d36924c1bce9ca2127fdf6bca19e17069a60405160405180910390a35050505050505b50506136fb6142c8565b5050565b613707614203565b61370f6142a6565b5f600a5f8381526020019081526020015f209050600280811115613736576137356148aa565b5b8160050160149054906101000a900460ff16600281111561375a576137596148aa565b5b14613791576040517f9ce8b72100000000000000000000000000000000000000000000000000000000815260040160405180910390fd5b8060040160019054906101000a900460ff166137d9576040517f193413f600000000000000000000000000000000000000000000000000000000815260040160405180910390fd5b806001015f9054906101000a900473ffffffffffffffffffffffffffffffffffffffff1673ffffffffffffffffffffffffffffffffffffffff163373ffffffffffffffffffffffffffffffffffffffff161415801561386b575061383b6123c4565b73ffffffffffffffffffffffffffffffffffffffff163373ffffffffffffffffffffffffffffffffffffffff1614155b80156138c4575060085f9054906101000a900473ffffffffffffffffffffffffffffffffffffffff1673ffffffffffffffffffffffffffffffffffffffff163373ffffffffffffffffffffffffffffffffffffffff1614155b156138fb576040517f82b4290000000000000000000000000000000000000000000000000000000000815260040160405180910390fd5b5f60015f9054906101000a900473ffffffffffffffffffffffffffffffffffffffff1673ffffffffffffffffffffffffffffffffffffffff16631a885919846040518263ffffffff1660e01b815260040161395691906147cc565b602060405180830381865afa158015613971573d5f5f3e3d5ffd5b505050506040513d601f19601f820116820180604052508101906139959190614a66565b90505f826002015490505f836003015490505f845f015f9054906101000a900473ffffffffffffffffffffffffffffffffffffffff1690505f612710600354856139df9190614ddf565b6139e99190614e4d565b90505f5f73ffffffffffffffffffffffffffffffffffffffff168673ffffffffffffffffffffffffffffffffffffffff1603613a25575f613a41565b61271060045486613a369190614ddf565b613a409190614e4d565b5b90505f876004015f9054906101000a900460ff16613a5f575f613a7b565b61271060055487613a709190614ddf565b613a7a9190614e4d565b5b90505f81838589613a8c9190614e7d565b613a969190614e7d565b613aa09190614e7d565b90505f896001015f9054906101000a900473ffffffffffffffffffffffffffffffffffffffff1690505f8a6005015f9054906101000a900473ffffffffffffffffffffffffffffffffffffffff169050600a5f8d81526020019081526020015f205f5f82015f6101000a81549073ffffffffffffffffffffffffffffffffffffffff0219169055600182015f6101000a81549073ffffffffffffffffffffffffffffffffffffffff0219169055600282015f9055600382015f9055600482015f6101000a81549060ff02191690556004820160016101000a81549060ff02191690556004820160026101000a81549060ff02191690556004820160036101000a81549073ffffffffffffffffffffffffffffffffffffffff0219169055600582015f6101000a81549073ffffffffffffffffffffffffffffffffffffffff02191690556005820160146101000a81549060ff021916905550505f86118015613cc2575060025f9054906101000a900473ffffffffffffffffffffffffffffffffffffffff1673ffffffffffffffffffffffffffffffffffffffff1663a9059cbb60075f9054906101000a900473ffffffffffffffffffffffffffffffffffffffff16886040518363ffffffff1660e01b8152600401613c809291906149b7565b6020604051808303815f875af1158015613c9c573d5f5f3e3d5ffd5b505050506040513d601f19601f82011682018060405250810190613cc091906149f2565b155b15613cf9576040517f90b8ec1800000000000000000000000000000000000000000000000000000000815260040160405180910390fd5b5f85118015613da1575060025f9054906101000a900473ffffffffffffffffffffffffffffffffffffffff1673ffffffffffffffffffffffffffffffffffffffff1663a9059cbb8b876040518363ffffffff1660e01b8152600401613d5f9291906149b7565b6020604051808303815f875af1158015613d7b573d5f5f3e3d5ffd5b505050506040513d601f19601f82011682018060405250810190613d9f91906149f2565b155b15613dd8576040517f90b8ec1800000000000000000000000000000000000000000000000000000000815260040160405180910390fd5b5f84118015613e80575060025f9054906101000a900473ffffffffffffffffffffffffffffffffffffffff1673ffffffffffffffffffffffffffffffffffffffff1663a9059cbb82866040518363ffffffff1660e01b8152600401613e3e9291906149b7565b6020604051808303815f875af1158015613e5a573d5f5f3e3d5ffd5b505050506040513d601f19601f82011682018060405250810190613e7e91906149f2565b155b15613eb7576040517f90b8ec1800000000000000000000000000000000000000000000000000000000815260040160405180910390fd5b5f83118015613f5f575060025f9054906101000a900473ffffffffffffffffffffffffffffffffffffffff1673ffffffffffffffffffffffffffffffffffffffff1663a9059cbb88856040518363ffffffff1660e01b8152600401613f1d9291906149b7565b6020604051808303815f875af1158015613f39573d5f5f3e3d5ffd5b505050506040513d601f19601f82011682018060405250810190613f5d91906149f2565b155b15613f96576040517f90b8ec1800000000000000000000000000000000000000000000000000000000815260040160405180910390fd5b5f8811801561403e575060025f9054906101000a900473ffffffffffffffffffffffffffffffffffffffff1673ffffffffffffffffffffffffffffffffffffffff1663a9059cbb888a6040518363ffffffff1660e01b8152600401613ffc9291906149b7565b6020604051808303815f875af1158015614018573d5f5f3e3d5ffd5b505050506040513d601f19601f8201168201806040525081019061403c91906149f2565b155b15614075576040517f90b8ec1800000000000000000000000000000000000000000000000000000000815260040160405180910390fd5b60015f9054906101000a900473ffffffffffffffffffffffffffffffffffffffff1673ffffffffffffffffffffffffffffffffffffffff166323b872dd30848f6040518463ffffffff1660e01b81526004016140d393929190614a1d565b5f604051808303815f87803b1580156140ea575f5ffd5b505af11580156140fc573d5f5f3e3d5ffd5b505050508673ffffffffffffffffffffffffffffffffffffffff163373ffffffffffffffffffffffffffffffffffffffff168d7f1b44502901e931a03e1ed724d3d7746167e9699a6831744cc24066c94ee414f08c60405161415e91906147cc565b60405180910390a450505050505050505050506141796142c8565b50565b614184614404565b73ffffffffffffffffffffffffffffffffffffffff166141a26123c4565b73ffffffffffffffffffffffffffffffffffffffff1614614201576141c5614404565b6040517f118cdaa70000000000000000000000000000000000000000000000000000000081526004016141f89190614616565b60405180910390fd5b565b61420b612307565b15614242576040517fd93c066500000000000000000000000000000000000000000000000000000000815260040160405180910390fd5b565b61424c614203565b60015f60146101000a81548160ff0219169083151502179055507f62e78cea01bee320cd4e420270b5ea74000d11b0c9f74754ebdbfc544b05a25861428f614404565b60405161429c9190614616565b60405180910390a1565b6142ae61440b565b60026142c06142bb61444c565b614475565b5f0181905550565b60016142da6142d561444c565b614475565b5f0181905550565b5f5f5f9054906101000a900473ffffffffffffffffffffffffffffffffffffffff169050815f5f6101000a81548173ffffffffffffffffffffffffffffffffffffffff021916908373ffffffffffffffffffffffffffffffffffffffff1602179055508173ffffffffffffffffffffffffffffffffffffffff168173ffffffffffffffffffffffffffffffffffffffff167f8be0079c531659141344cd1fd0a4f28419497f9722a3daafe3b4186f6b6457e060405160405180910390a35050565b6143ab61447e565b5f5f60146101000a81548160ff0219169083151502179055507f5db9ee0a495bf2e6ff9c91a7834c1ba4fdd244a5e8aa4e537bd38aeae4b073aa6143ed614404565b6040516143fa9190614616565b60405180910390a1565b5f33905090565b6144136144be565b1561444a576040517f3ee5aeb500000000000000000000000000000000000000000000000000000000815260040160405180910390fd5b565b5f7f9b779b17422d0df92223018b32b4d1fa46e071723d6817e2486d003becc55f005f1b905090565b5f819050919050565b614486612307565b6144bc576040517f8dfc202b00000000000000000000000000000000000000000000000000000000815260040160405180910390fd5b565b5f60026144d16144cc61444c565b614475565b5f015414905090565b5f604051905090565b5f5ffd5b5f5ffd5b5f73ffffffffffffffffffffffffffffffffffffffff82169050919050565b5f614514826144eb565b9050919050565b6145248161450a565b811461452e575f5ffd5b50565b5f8135905061453f8161451b565b92915050565b5f6020828403121561455a576145596144e3565b5b5f61456784828501614531565b91505092915050565b5f819050919050565b61458281614570565b811461458c575f5ffd5b50565b5f8135905061459d81614579565b92915050565b5f5f5f5f608085870312156145bb576145ba6144e3565b5b5f6145c88782880161458f565b94505060206145d987828801614531565b93505060406145ea87828801614531565b92505060606145fb8782880161458f565b91505092959194509250565b6146108161450a565b82525050565b5f6020820190506146295f830184614607565b92915050565b5f5f60408385031215614645576146446144e3565b5b5f6146528582860161458f565b925050602061466385828601614531565b9150509250929050565b5f819050919050565b5f61469061468b614686846144eb565b61466d565b6144eb565b9050919050565b5f6146a182614676565b9050919050565b5f6146b282614697565b9050919050565b6146c2816146a8565b82525050565b5f6020820190506146db5f8301846146b9565b92915050565b5f602082840312156146f6576146f56144e3565b5b5f6147038482850161458f565b91505092915050565b5f8115159050919050565b6147208161470c565b811461472a575f5ffd5b50565b5f8135905061473b81614717565b92915050565b5f5f60408385031215614757576147566144e3565b5b5f6147648582860161458f565b92505060206147758582860161472d565b9150509250929050565b5f5f60408385031215614795576147946144e3565b5b5f6147a28582860161458f565b92505060206147b38582860161458f565b9150509250929050565b6147c681614570565b82525050565b5f6020820190506147df5f8301846147bd565b92915050565b5f6147ef82614697565b9050919050565b6147ff816147e5565b82525050565b5f6020820190506148185f8301846147f6565b92915050565b6148278161470c565b82525050565b5f6020820190506148405f83018461481e565b92915050565b5f5f5f5f6080858703121561485e5761485d6144e3565b5b5f61486b8782880161458f565b945050602061487c8782880161458f565b935050604061488d8782880161458f565b925050606061489e8782880161458f565b91505092959194509250565b7f4e487b71000000000000000000000000000000000000000000000000000000005f52602160045260245ffd5b600381106148e8576148e76148aa565b5b50565b5f8190506148f8826148d7565b919050565b5f614907826148eb565b9050919050565b614917816148fd565b82525050565b5f610140820190506149315f83018d614607565b61493e602083018c614607565b61494b604083018b6147bd565b614958606083018a6147bd565b614965608083018961481e565b61497260a083018861481e565b61497f60c083018761481e565b61498c60e0830186614607565b61499a610100830185614607565b6149a861012083018461490e565b9b9a5050505050505050505050565b5f6040820190506149ca5f830185614607565b6149d760208301846147bd565b9392505050565b5f815190506149ec81614717565b92915050565b5f60208284031215614a0757614a066144e3565b5b5f614a14848285016149de565b91505092915050565b5f606082019050614a305f830186614607565b614a3d6020830185614607565b614a4a60408301846147bd565b949350505050565b5f81519050614a608161451b565b92915050565b5f60208284031215614a7b57614a7a6144e3565b5b5f614a8884828501614a52565b91505092915050565b5f604082019050614aa45f830185614607565b614ab16020830184614607565b9392505050565b5f5ffd5b5f601f19601f8301169050919050565b7f4e487b71000000000000000000000000000000000000000000000000000000005f52604160045260245ffd5b614b0282614abc565b810181811067ffffffffffffffff82111715614b2157614b20614acc565b5b80604052505050565b5f614b336144da565b9050614b3f8282614af9565b919050565b5f5ffd5b5f5ffd5b5f5ffd5b5f67ffffffffffffffff821115614b6a57614b69614acc565b5b614b7382614abc565b9050602081019050919050565b8281835e5f83830152505050565b5f614ba0614b9b84614b50565b614b2a565b905082815260208101848484011115614bbc57614bbb614b4c565b5b614bc7848285614b80565b509392505050565b5f82601f830112614be357614be2614b48565b5b8151614bf3848260208601614b8e565b91505092915050565b5f81519050614c0a81614579565b92915050565b5f819050919050565b614c2281614c10565b8114614c2c575f5ffd5b50565b5f81519050614c3d81614c19565b92915050565b60058110614c4f575f5ffd5b50565b5f81519050614c6081614c43565b92915050565b5f60e08284031215614c7b57614c7a614ab8565b5b614c8560e0614b2a565b90505f82015167ffffffffffffffff811115614ca457614ca3614b44565b5b614cb084828501614bcf565b5f83015250602082015167ffffffffffffffff811115614cd357614cd2614b44565b5b614cdf84828501614bcf565b602083015250604082015167ffffffffffffffff811115614d0357614d02614b44565b5b614d0f84828501614bcf565b6040830152506060614d2384828501614bfc565b6060830152506080614d3784828501614c2f565b60808301525060a0614d4b84828501614c52565b60a08301525060c0614d5f84828501614a52565b60c08301525092915050565b5f60208284031215614d8057614d7f6144e3565b5b5f82015167ffffffffffffffff811115614d9d57614d9c6144e7565b5b614da984828501614c66565b91505092915050565b7f4e487b71000000000000000000000000000000000000000000000000000000005f52601160045260245ffd5b5f614de982614570565b9150614df483614570565b9250828202614e0281614570565b91508282048414831517614e1957614e18614db2565b5b5092915050565b7f4e487b71000000000000000000000000000000000000000000000000000000005f52601260045260245ffd5b5f614e5782614570565b9150614e6283614570565b925082614e7257614e71614e20565b5b828204905092915050565b5f614e8782614570565b9150614e9283614570565b9250828203905081811115614eaa57614ea9614db2565b5b92915050565b5f604082019050614ec35f8301856147bd565b614ed060208301846147bd565b939250505056fea26469706673582212206590a058f0172836f8269cd97ad2547235587c22d2af20c95f7d9d970329c6d164736f6c634300081c0033",
  "linkReferences": {},
  "deployedLinkReferences": {}
}