{
  "_format": "hh-sol-artifact-1",
  "contractName": "WatchMarketplace",
  "sourceName": "contracts/WatchMarketplace.sol",
  "abi": [
    {
      "inputs": [
        {
          "internalType": "address",
          "name": "_watchNFTAddress",
          "type": "address"
        },
        {
          "internalType": "address",
          "name": "_paymentTokenAddress",
          "type": "address"
        }
      ],
      "stateMutability": "nonpayable",
      "type": "constructor"
    },
    {
      "inputs": [],
      "name": "AlreadyListed",
      "type": "error"
    },
    {
      "inputs": [],
      "name": "AlreadyShipped",
      "type": "error"
    },
    {
      "inputs": [],
      "name": "EnforcedPause",
      "type": "error"
    },
    {
      "inputs": [],
      "name": "ExpectedPause",
      "type": "error"
    },
    {
      "inputs": [],
      "name": "InactiveListing",
      "type": "error"
    },
    {
      "inputs": [],
      "name": "InvalidAddress",
      "type": "error"
    },
    {
      "inputs": [],
      "name": "InvalidPrice",
      "type": "error"
    },
    {
      "inputs": [],
      "name": "InvalidSignature",
      "type": "error"
    },
    {
      "inputs": [],
      "name": "MarketplaceNotApproved",
      "type": "error"
    },
    {
      "inputs": [],
      "name": "NotAssignedWatchmaker",
      "type": "error"
    },
    {
      "inputs": [],
      "name": "NotInEscrow",
      "type": "error"
    },
    {
      "inputs": [],
      "name": "NotLogisticsSystem",
      "type": "error"
    },
    {
      "inputs": [],
      "name": "NotOwner",
      "type": "error"
    },
    {
      "inputs": [],
      "name": "NotShipped",
      "type": "error"
    },
    {
      "inputs": [
        {
          "internalType": "address",
          "name": "owner",
          "type": "address"
        }
      ],
      "name": "OwnableInvalidOwner",
      "type": "error"
    },
    {
      "inputs": [
        {
          "internalType": "address",
          "name": "account",
          "type": "address"
        }
      ],
      "name": "OwnableUnauthorizedAccount",
      "type": "error"
    },
    {
      "inputs": [],
      "name": "PendingVerification",
      "type": "error"
    },
    {
      "inputs": [],
      "name": "ReentrancyGuardReentrantCall",
      "type": "error"
    },
    {
      "inputs": [],
      "name": "SelfPurchaseNotAllowed",
      "type": "error"
    },
    {
      "inputs": [],
      "name": "TransferFailed",
      "type": "error"
    },
    {
      "inputs": [],
      "name": "Unauthorized",
      "type": "error"
    },
    {
      "inputs": [],
      "name": "WatchNotActive",
      "type": "error"
    },
    {
      "anonymous": false,
      "inputs": [
        {
          "indexed": true,
          "internalType": "uint256",
          "name": "tokenId",
          "type": "uint256"
        },
        {
          "indexed": true,
          "internalType": "address",
          "name": "watchmaker",
          "type": "address"
        }
      ],
      "name": "AuthenticityApproved",
      "type": "event"
    },
    {
      "anonymous": false,
      "inputs": [
        {
          "indexed": true,
          "internalType": "uint256",
          "name": "tokenId",
          "type": "uint256"
        },
        {
          "indexed": true,
          "internalType": "address",
          "name": "watchmaker",
          "type": "address"
        }
      ],
      "name": "AuthenticityRejected",
      "type": "event"
    },
    {
      "anonymous": false,
      "inputs": [
        {
          "indexed": true,
          "internalType": "uint256",
          "name": "tokenId",
          "type": "uint256"
        },
        {
          "indexed": true,
          "internalType": "address",
          "name": "buyer",
          "type": "address"
        },
        {
          "indexed": false,
          "internalType": "uint256",
          "name": "price",
          "type": "uint256"
        }
      ],
      "name": "EscrowInitiated",
      "type": "event"
    },
    {
      "anonymous": false,
      "inputs": [
        {
          "indexed": true,
          "internalType": "uint256",
          "name": "tokenId",
          "type": "uint256"
        },
        {
          "indexed": true,
          "internalType": "address",
          "name": "buyer",
          "type": "address"
        },
        {
          "indexed": true,
          "internalType": "address",
          "name": "seller",
          "type": "address"
        },
        {
          "indexed": false,
          "internalType": "uint256",
          "name": "price",
          "type": "uint256"
        }
      ],
      "name": "EscrowRefunded",
      "type": "event"
    },
    {
      "anonymous": false,
      "inputs": [
        {
          "indexed": false,
          "internalType": "address",
          "name": "newRecipient",
          "type": "address"
        }
      ],
      "name": "FeeRecipientUpdated",
      "type": "event"
    },
    {
      "anonymous": false,
      "inputs": [
        {
          "indexed": true,
          "internalType": "uint256",
          "name": "tokenId",
          "type": "uint256"
        },
        {
          "indexed": true,
          "internalType": "address",
          "name": "seller",
          "type": "address"
        }
      ],
      "name": "ListingCancelled",
      "type": "event"
    },
    {
      "anonymous": false,
      "inputs": [
        {
          "indexed": true,
          "internalType": "uint256",
          "name": "tokenId",
          "type": "uint256"
        },
        {
          "indexed": false,
          "internalType": "uint256",
          "name": "oldPrice",
          "type": "uint256"
        },
        {
          "indexed": false,
          "internalType": "uint256",
          "name": "newPrice",
          "type": "uint256"
        }
      ],
      "name": "ListingPriceUpdated",
      "type": "event"
    },
    {
      "anonymous": false,
      "inputs": [
        {
          "indexed": true,
          "internalType": "address",
          "name": "previousOwner",
          "type": "address"
        },
        {
          "indexed": true,
          "internalType": "address",
          "name": "newOwner",
          "type": "address"
        }
      ],
      "name": "OwnershipTransferred",
      "type": "event"
    },
    {
      "anonymous": false,
      "inputs": [
        {
          "indexed": false,
          "internalType": "address",
          "name": "account",
          "type": "address"
        }
      ],
      "name": "Paused",
      "type": "event"
    },
    {
      "anonymous": false,
      "inputs": [
        {
          "indexed": true,
          "internalType": "uint256",
          "name": "tokenId",
          "type": "uint256"
        },
        {
          "indexed": true,
          "internalType": "address",
          "name": "buyer",
          "type": "address"
        },
        {
          "indexed": true,
          "internalType": "address",
          "name": "seller",
          "type": "address"
        },
        {
          "indexed": false,
          "internalType": "uint256",
          "name": "price",
          "type": "uint256"
        }
      ],
      "name": "SaleCompleted",
      "type": "event"
    },
    {
      "anonymous": false,
      "inputs": [
        {
          "indexed": false,
          "internalType": "address",
          "name": "account",
          "type": "address"
        }
      ],
      "name": "Unpaused",
      "type": "event"
    },
    {
      "anonymous": false,
      "inputs": [
        {
          "indexed": true,
          "internalType": "uint256",
          "name": "tokenId",
          "type": "uint256"
        },
        {
          "indexed": true,
          "internalType": "address",
          "name": "seller",
          "type": "address"
        },
        {
          "indexed": false,
          "internalType": "uint256",
          "name": "price",
          "type": "uint256"
        }
      ],
      "name": "WatchListed",
      "type": "event"
    },
    {
      "anonymous": false,
      "inputs": [
        {
          "indexed": true,
          "internalType": "uint256",
          "name": "tokenId",
          "type": "uint256"
        }
      ],
      "name": "WatchShipped",
      "type": "event"
    },
    {
      "anonymous": false,
      "inputs": [
        {
          "indexed": true,
          "internalType": "uint256",
          "name": "tokenId",
          "type": "uint256"
        },
        {
          "indexed": true,
          "internalType": "address",
          "name": "watchmaker",
          "type": "address"
        }
      ],
      "name": "WatchmakerAssigned",
      "type": "event"
    },
    {
      "inputs": [
        {
          "internalType": "uint256",
          "name": "_tokenId",
          "type": "uint256"
        },
        {
          "internalType": "address",
          "name": "_buyer",
          "type": "address"
        },
        {
          "internalType": "uint256",
          "name": "_amount",
          "type": "uint256"
        },
        {
          "internalType": "uint256",
          "name": "_deadline",
          "type": "uint256"
        },
        {
          "internalType": "bytes",
          "name": "_signature",
          "type": "bytes"
        }
      ],
      "name": "acceptOffChainOffer",
      "outputs": [],
      "stateMutability": "nonpayable",
      "type": "function"
    },
    {
      "inputs": [
        {
          "internalType": "uint256",
          "name": "_tokenId",
          "type": "uint256"
        }
      ],
      "name": "approveReturn",
      "outputs": [],
      "stateMutability": "nonpayable",
      "type": "function"
    },
    {
      "inputs": [
        {
          "internalType": "uint256",
          "name": "_tokenId",
          "type": "uint256"
        },
        {
          "internalType": "address",
          "name": "_watchmaker",
          "type": "address"
        }
      ],
      "name": "assignWatchmaker",
      "outputs": [],
      "stateMutability": "nonpayable",
      "type": "function"
    },
    {
      "inputs": [],
      "name": "auctionContract",
      "outputs": [
        {
          "internalType": "address",
          "name": "",
          "type": "address"
        }
      ],
      "stateMutability": "view",
      "type": "function"
    },
    {
      "inputs": [
        {
          "internalType": "uint256",
          "name": "_tokenId",
          "type": "uint256"
        }
      ],
      "name": "buyWatchEscrow",
      "outputs": [],
      "stateMutability": "nonpayable",
      "type": "function"
    },
    {
      "inputs": [
        {
          "internalType": "uint256",
          "name": "_tokenId",
          "type": "uint256"
        }
      ],
      "name": "cancelListing",
      "outputs": [],
      "stateMutability": "nonpayable",
      "type": "function"
    },
    {
      "inputs": [
        {
          "internalType": "bytes",
          "name": "_signature",
          "type": "bytes"
        }
      ],
      "name": "cancelMyOffer",
      "outputs": [],
      "stateMutability": "nonpayable",
      "type": "function"
    },
    {
      "inputs": [
        {
          "internalType": "uint256",
          "name": "_tokenId",
          "type": "uint256"
        }
      ],
      "name": "confirmDelivery",
      "outputs": [],
      "stateMutability": "nonpayable",
      "type": "function"
    },
    {
      "inputs": [
        {
          "internalType": "uint256",
          "name": "_tokenId",
          "type": "uint256"
        },
        {
          "internalType": "address",
          "name": "_seller",
          "type": "address"
        },
        {
          "internalType": "address",
          "name": "_buyer",
          "type": "address"
        },
        {
          "internalType": "uint256",
          "name": "_price",
          "type": "uint256"
        }
      ],
      "name": "createAuctionEscrow",
      "outputs": [],
      "stateMutability": "nonpayable",
      "type": "function"
    },
    {
      "inputs": [],
      "name": "feeRecipient",
      "outputs": [
        {
          "internalType": "address",
          "name": "",
          "type": "address"
        }
      ],
      "stateMutability": "view",
      "type": "function"
    },
    {
      "inputs": [
        {
          "internalType": "uint256",
          "name": "_tokenId",
          "type": "uint256"
        },
        {
          "internalType": "uint256",
          "name": "_price",
          "type": "uint256"
        }
      ],
      "name": "listWatch",
      "outputs": [],
      "stateMutability": "nonpayable",
      "type": "function"
    },
    {
      "inputs": [
        {
          "internalType": "uint256",
          "name": "",
          "type": "uint256"
        }
      ],
      "name": "listings",
      "outputs": [
        {
          "internalType": "address",
          "name": "seller",
          "type": "address"
        },
        {
          "internalType": "address",
          "name": "buyer",
          "type": "address"
        },
        {
          "internalType": "uint256",
          "name": "price",
          "type": "uint256"
        },
        {
          "internalType": "uint256",
          "name": "sellerDeposit",
          "type": "uint256"
        },
        {
          "internalType": "bool",
          "name": "isP2P",
          "type": "bool"
        },
        {
          "internalType": "bool",
          "name": "watchmakerApproved",
          "type": "bool"
        },
        {
          "internalType": "bool",
          "name": "isShipped",
          "type": "bool"
        },
        {
          "internalType": "address",
          "name": "assignedWatchmaker",
          "type": "address"
        },
        {
          "internalType": "address",
          "name": "verifyingWatchmaker",
          "type": "address"
        },
        {
          "internalType": "enum WatchMarketplace.ListingState",
          "name": "state",
          "type": "uint8"
        }
      ],
      "stateMutability": "view",
      "type": "function"
    },
    {
      "inputs": [],
      "name": "logisticsSystem",
      "outputs": [
        {
          "internalType": "address",
          "name": "",
          "type": "address"
        }
      ],
      "stateMutability": "view",
      "type": "function"
    },
    {
      "inputs": [
        {
          "internalType": "uint256",
          "name": "_tokenId",
          "type": "uint256"
        }
      ],
      "name": "markAsShipped",
      "outputs": [],
      "stateMutability": "nonpayable",
      "type": "function"
    },
    {
      "inputs": [],
      "name": "marketPlaceFeePercent",
      "outputs": [
        {
          "internalType": "uint256",
          "name": "",
          "type": "uint256"
        }
      ],
      "stateMutability": "view",
      "type": "function"
    },
    {
      "inputs": [],
      "name": "owner",
      "outputs": [
        {
          "internalType": "address",
          "name": "",
          "type": "address"
        }
      ],
      "stateMutability": "view",
      "type": "function"
    },
    {
      "inputs": [],
      "name": "pauseMarketplace",
      "outputs": [],
      "stateMutability": "nonpayable",
      "type": "function"
    },
    {
      "inputs": [],
      "name": "paused",
      "outputs": [
        {
          "internalType": "bool",
          "name": "",
          "type": "bool"
        }
      ],
      "stateMutability": "view",
      "type": "function"
    },
    {
      "inputs": [],
      "name": "paymentToken",
      "outputs": [
        {
          "internalType": "contract IERC20",
          "name": "",
          "type": "address"
        }
      ],
      "stateMutability": "view",
      "type": "function"
    },
    {
      "inputs": [
        {
          "internalType": "uint256",
          "name": "_tokenId",
          "type": "uint256"
        },
        {
          "internalType": "bool",
          "name": "punishSeller",
          "type": "bool"
        }
      ],
      "name": "refundEscrow",
      "outputs": [],
      "stateMutability": "nonpayable",
      "type": "function"
    },
    {
      "inputs": [],
      "name": "renounceOwnership",
      "outputs": [],
      "stateMutability": "nonpayable",
      "type": "function"
    },
    {
      "inputs": [],
      "name": "resumeMarketplace",
      "outputs": [],
      "stateMutability": "nonpayable",
      "type": "function"
    },
    {
      "inputs": [],
      "name": "royaltyPercent",
      "outputs": [
        {
          "internalType": "uint256",
          "name": "",
          "type": "uint256"
        }
      ],
      "stateMutability": "view",
      "type": "function"
    },
    {
      "inputs": [],
      "name": "sellerDepositPercent",
      "outputs": [
        {
          "internalType": "uint256",
          "name": "",
          "type": "uint256"
        }
      ],
      "stateMutability": "view",
      "type": "function"
    },
    {
      "inputs": [
        {
          "internalType": "address",
          "name": "_auctionContract",
          "type": "address"
        }
      ],
      "name": "setAuctionContract",
      "outputs": [],
      "stateMutability": "nonpayable",
      "type": "function"
    },
    {
      "inputs": [
        {
          "internalType": "uint256",
          "name": "_market",
          "type": "uint256"
        },
        {
          "internalType": "uint256",
          "name": "_royalty",
          "type": "uint256"
        },
        {
          "internalType": "uint256",
          "name": "_wm",
          "type": "uint256"
        },
        {
          "internalType": "uint256",
          "name": "_deposit",
          "type": "uint256"
        }
      ],
      "name": "setFees",
      "outputs": [],
      "stateMutability": "nonpayable",
      "type": "function"
    },
    {
      "inputs": [
        {
          "internalType": "address",
          "name": "_systemAddress",
          "type": "address"
        }
      ],
      "name": "setLogisticsSystem",
      "outputs": [],
      "stateMutability": "nonpayable",
      "type": "function"
    },
    {
      "inputs": [
        {
          "internalType": "address",
          "name": "_verifierAddress",
          "type": "address"
        }
      ],
      "name": "setSignatureVerifier",
      "outputs": [],
      "stateMutability": "nonpayable",
      "type": "function"
    },
    {
      "inputs": [
        {
          "internalType": "address",
          "name": "newOwner",
          "type": "address"
        }
      ],
      "name": "transferOwnership",
      "outputs": [],
      "stateMutability": "nonpayable",
      "type": "function"
    },
    {
      "inputs": [
        {
          "internalType": "address",
          "name": "_newRecipient",
          "type": "address"
        }
      ],
      "name": "updateFeeRecipient",
      "outputs": [],
      "stateMutability": "nonpayable",
      "type": "function"
    },
    {
      "inputs": [
        {
          "internalType": "uint256",
          "name": "_tokenId",
          "type": "uint256"
        },
        {
          "internalType": "uint256",
          "name": "_newPrice",
          "type": "uint256"
        }
      ],
      "name": "updateListingPrice",
      "outputs": [],
      "stateMutability": "nonpayable",
      "type": "function"
    },
    {
      "inputs": [
        {
          "internalType": "bytes32",
          "name": "",
          "type": "bytes32"
        }
      ],
      "name": "usedSignatures",
      "outputs": [
        {
          "internalType": "bool",
          "name": "",
          "type": "bool"
        }
      ],
      "stateMutability": "view",
      "type": "function"
    },
    {
      "inputs": [
        {
          "internalType": "uint256",
          "name": "_tokenId",
          "type": "uint256"
        },
        {
          "internalType": "bool",
          "name": "_isAuthentic",
          "type": "bool"
        }
      ],
      "name": "verifyAuthenticity",
      "outputs": [],
      "stateMutability": "nonpayable",
      "type": "function"
    },
    {
      "inputs": [],
      "name": "watchNFT",
      "outputs": [
        {
          "internalType": "contract WatchNFT",
          "name": "",
          "type": "address"
        }
      ],
      "stateMutability": "view",
      "type": "function"
    },
    {
      "inputs": [],
      "name": "watchmakerFeePercent",
      "outputs": [
        {
          "internalType": "uint256",
          "name": "",
          "type": "uint256"
        }
      ],
      "stateMutability": "view",
      "type": "function"
    }
  ],
  "bytecode": "0x60806040526096600455606460055560c860065560c8600755348015610023575f5ffd5b50604051615e5f380380615e5f833981810160405281019061004591906103cc565b335f73ffffffffffffffffffffffffffffffffffffffff168173ffffffffffffffffffffffffffffffffffffffff16036100b6575f6040517f1e4fbdf70000000000000000000000000000000000000000000000000000000081526004016100ad9190610419565b60405180910390fd5b6100c58161027b60201b60201c565b5060016100e46100d961033c60201b60201c565b61036560201b60201c565b5f01819055505f73ffffffffffffffffffffffffffffffffffffffff168273ffffffffffffffffffffffffffffffffffffffff160361014f576040517fe6c4247b00000000000000000000000000000000000000000000000000000000815260040160405180910390fd5b5f73ffffffffffffffffffffffffffffffffffffffff168173ffffffffffffffffffffffffffffffffffffffff16036101b4576040517fe6c4247b00000000000000000000000000000000000000000000000000000000815260040160405180910390fd5b8160015f6101000a81548173ffffffffffffffffffffffffffffffffffffffff021916908373ffffffffffffffffffffffffffffffffffffffff1602179055508060025f6101000a81548173ffffffffffffffffffffffffffffffffffffffff021916908373ffffffffffffffffffffffffffffffffffffffff1602179055503360085f6101000a81548173ffffffffffffffffffffffffffffffffffffffff021916908373ffffffffffffffffffffffffffffffffffffffff1602179055505050610432565b5f5f5f9054906101000a900473ffffffffffffffffffffffffffffffffffffffff169050815f5f6101000a81548173ffffffffffffffffffffffffffffffffffffffff021916908373ffffffffffffffffffffffffffffffffffffffff1602179055508173ffffffffffffffffffffffffffffffffffffffff168173ffffffffffffffffffffffffffffffffffffffff167f8be0079c531659141344cd1fd0a4f28419497f9722a3daafe3b4186f6b6457e060405160405180910390a35050565b5f7f9b779b17422d0df92223018b32b4d1fa46e071723d6817e2486d003becc55f005f1b905090565b5f819050919050565b5f5ffd5b5f73ffffffffffffffffffffffffffffffffffffffff82169050919050565b5f61039b82610372565b9050919050565b6103ab81610391565b81146103b5575f5ffd5b50565b5f815190506103c6816103a2565b92915050565b5f5f604083850312156103e2576103e161036e565b5b5f6103ef858286016103b8565b9250506020610400858286016103b8565b9150509250929050565b61041381610391565b82525050565b5f60208201905061042c5f83018461040a565b92915050565b615a208061043f5f395ff3fe608060405234801561000f575f5ffd5b506004361061021a575f3560e01c806384874eb811610123578063de74e57b116100ab578063f2fde38b1161007a578063f2fde38b1461057f578063f6a03b271461059b578063f978fd61146105b7578063fd84cb97146105e7578063fde919f6146106035761021a565b8063de74e57b146104f0578063e08a660514610529578063e3d20a3614610545578063f160d369146105635761021a565b8063a30379b8116100f2578063a30379b814610464578063a626a68214610480578063bd99840e1461049c578063c4604943146104b8578063cd88c828146104d45761021a565b806384874eb8146104005780638da5cb5b1461041e578063941fdbfe1461043c5780639f67756d146104465761021a565b806346431a56116101a65780635baef4ac116101755780635baef4ac146103805780635c975abb1461039e5780636fcba377146103bc578063715018a6146103d857806379ee4e36146103e25761021a565b806346431a561461030c5780634690484014610328578063592c7f0a146103465780635a3c88ea146103645761021a565b806328596a58116101ed57806328596a58146102905780633013ce29146102ac578063305a67a8146102ca5780633ec62279146102e6578063409b8c94146102f05761021a565b8063023924c71461021e57806305f1fb281461023a5780630ab8afac14610256578063158cfe9714610274575b5f5ffd5b61023860048036038101906102339190614db0565b610621565b005b610254600480360381019061024f9190614e0e565b6106d1565b005b61025e6108b2565b60405161026b9190614e81565b60405180910390f35b61028e60048036038101906102899190614fd6565b6108d7565b005b6102aa60048036038101906102a5919061501d565b61090f565b005b6102b4610aae565b6040516102c191906150b6565b60405180910390f35b6102e460048036038101906102df91906150cf565b610ad3565b005b6102ee610d36565b005b61030a6004803603810190610305919061512f565b610d48565b005b6103266004803603810190610321919061516d565b6113b5565b005b610330611c2b565b60405161033d9190614e81565b60405180910390f35b61034e611c50565b60405161035b91906151ba565b60405180910390f35b61037e600480360381019061037991906150cf565b611c56565b005b6103886123f3565b60405161039591906151f3565b60405180910390f35b6103a6612418565b6040516103b3919061521b565b60405180910390f35b6103d660048036038101906103d19190615234565b61242d565b005b6103e06124b6565b005b6103ea6124c9565b6040516103f791906151ba565b60405180910390f35b6104086124cf565b60405161041591906151ba565b60405180910390f35b6104266124d5565b6040516104339190614e81565b60405180910390f35b6104446124fc565b005b61044e61250e565b60405161045b91906151ba565b60405180910390f35b61047e60048036038101906104799190615298565b612514565b005b61049a60048036038101906104959190614db0565b612b7c565b005b6104b660048036038101906104b191906150cf565b612c2c565b005b6104d260048036038101906104cd919061516d565b612dcb565b005b6104ee60048036038101906104e991906150cf565b612f5e565b005b61050a600480360381019061050591906150cf565b613404565b6040516105209a9998979695949392919061539e565b60405180910390f35b610543600480360381019061053e9190614db0565b613504565b005b61054d6135b4565b60405161055a9190614e81565b60405180910390f35b61057d60048036038101906105789190614db0565b6135d9565b005b61059960048036038101906105949190614db0565b6136c0565b005b6105b560048036038101906105b0919061512f565b613744565b005b6105d160048036038101906105cc919061546b565b613f28565b6040516105de919061521b565b60405180910390f35b61060160048036038101906105fc91906150cf565b613f45565b005b61060b6149c2565b60405161061891906154b6565b60405180910390f35b6106296149e7565b5f73ffffffffffffffffffffffffffffffffffffffff168173ffffffffffffffffffffffffffffffffffffffff160361068e576040517fe6c4247b00000000000000000000000000000000000000000000000000000000815260040160405180910390fd5b80600a5f6101000a81548173ffffffffffffffffffffffffffffffffffffffff021916908373ffffffffffffffffffffffffffffffffffffffff16021790555050565b600a5f9054906101000a900473ffffffffffffffffffffffffffffffffffffffff1673ffffffffffffffffffffffffffffffffffffffff163373ffffffffffffffffffffffffffffffffffffffff1614610757576040517f82b4290000000000000000000000000000000000000000000000000000000000815260040160405180910390fd5b5f600b5f8681526020019081526020015f20905083815f015f6101000a81548173ffffffffffffffffffffffffffffffffffffffff021916908373ffffffffffffffffffffffffffffffffffffffff16021790555082816001015f6101000a81548173ffffffffffffffffffffffffffffffffffffffff021916908373ffffffffffffffffffffffffffffffffffffffff16021790555081816002018190555060028160050160146101000a81548160ff0219169083600281111561081f5761081e61532b565b5b021790555060018160040160016101000a81548160ff0219169083151502179055505f816004015f6101000a81548160ff0219169083151502179055508273ffffffffffffffffffffffffffffffffffffffff16857f2662de1021999d111db09723c07dc9b40847f2054ef3ef7912a31446531c4503846040516108a391906151ba565b60405180910390a35050505050565b600a5f9054906101000a900473ffffffffffffffffffffffffffffffffffffffff1681565b5f818051906020012090506001600c5f8381526020019081526020015f205f6101000a81548160ff0219169083151502179055505050565b60095f9054906101000a900473ffffffffffffffffffffffffffffffffffffffff1673ffffffffffffffffffffffffffffffffffffffff163373ffffffffffffffffffffffffffffffffffffffff1614610995576040517f82b4290000000000000000000000000000000000000000000000000000000000815260040160405180910390fd5b6002808111156109a8576109a761532b565b5b600b5f8481526020019081526020015f2060050160149054906101000a900460ff1660028111156109dc576109db61532b565b5b14610a13576040517f9ce8b72100000000000000000000000000000000000000000000000000000000815260040160405180910390fd5b80600b5f8481526020019081526020015f2060040160036101000a81548173ffffffffffffffffffffffffffffffffffffffff021916908373ffffffffffffffffffffffffffffffffffffffff1602179055508073ffffffffffffffffffffffffffffffffffffffff16827f5cd02397af3c9df12becbe41d4e442bd7cbc8c84f4dae3ceb4d985f93c68808a60405160405180910390a35050565b60025f9054906101000a900473ffffffffffffffffffffffffffffffffffffffff1681565b610adb614a6e565b5f600b5f8381526020019081526020015f2090503373ffffffffffffffffffffffffffffffffffffffff16815f015f9054906101000a900473ffffffffffffffffffffffffffffffffffffffff1673ffffffffffffffffffffffffffffffffffffffff1614610b76576040517f82b4290000000000000000000000000000000000000000000000000000000000815260040160405180910390fd5b60016002811115610b8a57610b8961532b565b5b8160050160149054906101000a900460ff166002811115610bae57610bad61532b565b5b14610be5576040517faa41c14700000000000000000000000000000000000000000000000000000000815260040160405180910390fd5b600b5f8381526020019081526020015f205f5f82015f6101000a81549073ffffffffffffffffffffffffffffffffffffffff0219169055600182015f6101000a81549073ffffffffffffffffffffffffffffffffffffffff0219169055600282015f9055600382015f9055600482015f6101000a81549060ff02191690556004820160016101000a81549060ff02191690556004820160026101000a81549060ff02191690556004820160036101000a81549073ffffffffffffffffffffffffffffffffffffffff0219169055600582015f6101000a81549073ffffffffffffffffffffffffffffffffffffffff02191690556005820160146101000a81549060ff021916905550503373ffffffffffffffffffffffffffffffffffffffff16827f8e25282255ab31897df2b0456bb993ac7f84d376861aefd84901d2d63a7428a260405160405180910390a35050565b610d3e6149e7565b610d46614aaf565b565b610d50614a6e565b610d58614b11565b5f600b5f8481526020019081526020015f209050600280811115610d7f57610d7e61532b565b5b8160050160149054906101000a900460ff166002811115610da357610da261532b565b5b14610dda576040517faa41c14700000000000000000000000000000000000000000000000000000000815260040160405180910390fd5b610de26124d5565b73ffffffffffffffffffffffffffffffffffffffff163373ffffffffffffffffffffffffffffffffffffffff1614158015610e6a575060095f9054906101000a900473ffffffffffffffffffffffffffffffffffffffff1673ffffffffffffffffffffffffffffffffffffffff163373ffffffffffffffffffffffffffffffffffffffff1614155b15610ea1576040517f82b4290000000000000000000000000000000000000000000000000000000000815260040160405180910390fd5b5f816001015f9054906101000a900473ffffffffffffffffffffffffffffffffffffffff1690505f825f015f9054906101000a900473ffffffffffffffffffffffffffffffffffffffff1690505f836002015490505f84600301549050600b5f8881526020019081526020015f205f5f82015f6101000a81549073ffffffffffffffffffffffffffffffffffffffff0219169055600182015f6101000a81549073ffffffffffffffffffffffffffffffffffffffff0219169055600282015f9055600382015f9055600482015f6101000a81549060ff02191690556004820160016101000a81549060ff02191690556004820160026101000a81549060ff02191690556004820160036101000a81549073ffffffffffffffffffffffffffffffffffffffff0219169055600582015f6101000a81549073ffffffffffffffffffffffffffffffffffffffff02191690556005820160146101000a81549060ff0219169055505060025f9054906101000a900473ffffffffffffffffffffffffffffffffffffffff1673ffffffffffffffffffffffffffffffffffffffff1663a9059cbb85846040518363ffffffff1660e01b81526004016110639291906154cf565b6020604051808303815f875af115801561107f573d5f5f3e3d5ffd5b505050506040513d601f19601f820116820180604052508101906110a3919061550a565b6110d9576040517f90b8ec1800000000000000000000000000000000000000000000000000000000815260040160405180910390fd5b5f8111156112b35785156111df5760025f9054906101000a900473ffffffffffffffffffffffffffffffffffffffff1673ffffffffffffffffffffffffffffffffffffffff1663a9059cbb60085f9054906101000a900473ffffffffffffffffffffffffffffffffffffffff16836040518363ffffffff1660e01b81526004016111649291906154cf565b6020604051808303815f875af1158015611180573d5f5f3e3d5ffd5b505050506040513d601f19601f820116820180604052508101906111a4919061550a565b6111da576040517f90b8ec1800000000000000000000000000000000000000000000000000000000815260040160405180910390fd5b6112b2565b60025f9054906101000a900473ffffffffffffffffffffffffffffffffffffffff1673ffffffffffffffffffffffffffffffffffffffff1663a9059cbb84836040518363ffffffff1660e01b815260040161123b9291906154cf565b6020604051808303815f875af1158015611257573d5f5f3e3d5ffd5b505050506040513d601f19601f8201168201806040525081019061127b919061550a565b6112b1576040517f90b8ec1800000000000000000000000000000000000000000000000000000000815260040160405180910390fd5b5b5b60015f9054906101000a900473ffffffffffffffffffffffffffffffffffffffff1673ffffffffffffffffffffffffffffffffffffffff166323b872dd30858a6040518463ffffffff1660e01b815260040161131193929190615535565b5f604051808303815f87803b158015611328575f5ffd5b505af115801561133a573d5f5f3e3d5ffd5b505050508273ffffffffffffffffffffffffffffffffffffffff168473ffffffffffffffffffffffffffffffffffffffff16887f469dcfeabdfb097901614c8b01cc632c073274fd19f39b9b64e2d72a2f0ab99b8560405161139c91906151ba565b60405180910390a450505050506113b1614b33565b5050565b6113bd614a6e565b6113c5614b11565b5f81036113fd576040517ebfc92100000000000000000000000000000000000000000000000000000000815260040160405180910390fd5b3373ffffffffffffffffffffffffffffffffffffffff1660015f9054906101000a900473ffffffffffffffffffffffffffffffffffffffff1673ffffffffffffffffffffffffffffffffffffffff16636352211e846040518263ffffffff1660e01b815260040161146e91906151ba565b602060405180830381865afa158015611489573d5f5f3e3d5ffd5b505050506040513d601f19601f820116820180604052508101906114ad919061557e565b73ffffffffffffffffffffffffffffffffffffffff16146114fa576040517f30cd747100000000000000000000000000000000000000000000000000000000815260040160405180910390fd5b5f600281111561150d5761150c61532b565b5b600b5f8481526020019081526020015f2060050160149054906101000a900460ff1660028111156115415761154061532b565b5b14611578576040517fa3d582ec00000000000000000000000000000000000000000000000000000000815260040160405180910390fd5b3073ffffffffffffffffffffffffffffffffffffffff1660015f9054906101000a900473ffffffffffffffffffffffffffffffffffffffff1673ffffffffffffffffffffffffffffffffffffffff1663081812fc846040518263ffffffff1660e01b81526004016115e991906151ba565b602060405180830381865afa158015611604573d5f5f3e3d5ffd5b505050506040513d601f19601f82011682018060405250810190611628919061557e565b73ffffffffffffffffffffffffffffffffffffffff1614806116e1575060015f9054906101000a900473ffffffffffffffffffffffffffffffffffffffff1673ffffffffffffffffffffffffffffffffffffffff1663e985e9c533306040518363ffffffff1660e01b81526004016116a19291906155a9565b602060405180830381865afa1580156116bc573d5f5f3e3d5ffd5b505050506040513d601f19601f820116820180604052508101906116e0919061550a565b5b611717576040517fa9248d2500000000000000000000000000000000000000000000000000000000815260040160405180910390fd5b5f60015f9054906101000a900473ffffffffffffffffffffffffffffffffffffffff1673ffffffffffffffffffffffffffffffffffffffff16637e7892ad846040518263ffffffff1660e01b815260040161177291906151ba565b5f60405180830381865afa15801561178c573d5f5f3e3d5ffd5b505050506040513d5f823e3d601f19601f820116820180604052508101906117b491906157d4565b90505f8160a0015160048111156117ce576117cd61532b565b5b14611805576040517f5537533e00000000000000000000000000000000000000000000000000000000815260040160405180910390fd5b5f60015f9054906101000a900473ffffffffffffffffffffffffffffffffffffffff1673ffffffffffffffffffffffffffffffffffffffff1663a7c4af80336040518263ffffffff1660e01b81526004016118609190614e81565b602060405180830381865afa15801561187b573d5f5f3e3d5ffd5b505050506040513d601f19601f8201168201806040525081019061189f919061550a565b8061193f575060015f9054906101000a900473ffffffffffffffffffffffffffffffffffffffff1673ffffffffffffffffffffffffffffffffffffffff166324b04245336040518263ffffffff1660e01b81526004016118ff9190614e81565b602060405180830381865afa15801561191a573d5f5f3e3d5ffd5b505050506040513d601f19601f8201168201806040525081019061193e919061550a565b5b90505f811590506040518061014001604052803373ffffffffffffffffffffffffffffffffffffffff1681526020015f73ffffffffffffffffffffffffffffffffffffffff1681526020018581526020015f8152602001821515815260200183151581526020015f151581526020015f73ffffffffffffffffffffffffffffffffffffffff1681526020015f73ffffffffffffffffffffffffffffffffffffffff168152602001600160028111156119fa576119f961532b565b5b815250600b5f8781526020019081526020015f205f820151815f015f6101000a81548173ffffffffffffffffffffffffffffffffffffffff021916908373ffffffffffffffffffffffffffffffffffffffff1602179055506020820151816001015f6101000a81548173ffffffffffffffffffffffffffffffffffffffff021916908373ffffffffffffffffffffffffffffffffffffffff16021790555060408201518160020155606082015181600301556080820151816004015f6101000a81548160ff02191690831515021790555060a08201518160040160016101000a81548160ff02191690831515021790555060c08201518160040160026101000a81548160ff02191690831515021790555060e08201518160040160036101000a81548173ffffffffffffffffffffffffffffffffffffffff021916908373ffffffffffffffffffffffffffffffffffffffff160217905550610100820151816005015f6101000a81548173ffffffffffffffffffffffffffffffffffffffff021916908373ffffffffffffffffffffffffffffffffffffffff1602179055506101208201518160050160146101000a81548160ff02191690836002811115611bc557611bc461532b565b5b02179055509050503373ffffffffffffffffffffffffffffffffffffffff16857ff5808f80cabd6e9e5fdb4c9b558ea920d9261a8b12265368808c7dc6fbdd960986604051611c1491906151ba565b60405180910390a3505050611c27614b33565b5050565b60085f9054906101000a900473ffffffffffffffffffffffffffffffffffffffff1681565b60045481565b611c5e614a6e565b611c66614b11565b5f600b5f8381526020019081526020015f209050600280811115611c8d57611c8c61532b565b5b8160050160149054906101000a900460ff166002811115611cb157611cb061532b565b5b14611ce8576040517f9ce8b72100000000000000000000000000000000000000000000000000000000815260040160405180910390fd5b3373ffffffffffffffffffffffffffffffffffffffff16815f015f9054906101000a900473ffffffffffffffffffffffffffffffffffffffff1673ffffffffffffffffffffffffffffffffffffffff1614611d6f576040517f82b4290000000000000000000000000000000000000000000000000000000000815260040160405180910390fd5b5f816001015f9054906101000a900473ffffffffffffffffffffffffffffffffffffffff1690505f825f015f9054906101000a900473ffffffffffffffffffffffffffffffffffffffff1690505f836002015490505f846003015490505f5f90505f866005015f9054906101000a900473ffffffffffffffffffffffffffffffffffffffff169050866004015f9054906101000a900460ff168015611e2257508660040160019054906101000a900460ff165b8015611e5a57505f73ffffffffffffffffffffffffffffffffffffffff168173ffffffffffffffffffffffffffffffffffffffff1614155b15611e7d5761271060065485611e709190615848565b611e7a91906158b6565b91505b600b5f8981526020019081526020015f205f5f82015f6101000a81549073ffffffffffffffffffffffffffffffffffffffff0219169055600182015f6101000a81549073ffffffffffffffffffffffffffffffffffffffff0219169055600282015f9055600382015f9055600482015f6101000a81549060ff02191690556004820160016101000a81549060ff02191690556004820160026101000a81549060ff02191690556004820160036101000a81549073ffffffffffffffffffffffffffffffffffffffff0219169055600582015f6101000a81549073ffffffffffffffffffffffffffffffffffffffff02191690556005820160146101000a81549060ff021916905550505f8211156121425760025f9054906101000a900473ffffffffffffffffffffffffffffffffffffffff1673ffffffffffffffffffffffffffffffffffffffff1663a9059cbb82846040518363ffffffff1660e01b8152600401611fea9291906154cf565b6020604051808303815f875af1158015612006573d5f5f3e3d5ffd5b505050506040513d601f19601f8201168201806040525081019061202a919061550a565b612060576040517f90b8ec1800000000000000000000000000000000000000000000000000000000815260040160405180910390fd5b60025f9054906101000a900473ffffffffffffffffffffffffffffffffffffffff1673ffffffffffffffffffffffffffffffffffffffff1663a9059cbb8784876120aa91906158e6565b6040518363ffffffff1660e01b81526004016120c79291906154cf565b6020604051808303815f875af11580156120e3573d5f5f3e3d5ffd5b505050506040513d601f19601f82011682018060405250810190612107919061550a565b61213d576040517f90b8ec1800000000000000000000000000000000000000000000000000000000815260040160405180910390fd5b612215565b60025f9054906101000a900473ffffffffffffffffffffffffffffffffffffffff1673ffffffffffffffffffffffffffffffffffffffff1663a9059cbb87866040518363ffffffff1660e01b815260040161219e9291906154cf565b6020604051808303815f875af11580156121ba573d5f5f3e3d5ffd5b505050506040513d601f19601f820116820180604052508101906121de919061550a565b612214576040517f90b8ec1800000000000000000000000000000000000000000000000000000000815260040160405180910390fd5b5b5f8311156122f05760025f9054906101000a900473ffffffffffffffffffffffffffffffffffffffff1673ffffffffffffffffffffffffffffffffffffffff1663a9059cbb86856040518363ffffffff1660e01b81526004016122799291906154cf565b6020604051808303815f875af1158015612295573d5f5f3e3d5ffd5b505050506040513d601f19601f820116820180604052508101906122b9919061550a565b6122ef576040517f90b8ec1800000000000000000000000000000000000000000000000000000000815260040160405180910390fd5b5b60015f9054906101000a900473ffffffffffffffffffffffffffffffffffffffff1673ffffffffffffffffffffffffffffffffffffffff166323b872dd30878b6040518463ffffffff1660e01b815260040161234e93929190615535565b5f604051808303815f87803b158015612365575f5ffd5b505af1158015612377573d5f5f3e3d5ffd5b505050508473ffffffffffffffffffffffffffffffffffffffff168673ffffffffffffffffffffffffffffffffffffffff16897f469dcfeabdfb097901614c8b01cc632c073274fd19f39b9b64e2d72a2f0ab99b876040516123d991906151ba565b60405180910390a4505050505050506123f0614b33565b50565b60015f9054906101000a900473ffffffffffffffffffffffffffffffffffffffff1681565b5f5f60149054906101000a900460ff16905090565b6124356149e7565b6103e884118061244657506103e883115b8061245257506101f482115b8061245e57506101f481115b15612494576040517ebfc92100000000000000000000000000000000000000000000000000000000815260040160405180910390fd5b8360048190555082600581905550816006819055508060078190555050505050565b6124be6149e7565b6124c75f614b4d565b565b60075481565b60065481565b5f5f5f9054906101000a900473ffffffffffffffffffffffffffffffffffffffff16905090565b6125046149e7565b61250c614c0e565b565b60055481565b61251c614a6e565b612524614b11565b5f600b5f8781526020019081526020015f2090506001600281111561254c5761254b61532b565b5b8160050160149054906101000a900460ff1660028111156125705761256f61532b565b5b146125a7576040517faa41c14700000000000000000000000000000000000000000000000000000000815260040160405180910390fd5b3373ffffffffffffffffffffffffffffffffffffffff16815f015f9054906101000a900473ffffffffffffffffffffffffffffffffffffffff1673ffffffffffffffffffffffffffffffffffffffff161461262e576040517f82b4290000000000000000000000000000000000000000000000000000000000815260040160405180910390fd5b3373ffffffffffffffffffffffffffffffffffffffff168573ffffffffffffffffffffffffffffffffffffffff1603612693576040517fcb01f96a00000000000000000000000000000000000000000000000000000000815260040160405180910390fd5b824211156126cd576040517f8baa579f00000000000000000000000000000000000000000000000000000000815260040160405180910390fd5b5f82805190602001209050600c5f8281526020019081526020015f205f9054906101000a900460ff161561272d576040517f8baa579f00000000000000000000000000000000000000000000000000000000815260040160405180910390fd5b5f60035f9054906101000a900473ffffffffffffffffffffffffffffffffffffffff1673ffffffffffffffffffffffffffffffffffffffff1663a590928d888a8989896040518663ffffffff1660e01b815260040161279095949392919061596b565b602060405180830381865afa1580156127ab573d5f5f3e3d5ffd5b505050506040513d601f19601f820116820180604052508101906127cf919061550a565b905080612808576040517f8baa579f00000000000000000000000000000000000000000000000000000000815260040160405180910390fd5b6001600c5f8481526020019081526020015f205f6101000a81548160ff02191690831515021790555086836001015f6101000a81548173ffffffffffffffffffffffffffffffffffffffff021916908373ffffffffffffffffffffffffffffffffffffffff16021790555085836002018190555060028360050160146101000a81548160ff021916908360028111156128a4576128a361532b565b5b0217905550826004015f9054906101000a900460ff16156129bc575f612710600754886128d19190615848565b6128db91906158b6565b905080846003018190555060025f9054906101000a900473ffffffffffffffffffffffffffffffffffffffff1673ffffffffffffffffffffffffffffffffffffffff166323b872dd3330846040518463ffffffff1660e01b815260040161294493929190615535565b6020604051808303815f875af1158015612960573d5f5f3e3d5ffd5b505050506040513d601f19601f82011682018060405250810190612984919061550a565b6129ba576040517f90b8ec1800000000000000000000000000000000000000000000000000000000815260040160405180910390fd5b505b60025f9054906101000a900473ffffffffffffffffffffffffffffffffffffffff1673ffffffffffffffffffffffffffffffffffffffff166323b872dd8830896040518463ffffffff1660e01b8152600401612a1a93929190615535565b6020604051808303815f875af1158015612a36573d5f5f3e3d5ffd5b505050506040513d601f19601f82011682018060405250810190612a5a919061550a565b612a90576040517f90b8ec1800000000000000000000000000000000000000000000000000000000815260040160405180910390fd5b60015f9054906101000a900473ffffffffffffffffffffffffffffffffffffffff1673ffffffffffffffffffffffffffffffffffffffff166323b872dd33308b6040518463ffffffff1660e01b8152600401612aee93929190615535565b5f604051808303815f87803b158015612b05575f5ffd5b505af1158015612b17573d5f5f3e3d5ffd5b505050508673ffffffffffffffffffffffffffffffffffffffff16887f2662de1021999d111db09723c07dc9b40847f2054ef3ef7912a31446531c450388604051612b6291906151ba565b60405180910390a3505050612b75614b33565b5050505050565b612b846149e7565b5f73ffffffffffffffffffffffffffffffffffffffff168173ffffffffffffffffffffffffffffffffffffffff1603612be9576040517fe6c4247b00000000000000000000000000000000000000000000000000000000815260040160405180910390fd5b8060095f6101000a81548173ffffffffffffffffffffffffffffffffffffffff021916908373ffffffffffffffffffffffffffffffffffffffff16021790555050565b60095f9054906101000a900473ffffffffffffffffffffffffffffffffffffffff1673ffffffffffffffffffffffffffffffffffffffff163373ffffffffffffffffffffffffffffffffffffffff1614612cb2576040517f7817702700000000000000000000000000000000000000000000000000000000815260040160405180910390fd5b5f600b5f8381526020019081526020015f209050600280811115612cd957612cd861532b565b5b8160050160149054906101000a900460ff166002811115612cfd57612cfc61532b565b5b14612d34576040517f9ce8b72100000000000000000000000000000000000000000000000000000000815260040160405180910390fd5b8060040160029054906101000a900460ff1615612d7d576040517f86dfc9e500000000000000000000000000000000000000000000000000000000815260040160405180910390fd5b60018160040160026101000a81548160ff021916908315150217905550817f0ed4077f3b9cc367bc77e8a2cff86f30075ed708a0ae9d5b0cd8d51a0a2f63c860405160405180910390a25050565b5f600b5f8481526020019081526020015f2090503373ffffffffffffffffffffffffffffffffffffffff16815f015f9054906101000a900473ffffffffffffffffffffffffffffffffffffffff1673ffffffffffffffffffffffffffffffffffffffff1614612e66576040517f82b4290000000000000000000000000000000000000000000000000000000000815260040160405180910390fd5b5f8203612e9e576040517ebfc92100000000000000000000000000000000000000000000000000000000815260040160405180910390fd5b60016002811115612eb257612eb161532b565b5b8160050160149054906101000a900460ff166002811115612ed657612ed561532b565b5b14612f0d576040517faa41c14700000000000000000000000000000000000000000000000000000000815260040160405180910390fd5b5f81600201549050828260020181905550837f36cfe22dfcf2d3781d9de6b307d67a5431b45492dad5e70e53dd4af34c25b8498285604051612f509291906159c3565b60405180910390a250505050565b612f66614a6e565b612f6e614b11565b5f600b5f8381526020019081526020015f20905060016002811115612f9657612f9561532b565b5b8160050160149054906101000a900460ff166002811115612fba57612fb961532b565b5b14612ff1576040517faa41c14700000000000000000000000000000000000000000000000000000000815260040160405180910390fd5b3373ffffffffffffffffffffffffffffffffffffffff16815f015f9054906101000a900473ffffffffffffffffffffffffffffffffffffffff1673ffffffffffffffffffffffffffffffffffffffff1603613078576040517fcb01f96a00000000000000000000000000000000000000000000000000000000815260040160405180910390fd5b806004015f9054906101000a900460ff16156131b1575f61271060075483600201546130a49190615848565b6130ae91906158b6565b905080826003018190555060025f9054906101000a900473ffffffffffffffffffffffffffffffffffffffff1673ffffffffffffffffffffffffffffffffffffffff166323b872dd835f015f9054906101000a900473ffffffffffffffffffffffffffffffffffffffff1630846040518463ffffffff1660e01b815260040161313993929190615535565b6020604051808303815f875af1158015613155573d5f5f3e3d5ffd5b505050506040513d601f19601f82011682018060405250810190613179919061550a565b6131af576040517f90b8ec1800000000000000000000000000000000000000000000000000000000815260040160405180910390fd5b505b60025f9054906101000a900473ffffffffffffffffffffffffffffffffffffffff1673ffffffffffffffffffffffffffffffffffffffff166323b872dd333084600201546040518463ffffffff1660e01b815260040161321393929190615535565b6020604051808303815f875af115801561322f573d5f5f3e3d5ffd5b505050506040513d601f19601f82011682018060405250810190613253919061550a565b613289576040517f90b8ec1800000000000000000000000000000000000000000000000000000000815260040160405180910390fd5b33816001015f6101000a81548173ffffffffffffffffffffffffffffffffffffffff021916908373ffffffffffffffffffffffffffffffffffffffff16021790555060028160050160146101000a81548160ff021916908360028111156132f3576132f261532b565b5b021790555060015f9054906101000a900473ffffffffffffffffffffffffffffffffffffffff1673ffffffffffffffffffffffffffffffffffffffff166323b872dd825f015f9054906101000a900473ffffffffffffffffffffffffffffffffffffffff1630856040518463ffffffff1660e01b815260040161337893929190615535565b5f604051808303815f87803b15801561338f575f5ffd5b505af11580156133a1573d5f5f3e3d5ffd5b505050503373ffffffffffffffffffffffffffffffffffffffff16827f2662de1021999d111db09723c07dc9b40847f2054ef3ef7912a31446531c450383600201546040516133f091906151ba565b60405180910390a350613401614b33565b50565b600b602052805f5260405f205f91509050805f015f9054906101000a900473ffffffffffffffffffffffffffffffffffffffff1690806001015f9054906101000a900473ffffffffffffffffffffffffffffffffffffffff1690806002015490806003015490806004015f9054906101000a900460ff16908060040160019054906101000a900460ff16908060040160029054906101000a900460ff16908060040160039054906101000a900473ffffffffffffffffffffffffffffffffffffffff1690806005015f9054906101000a900473ffffffffffffffffffffffffffffffffffffffff16908060050160149054906101000a900460ff1690508a565b61350c6149e7565b5f73ffffffffffffffffffffffffffffffffffffffff168173ffffffffffffffffffffffffffffffffffffffff1603613571576040517fe6c4247b00000000000000000000000000000000000000000000000000000000815260040160405180910390fd5b8060035f6101000a81548173ffffffffffffffffffffffffffffffffffffffff021916908373ffffffffffffffffffffffffffffffffffffffff16021790555050565b60095f9054906101000a900473ffffffffffffffffffffffffffffffffffffffff1681565b6135e16149e7565b5f73ffffffffffffffffffffffffffffffffffffffff168173ffffffffffffffffffffffffffffffffffffffff1603613646576040517fe6c4247b00000000000000000000000000000000000000000000000000000000815260040160405180910390fd5b8060085f6101000a81548173ffffffffffffffffffffffffffffffffffffffff021916908373ffffffffffffffffffffffffffffffffffffffff1602179055507f7a7b5a0a132f9e0581eb8527f66eae9ee89c2a3e79d4ac7e41a1f1f4d48a7fc2816040516136b59190614e81565b60405180910390a150565b6136c86149e7565b5f73ffffffffffffffffffffffffffffffffffffffff168173ffffffffffffffffffffffffffffffffffffffff1603613738575f6040517f1e4fbdf700000000000000000000000000000000000000000000000000000000815260040161372f9190614e81565b60405180910390fd5b61374181614b4d565b50565b61374c614a6e565b613754614b11565b5f600b5f8481526020019081526020015f20905060028081111561377b5761377a61532b565b5b8160050160149054906101000a900460ff16600281111561379f5761379e61532b565b5b146137d6576040517f9ce8b72100000000000000000000000000000000000000000000000000000000815260040160405180910390fd5b8060040160029054906101000a900460ff1661381e576040517fb9fca4ec00000000000000000000000000000000000000000000000000000000815260040160405180910390fd5b8060040160039054906101000a900473ffffffffffffffffffffffffffffffffffffffff1673ffffffffffffffffffffffffffffffffffffffff163373ffffffffffffffffffffffffffffffffffffffff16146138a7576040517fc9bc72d300000000000000000000000000000000000000000000000000000000815260040160405180910390fd5b5f61271060065483600201546138bd9190615848565b6138c791906158b6565b905082156139775760018260040160016101000a81548160ff02191690831515021790555033826005015f6101000a81548173ffffffffffffffffffffffffffffffffffffffff021916908373ffffffffffffffffffffffffffffffffffffffff1602179055503373ffffffffffffffffffffffffffffffffffffffff16847f213ed9c62fc3f1ceb155014ceb9460317e4f4f9736c49c00c0e80f3dbdcd567f60405160405180910390a3613f1a565b5f826001015f9054906101000a900473ffffffffffffffffffffffffffffffffffffffff1690505f835f015f9054906101000a900473ffffffffffffffffffffffffffffffffffffffff1690505f846002015490505f85600301549050600b5f8981526020019081526020015f205f5f82015f6101000a81549073ffffffffffffffffffffffffffffffffffffffff0219169055600182015f6101000a81549073ffffffffffffffffffffffffffffffffffffffff0219169055600282015f9055600382015f9055600482015f6101000a81549060ff02191690556004820160016101000a81549060ff02191690556004820160026101000a81549060ff02191690556004820160036101000a81549073ffffffffffffffffffffffffffffffffffffffff0219169055600582015f6101000a81549073ffffffffffffffffffffffffffffffffffffffff02191690556005820160146101000a81549060ff0219169055505060025f9054906101000a900473ffffffffffffffffffffffffffffffffffffffff1673ffffffffffffffffffffffffffffffffffffffff1663a9059cbb85846040518363ffffffff1660e01b8152600401613b399291906154cf565b6020604051808303815f875af1158015613b55573d5f5f3e3d5ffd5b505050506040513d601f19601f82011682018060405250810190613b79919061550a565b613baf576040517f90b8ec1800000000000000000000000000000000000000000000000000000000815260040160405180910390fd5b5f818611613bbd5785613bbf565b815b90505f81118015613c69575060025f9054906101000a900473ffffffffffffffffffffffffffffffffffffffff1673ffffffffffffffffffffffffffffffffffffffff1663a9059cbb33836040518363ffffffff1660e01b8152600401613c279291906154cf565b6020604051808303815f875af1158015613c43573d5f5f3e3d5ffd5b505050506040513d601f19601f82011682018060405250810190613c67919061550a565b155b15613ca0576040517f90b8ec1800000000000000000000000000000000000000000000000000000000815260040160405180910390fd5b5f818311613cae575f613cbb565b8183613cba91906158e6565b5b90505f81118015613d86575060025f9054906101000a900473ffffffffffffffffffffffffffffffffffffffff1673ffffffffffffffffffffffffffffffffffffffff1663a9059cbb60085f9054906101000a900473ffffffffffffffffffffffffffffffffffffffff16836040518363ffffffff1660e01b8152600401613d449291906154cf565b6020604051808303815f875af1158015613d60573d5f5f3e3d5ffd5b505050506040513d601f19601f82011682018060405250810190613d84919061550a565b155b15613dbd576040517f90b8ec1800000000000000000000000000000000000000000000000000000000815260040160405180910390fd5b60015f9054906101000a900473ffffffffffffffffffffffffffffffffffffffff1673ffffffffffffffffffffffffffffffffffffffff166323b872dd30878d6040518463ffffffff1660e01b8152600401613e1b93929190615535565b5f604051808303815f87803b158015613e32575f5ffd5b505af1158015613e44573d5f5f3e3d5ffd5b5050505060015f9054906101000a900473ffffffffffffffffffffffffffffffffffffffff1673ffffffffffffffffffffffffffffffffffffffff16631757520e8b6040518263ffffffff1660e01b8152600401613ea291906151ba565b5f604051808303815f87803b158015613eb9575f5ffd5b505af1158015613ecb573d5f5f3e3d5ffd5b505050503373ffffffffffffffffffffffffffffffffffffffff168a7f6220127034fd15fd91b9d561504747d36924c1bce9ca2127fdf6bca19e17069a60405160405180910390a35050505050505b5050613f24614b33565b5050565b600c602052805f5260405f205f915054906101000a900460ff1681565b613f4d614a6e565b613f55614b11565b5f600b5f8381526020019081526020015f209050600280811115613f7c57613f7b61532b565b5b8160050160149054906101000a900460ff166002811115613fa057613f9f61532b565b5b14613fd7576040517f9ce8b72100000000000000000000000000000000000000000000000000000000815260040160405180910390fd5b8060040160019054906101000a900460ff1661401f576040517f193413f600000000000000000000000000000000000000000000000000000000815260040160405180910390fd5b806001015f9054906101000a900473ffffffffffffffffffffffffffffffffffffffff1673ffffffffffffffffffffffffffffffffffffffff163373ffffffffffffffffffffffffffffffffffffffff16141580156140b157506140816124d5565b73ffffffffffffffffffffffffffffffffffffffff163373ffffffffffffffffffffffffffffffffffffffff1614155b801561410a575060095f9054906101000a900473ffffffffffffffffffffffffffffffffffffffff1673ffffffffffffffffffffffffffffffffffffffff163373ffffffffffffffffffffffffffffffffffffffff1614155b15614141576040517f82b4290000000000000000000000000000000000000000000000000000000000815260040160405180910390fd5b5f60015f9054906101000a900473ffffffffffffffffffffffffffffffffffffffff1673ffffffffffffffffffffffffffffffffffffffff16631a885919846040518263ffffffff1660e01b815260040161419c91906151ba565b602060405180830381865afa1580156141b7573d5f5f3e3d5ffd5b505050506040513d601f19601f820116820180604052508101906141db919061557e565b90505f826002015490505f836003015490505f845f015f9054906101000a900473ffffffffffffffffffffffffffffffffffffffff1690505f612710600454856142259190615848565b61422f91906158b6565b90505f5f73ffffffffffffffffffffffffffffffffffffffff168673ffffffffffffffffffffffffffffffffffffffff160361426b575f614287565b6127106005548661427c9190615848565b61428691906158b6565b5b90505f876004015f9054906101000a900460ff166142a5575f6142c1565b612710600654876142b69190615848565b6142c091906158b6565b5b90505f818385896142d291906158e6565b6142dc91906158e6565b6142e691906158e6565b90505f896001015f9054906101000a900473ffffffffffffffffffffffffffffffffffffffff1690505f8a6005015f9054906101000a900473ffffffffffffffffffffffffffffffffffffffff169050600b5f8d81526020019081526020015f205f5f82015f6101000a81549073ffffffffffffffffffffffffffffffffffffffff0219169055600182015f6101000a81549073ffffffffffffffffffffffffffffffffffffffff0219169055600282015f9055600382015f9055600482015f6101000a81549060ff02191690556004820160016101000a81549060ff02191690556004820160026101000a81549060ff02191690556004820160036101000a81549073ffffffffffffffffffffffffffffffffffffffff0219169055600582015f6101000a81549073ffffffffffffffffffffffffffffffffffffffff02191690556005820160146101000a81549060ff021916905550505f86118015614508575060025f9054906101000a900473ffffffffffffffffffffffffffffffffffffffff1673ffffffffffffffffffffffffffffffffffffffff1663a9059cbb60085f9054906101000a900473ffffffffffffffffffffffffffffffffffffffff16886040518363ffffffff1660e01b81526004016144c69291906154cf565b6020604051808303815f875af11580156144e2573d5f5f3e3d5ffd5b505050506040513d601f19601f82011682018060405250810190614506919061550a565b155b1561453f576040517f90b8ec1800000000000000000000000000000000000000000000000000000000815260040160405180910390fd5b5f851180156145e7575060025f9054906101000a900473ffffffffffffffffffffffffffffffffffffffff1673ffffffffffffffffffffffffffffffffffffffff1663a9059cbb8b876040518363ffffffff1660e01b81526004016145a59291906154cf565b6020604051808303815f875af11580156145c1573d5f5f3e3d5ffd5b505050506040513d601f19601f820116820180604052508101906145e5919061550a565b155b1561461e576040517f90b8ec1800000000000000000000000000000000000000000000000000000000815260040160405180910390fd5b5f841180156146c6575060025f9054906101000a900473ffffffffffffffffffffffffffffffffffffffff1673ffffffffffffffffffffffffffffffffffffffff1663a9059cbb82866040518363ffffffff1660e01b81526004016146849291906154cf565b6020604051808303815f875af11580156146a0573d5f5f3e3d5ffd5b505050506040513d601f19601f820116820180604052508101906146c4919061550a565b155b156146fd576040517f90b8ec1800000000000000000000000000000000000000000000000000000000815260040160405180910390fd5b5f831180156147a5575060025f9054906101000a900473ffffffffffffffffffffffffffffffffffffffff1673ffffffffffffffffffffffffffffffffffffffff1663a9059cbb88856040518363ffffffff1660e01b81526004016147639291906154cf565b6020604051808303815f875af115801561477f573d5f5f3e3d5ffd5b505050506040513d601f19601f820116820180604052508101906147a3919061550a565b155b156147dc576040517f90b8ec1800000000000000000000000000000000000000000000000000000000815260040160405180910390fd5b5f88118015614884575060025f9054906101000a900473ffffffffffffffffffffffffffffffffffffffff1673ffffffffffffffffffffffffffffffffffffffff1663a9059cbb888a6040518363ffffffff1660e01b81526004016148429291906154cf565b6020604051808303815f875af115801561485e573d5f5f3e3d5ffd5b505050506040513d601f19601f82011682018060405250810190614882919061550a565b155b156148bb576040517f90b8ec1800000000000000000000000000000000000000000000000000000000815260040160405180910390fd5b60015f9054906101000a900473ffffffffffffffffffffffffffffffffffffffff1673ffffffffffffffffffffffffffffffffffffffff166323b872dd30848f6040518463ffffffff1660e01b815260040161491993929190615535565b5f604051808303815f87803b158015614930575f5ffd5b505af1158015614942573d5f5f3e3d5ffd5b505050508673ffffffffffffffffffffffffffffffffffffffff163373ffffffffffffffffffffffffffffffffffffffff168d7f1b44502901e931a03e1ed724d3d7746167e9699a6831744cc24066c94ee414f08c6040516149a491906151ba565b60405180910390a450505050505050505050506149bf614b33565b50565b60035f9054906101000a900473ffffffffffffffffffffffffffffffffffffffff1681565b6149ef614c6f565b73ffffffffffffffffffffffffffffffffffffffff16614a0d6124d5565b73ffffffffffffffffffffffffffffffffffffffff1614614a6c57614a30614c6f565b6040517f118cdaa7000000000000000000000000000000000000000000000000000000008152600401614a639190614e81565b60405180910390fd5b565b614a76612418565b15614aad576040517fd93c066500000000000000000000000000000000000000000000000000000000815260040160405180910390fd5b565b614ab7614a6e565b60015f60146101000a81548160ff0219169083151502179055507f62e78cea01bee320cd4e420270b5ea74000d11b0c9f74754ebdbfc544b05a258614afa614c6f565b604051614b079190614e81565b60405180910390a1565b614b19614c76565b6002614b2b614b26614cb7565b614ce0565b5f0181905550565b6001614b45614b40614cb7565b614ce0565b5f0181905550565b5f5f5f9054906101000a900473ffffffffffffffffffffffffffffffffffffffff169050815f5f6101000a81548173ffffffffffffffffffffffffffffffffffffffff021916908373ffffffffffffffffffffffffffffffffffffffff1602179055508173ffffffffffffffffffffffffffffffffffffffff168173ffffffffffffffffffffffffffffffffffffffff167f8be0079c531659141344cd1fd0a4f28419497f9722a3daafe3b4186f6b6457e060405160405180910390a35050565b614c16614ce9565b5f5f60146101000a81548160ff0219169083151502179055507f5db9ee0a495bf2e6ff9c91a7834c1ba4fdd244a5e8aa4e537bd38aeae4b073aa614c58614c6f565b604051614c659190614e81565b60405180910390a1565b5f33905090565b614c7e614d29565b15614cb5576040517f3ee5aeb500000000000000000000000000000000000000000000000000000000815260040160405180910390fd5b565b5f7f9b779b17422d0df92223018b32b4d1fa46e071723d6817e2486d003becc55f005f1b905090565b5f819050919050565b614cf1612418565b614d27576040517f8dfc202b00000000000000000000000000000000000000000000000000000000815260040160405180910390fd5b565b5f6002614d3c614d37614cb7565b614ce0565b5f015414905090565b5f604051905090565b5f5ffd5b5f5ffd5b5f73ffffffffffffffffffffffffffffffffffffffff82169050919050565b5f614d7f82614d56565b9050919050565b614d8f81614d75565b8114614d99575f5ffd5b50565b5f81359050614daa81614d86565b92915050565b5f60208284031215614dc557614dc4614d4e565b5b5f614dd284828501614d9c565b91505092915050565b5f819050919050565b614ded81614ddb565b8114614df7575f5ffd5b50565b5f81359050614e0881614de4565b92915050565b5f5f5f5f60808587031215614e2657614e25614d4e565b5b5f614e3387828801614dfa565b9450506020614e4487828801614d9c565b9350506040614e5587828801614d9c565b9250506060614e6687828801614dfa565b91505092959194509250565b614e7b81614d75565b82525050565b5f602082019050614e945f830184614e72565b92915050565b5f5ffd5b5f5ffd5b5f601f19601f8301169050919050565b7f4e487b71000000000000000000000000000000000000000000000000000000005f52604160045260245ffd5b614ee882614ea2565b810181811067ffffffffffffffff82111715614f0757614f06614eb2565b5b80604052505050565b5f614f19614d45565b9050614f258282614edf565b919050565b5f67ffffffffffffffff821115614f4457614f43614eb2565b5b614f4d82614ea2565b9050602081019050919050565b828183375f83830152505050565b5f614f7a614f7584614f2a565b614f10565b905082815260208101848484011115614f9657614f95614e9e565b5b614fa1848285614f5a565b509392505050565b5f82601f830112614fbd57614fbc614e9a565b5b8135614fcd848260208601614f68565b91505092915050565b5f60208284031215614feb57614fea614d4e565b5b5f82013567ffffffffffffffff81111561500857615007614d52565b5b61501484828501614fa9565b91505092915050565b5f5f6040838503121561503357615032614d4e565b5b5f61504085828601614dfa565b925050602061505185828601614d9c565b9150509250929050565b5f819050919050565b5f61507e61507961507484614d56565b61505b565b614d56565b9050919050565b5f61508f82615064565b9050919050565b5f6150a082615085565b9050919050565b6150b081615096565b82525050565b5f6020820190506150c95f8301846150a7565b92915050565b5f602082840312156150e4576150e3614d4e565b5b5f6150f184828501614dfa565b91505092915050565b5f8115159050919050565b61510e816150fa565b8114615118575f5ffd5b50565b5f8135905061512981615105565b92915050565b5f5f6040838503121561514557615144614d4e565b5b5f61515285828601614dfa565b92505060206151638582860161511b565b9150509250929050565b5f5f6040838503121561518357615182614d4e565b5b5f61519085828601614dfa565b92505060206151a185828601614dfa565b9150509250929050565b6151b481614ddb565b82525050565b5f6020820190506151cd5f8301846151ab565b92915050565b5f6151dd82615085565b9050919050565b6151ed816151d3565b82525050565b5f6020820190506152065f8301846151e4565b92915050565b615215816150fa565b82525050565b5f60208201905061522e5f83018461520c565b92915050565b5f5f5f5f6080858703121561524c5761524b614d4e565b5b5f61525987828801614dfa565b945050602061526a87828801614dfa565b935050604061527b87828801614dfa565b925050606061528c87828801614dfa565b91505092959194509250565b5f5f5f5f5f60a086880312156152b1576152b0614d4e565b5b5f6152be88828901614dfa565b95505060206152cf88828901614d9c565b94505060406152e088828901614dfa565b93505060606152f188828901614dfa565b925050608086013567ffffffffffffffff81111561531257615311614d52565b5b61531e88828901614fa9565b9150509295509295909350565b7f4e487b71000000000000000000000000000000000000000000000000000000005f52602160045260245ffd5b600381106153695761536861532b565b5b50565b5f81905061537982615358565b919050565b5f6153888261536c565b9050919050565b6153988161537e565b82525050565b5f610140820190506153b25f83018d614e72565b6153bf602083018c614e72565b6153cc604083018b6151ab565b6153d9606083018a6151ab565b6153e6608083018961520c565b6153f360a083018861520c565b61540060c083018761520c565b61540d60e0830186614e72565b61541b610100830185614e72565b61542961012083018461538f565b9b9a5050505050505050505050565b5f819050919050565b61544a81615438565b8114615454575f5ffd5b50565b5f8135905061546581615441565b92915050565b5f602082840312156154805761547f614d4e565b5b5f61548d84828501615457565b91505092915050565b5f6154a082615085565b9050919050565b6154b081615496565b82525050565b5f6020820190506154c95f8301846154a7565b92915050565b5f6040820190506154e25f830185614e72565b6154ef60208301846151ab565b9392505050565b5f8151905061550481615105565b92915050565b5f6020828403121561551f5761551e614d4e565b5b5f61552c848285016154f6565b91505092915050565b5f6060820190506155485f830186614e72565b6155556020830185614e72565b61556260408301846151ab565b949350505050565b5f8151905061557881614d86565b92915050565b5f6020828403121561559357615592614d4e565b5b5f6155a08482850161556a565b91505092915050565b5f6040820190506155bc5f830185614e72565b6155c96020830184614e72565b9392505050565b5f5ffd5b5f5ffd5b5f67ffffffffffffffff8211156155f2576155f1614eb2565b5b6155fb82614ea2565b9050602081019050919050565b8281835e5f83830152505050565b5f615628615623846155d8565b614f10565b90508281526020810184848401111561564457615643614e9e565b5b61564f848285615608565b509392505050565b5f82601f83011261566b5761566a614e9a565b5b815161567b848260208601615616565b91505092915050565b5f8151905061569281614de4565b92915050565b5f815190506156a681615441565b92915050565b600581106156b8575f5ffd5b50565b5f815190506156c9816156ac565b92915050565b5f60e082840312156156e4576156e36155d0565b5b6156ee60e0614f10565b90505f82015167ffffffffffffffff81111561570d5761570c6155d4565b5b61571984828501615657565b5f83015250602082015167ffffffffffffffff81111561573c5761573b6155d4565b5b61574884828501615657565b602083015250604082015167ffffffffffffffff81111561576c5761576b6155d4565b5b61577884828501615657565b604083015250606061578c84828501615684565b60608301525060806157a084828501615698565b60808301525060a06157b4848285016156bb565b60a08301525060c06157c88482850161556a565b60c08301525092915050565b5f602082840312156157e9576157e8614d4e565b5b5f82015167ffffffffffffffff81111561580657615805614d52565b5b615812848285016156cf565b91505092915050565b7f4e487b71000000000000000000000000000000000000000000000000000000005f52601160045260245ffd5b5f61585282614ddb565b915061585d83614ddb565b925082820261586b81614ddb565b915082820484148315176158825761588161581b565b5b5092915050565b7f4e487b71000000000000000000000000000000000000000000000000000000005f52601260045260245ffd5b5f6158c082614ddb565b91506158cb83614ddb565b9250826158db576158da615889565b5b828204905092915050565b5f6158f082614ddb565b91506158fb83614ddb565b92508282039050818111156159135761591261581b565b5b92915050565b5f81519050919050565b5f82825260208201905092915050565b5f61593d82615919565b6159478185615923565b9350615957818560208601615608565b61596081614ea2565b840191505092915050565b5f60a08201905061597e5f830188614e72565b61598b60208301876151ab565b61599860408301866151ab565b6159a560608301856151ab565b81810360808301526159b78184615933565b90509695505050505050565b5f6040820190506159d65f8301856151ab565b6159e360208301846151ab565b939250505056fea26469706673582212204d744a99a7335332dd1960acbe14d75e77bec60be5b0df26ce0523158dc728c064736f6c634300081c0033",
  "linkReferences": {},
  "deployedLinkReferences": {}
}