{
  "_format": "hh-sol-artifact-1",
  "contractName": "WatchNFT",
  "sourceName": "contracts/WatchNFT.sol",
  "abi": [
    {
      "inputs": [],
      "stateMutability": "nonpayable",
      "type": "constructor"
    },
    {
      "inputs": [
        {
          "internalType": "address",
          "name": "sender",
          "type": "address"
        },
        {
          "internalType": "uint256",
          "name": "tokenId",
          "type": "uint256"
        },
        {
          "internalType": "address",
          "name": "owner",
          "type": "address"
        }
      ],
      "name": "ERC721IncorrectOwner",
      "type": "error"
    },
    {
      "inputs": [
        {
          "internalType": "address",
          "name": "operator",
          "type": "address"
        },
        {
          "internalType": "uint256",
          "name": "tokenId",
          "type": "uint256"
        }
      ],
      "name": "ERC721InsufficientApproval",
      "type": "error"
    },
    {
      "inputs": [
        {
          "internalType": "address",
          "name": "approver",
          "type": "address"
        }
      ],
      "name": "ERC721InvalidApprover",
      "type": "error"
    },
    {
      "inputs": [
        {
          "internalType": "address",
          "name": "operator",
          "type": "address"
        }
      ],
      "name": "ERC721InvalidOperator",
      "type": "error"
    },
    {
      "inputs": [
        {
          "internalType": "address",
          "name": "owner",
          "type": "address"
        }
      ],
      "name": "ERC721InvalidOwner",
      "type": "error"
    },
    {
      "inputs": [
        {
          "internalType": "address",
          "name": "receiver",
          "type": "address"
        }
      ],
      "name": "ERC721InvalidReceiver",
      "type": "error"
    },
    {
      "inputs": [
        {
          "internalType": "address",
          "name": "sender",
          "type": "address"
        }
      ],
      "name": "ERC721InvalidSender",
      "type": "error"
    },
    {
      "inputs": [
        {
          "internalType": "uint256",
          "name": "tokenId",
          "type": "uint256"
        }
      ],
      "name": "ERC721NonexistentToken",
      "type": "error"
    },
    {
      "inputs": [],
      "name": "EnforcedPause",
      "type": "error"
    },
    {
      "inputs": [],
      "name": "ExpectedPause",
      "type": "error"
    },
    {
      "inputs": [],
      "name": "InvalidState",
      "type": "error"
    },
    {
      "inputs": [],
      "name": "NFCAlreadyRegistered",
      "type": "error"
    },
    {
      "inputs": [],
      "name": "NFCEmpty",
      "type": "error"
    },
    {
      "inputs": [],
      "name": "NFCNotRegistered",
      "type": "error"
    },
    {
      "inputs": [],
      "name": "NotAltered",
      "type": "error"
    },
    {
      "inputs": [],
      "name": "NotAuthorized",
      "type": "error"
    },
    {
      "inputs": [],
      "name": "NotAuthorizedManufacturer",
      "type": "error"
    },
    {
      "inputs": [],
      "name": "NotAuthorizedWatchmaker",
      "type": "error"
    },
    {
      "inputs": [],
      "name": "NotOwner",
      "type": "error"
    },
    {
      "inputs": [
        {
          "internalType": "address",
          "name": "owner",
          "type": "address"
        }
      ],
      "name": "OwnableInvalidOwner",
      "type": "error"
    },
    {
      "inputs": [
        {
          "internalType": "address",
          "name": "account",
          "type": "address"
        }
      ],
      "name": "OwnableUnauthorizedAccount",
      "type": "error"
    },
    {
      "inputs": [],
      "name": "SerialNumberNotRegistered",
      "type": "error"
    },
    {
      "inputs": [],
      "name": "TokenDoesNotExist",
      "type": "error"
    },
    {
      "inputs": [],
      "name": "TokenLockedAdmin",
      "type": "error"
    },
    {
      "inputs": [],
      "name": "TransferBlocked",
      "type": "error"
    },
    {
      "inputs": [],
      "name": "WatchAltered",
      "type": "error"
    },
    {
      "inputs": [],
      "name": "WatchDestroyed",
      "type": "error"
    },
    {
      "anonymous": false,
      "inputs": [
        {
          "indexed": true,
          "internalType": "address",
          "name": "owner",
          "type": "address"
        },
        {
          "indexed": true,
          "internalType": "address",
          "name": "approved",
          "type": "address"
        },
        {
          "indexed": true,
          "internalType": "uint256",
          "name": "tokenId",
          "type": "uint256"
        }
      ],
      "name": "Approval",
      "type": "event"
    },
    {
      "anonymous": false,
      "inputs": [
        {
          "indexed": true,
          "internalType": "address",
          "name": "owner",
          "type": "address"
        },
        {
          "indexed": true,
          "internalType": "address",
          "name": "operator",
          "type": "address"
        },
        {
          "indexed": false,
          "internalType": "bool",
          "name": "approved",
          "type": "bool"
        }
      ],
      "name": "ApprovalForAll",
      "type": "event"
    },
    {
      "anonymous": false,
      "inputs": [
        {
          "indexed": false,
          "internalType": "uint256",
          "name": "_fromTokenId",
          "type": "uint256"
        },
        {
          "indexed": false,
          "internalType": "uint256",
          "name": "_toTokenId",
          "type": "uint256"
        }
      ],
      "name": "BatchMetadataUpdate",
      "type": "event"
    },
    {
      "anonymous": false,
      "inputs": [
        {
          "indexed": false,
          "internalType": "uint256",
          "name": "_tokenId",
          "type": "uint256"
        }
      ],
      "name": "MetadataUpdate",
      "type": "event"
    },
    {
      "anonymous": false,
      "inputs": [
        {
          "indexed": true,
          "internalType": "address",
          "name": "previousOwner",
          "type": "address"
        },
        {
          "indexed": true,
          "internalType": "address",
          "name": "newOwner",
          "type": "address"
        }
      ],
      "name": "OwnershipTransferred",
      "type": "event"
    },
    {
      "anonymous": false,
      "inputs": [
        {
          "indexed": false,
          "internalType": "address",
          "name": "account",
          "type": "address"
        }
      ],
      "name": "Paused",
      "type": "event"
    },
    {
      "anonymous": false,
      "inputs": [
        {
          "indexed": true,
          "internalType": "uint256",
          "name": "tokenId",
          "type": "uint256"
        },
        {
          "indexed": true,
          "internalType": "address",
          "name": "watchmaker",
          "type": "address"
        }
      ],
      "name": "RevisionAdded",
      "type": "event"
    },
    {
      "anonymous": false,
      "inputs": [
        {
          "indexed": true,
          "internalType": "uint256",
          "name": "tokenId",
          "type": "uint256"
        },
        {
          "indexed": false,
          "internalType": "enum WatchNFT.WatchState",
          "name": "newState",
          "type": "uint8"
        }
      ],
      "name": "SecurityStateChanged",
      "type": "event"
    },
    {
      "anonymous": false,
      "inputs": [
        {
          "indexed": true,
          "internalType": "uint256",
          "name": "tokenId",
          "type": "uint256"
        },
        {
          "indexed": false,
          "internalType": "bool",
          "name": "status",
          "type": "bool"
        }
      ],
      "name": "TokenLocked",
      "type": "event"
    },
    {
      "anonymous": false,
      "inputs": [
        {
          "indexed": true,
          "internalType": "address",
          "name": "from",
          "type": "address"
        },
        {
          "indexed": true,
          "internalType": "address",
          "name": "to",
          "type": "address"
        },
        {
          "indexed": true,
          "internalType": "uint256",
          "name": "tokenId",
          "type": "uint256"
        }
      ],
      "name": "Transfer",
      "type": "event"
    },
    {
      "anonymous": false,
      "inputs": [
        {
          "indexed": false,
          "internalType": "address",
          "name": "account",
          "type": "address"
        }
      ],
      "name": "Unpaused",
      "type": "event"
    },
    {
      "anonymous": false,
      "inputs": [
        {
          "indexed": true,
          "internalType": "uint256",
          "name": "tokenId",
          "type": "uint256"
        },
        {
          "indexed": true,
          "internalType": "address",
          "name": "watchmaker",
          "type": "address"
        },
        {
          "indexed": false,
          "internalType": "uint256",
          "name": "date",
          "type": "uint256"
        },
        {
          "indexed": false,
          "internalType": "string",
          "name": "comment",
          "type": "string"
        }
      ],
      "name": "WatchAuthenticityVerified",
      "type": "event"
    },
    {
      "anonymous": false,
      "inputs": [
        {
          "indexed": true,
          "internalType": "uint256",
          "name": "tokenId",
          "type": "uint256"
        },
        {
          "indexed": false,
          "internalType": "bytes32",
          "name": "hashUID",
          "type": "bytes32"
        },
        {
          "indexed": true,
          "internalType": "address",
          "name": "owner",
          "type": "address"
        }
      ],
      "name": "WatchMinted",
      "type": "event"
    },
    {
      "inputs": [
        {
          "internalType": "uint256",
          "name": "_tokenId",
          "type": "uint256"
        },
        {
          "internalType": "string",
          "name": "_description",
          "type": "string"
        }
      ],
      "name": "addRevision",
      "outputs": [],
      "stateMutability": "nonpayable",
      "type": "function"
    },
    {
      "inputs": [
        {
          "internalType": "uint256",
          "name": "_tokenId",
          "type": "uint256"
        }
      ],
      "name": "alteredWatch",
      "outputs": [],
      "stateMutability": "nonpayable",
      "type": "function"
    },
    {
      "inputs": [
        {
          "internalType": "address",
          "name": "to",
          "type": "address"
        },
        {
          "internalType": "uint256",
          "name": "tokenId",
          "type": "uint256"
        }
      ],
      "name": "approve",
      "outputs": [],
      "stateMutability": "nonpayable",
      "type": "function"
    },
    {
      "inputs": [
        {
          "internalType": "address",
          "name": "",
          "type": "address"
        }
      ],
      "name": "authorizedDealers",
      "outputs": [
        {
          "internalType": "bool",
          "name": "",
          "type": "bool"
        }
      ],
      "stateMutability": "view",
      "type": "function"
    },
    {
      "inputs": [
        {
          "internalType": "address",
          "name": "",
          "type": "address"
        }
      ],
      "name": "authorizedManufacturers",
      "outputs": [
        {
          "internalType": "bool",
          "name": "",
          "type": "bool"
        }
      ],
      "stateMutability": "view",
      "type": "function"
    },
    {
      "inputs": [
        {
          "internalType": "address",
          "name": "",
          "type": "address"
        }
      ],
      "name": "authorizedWatchmakers",
      "outputs": [
        {
          "internalType": "bool",
          "name": "",
          "type": "bool"
        }
      ],
      "stateMutability": "view",
      "type": "function"
    },
    {
      "inputs": [
        {
          "internalType": "address",
          "name": "owner",
          "type": "address"
        }
      ],
      "name": "balanceOf",
      "outputs": [
        {
          "internalType": "uint256",
          "name": "",
          "type": "uint256"
        }
      ],
      "stateMutability": "view",
      "type": "function"
    },
    {
      "inputs": [
        {
          "internalType": "uint256",
          "name": "tokenId",
          "type": "uint256"
        }
      ],
      "name": "burnWatch",
      "outputs": [],
      "stateMutability": "nonpayable",
      "type": "function"
    },
    {
      "inputs": [
        {
          "internalType": "uint256",
          "name": "_tokenId",
          "type": "uint256"
        },
        {
          "internalType": "enum WatchNFT.WatchState",
          "name": "_newState",
          "type": "uint8"
        }
      ],
      "name": "changeSecurityState",
      "outputs": [],
      "stateMutability": "nonpayable",
      "type": "function"
    },
    {
      "inputs": [
        {
          "internalType": "uint256",
          "name": "tokenId",
          "type": "uint256"
        }
      ],
      "name": "getApproved",
      "outputs": [
        {
          "internalType": "address",
          "name": "",
          "type": "address"
        }
      ],
      "stateMutability": "view",
      "type": "function"
    },
    {
      "inputs": [
        {
          "internalType": "uint256",
          "name": "_tokenId",
          "type": "uint256"
        }
      ],
      "name": "getRevisionHistory",
      "outputs": [
        {
          "components": [
            {
              "internalType": "uint256",
              "name": "date",
              "type": "uint256"
            },
            {
              "internalType": "address",
              "name": "watchmaker",
              "type": "address"
            },
            {
              "internalType": "string",
              "name": "description",
              "type": "string"
            }
          ],
          "internalType": "struct WatchNFT.Revision[]",
          "name": "",
          "type": "tuple[]"
        }
      ],
      "stateMutability": "view",
      "type": "function"
    },
    {
      "inputs": [
        {
          "internalType": "bytes32",
          "name": "_hashUID",
          "type": "bytes32"
        }
      ],
      "name": "getTokenByNFC",
      "outputs": [
        {
          "internalType": "uint256",
          "name": "",
          "type": "uint256"
        }
      ],
      "stateMutability": "view",
      "type": "function"
    },
    {
      "inputs": [
        {
          "internalType": "uint256",
          "name": "_tokenId",
          "type": "uint256"
        }
      ],
      "name": "getVerificationHistory",
      "outputs": [
        {
          "components": [
            {
              "internalType": "address",
              "name": "watchmaker",
              "type": "address"
            },
            {
              "internalType": "uint256",
              "name": "date",
              "type": "uint256"
            },
            {
              "internalType": "string",
              "name": "comment",
              "type": "string"
            }
          ],
          "internalType": "struct WatchNFT.Verification[]",
          "name": "",
          "type": "tuple[]"
        }
      ],
      "stateMutability": "view",
      "type": "function"
    },
    {
      "inputs": [
        {
          "internalType": "string",
          "name": "_serialNumber",
          "type": "string"
        }
      ],
      "name": "getWatchBySerialNumber",
      "outputs": [
        {
          "components": [
            {
              "internalType": "string",
              "name": "brand",
              "type": "string"
            },
            {
              "internalType": "string",
              "name": "model",
              "type": "string"
            },
            {
              "internalType": "string",
              "name": "serialNumber",
              "type": "string"
            },
            {
              "internalType": "uint256",
              "name": "manufacturingYear",
              "type": "uint256"
            },
            {
              "internalType": "bytes32",
              "name": "hashUID",
              "type": "bytes32"
            },
            {
              "internalType": "enum WatchNFT.WatchState",
              "name": "state",
              "type": "uint8"
            },
            {
              "internalType": "address",
              "name": "manufacturer",
              "type": "address"
            }
          ],
          "internalType": "struct WatchNFT.Watch",
          "name": "",
          "type": "tuple"
        }
      ],
      "stateMutability": "view",
      "type": "function"
    },
    {
      "inputs": [
        {
          "internalType": "uint256",
          "name": "_tokenId",
          "type": "uint256"
        }
      ],
      "name": "getWatchData",
      "outputs": [
        {
          "components": [
            {
              "internalType": "string",
              "name": "brand",
              "type": "string"
            },
            {
              "internalType": "string",
              "name": "model",
              "type": "string"
            },
            {
              "internalType": "string",
              "name": "serialNumber",
              "type": "string"
            },
            {
              "internalType": "uint256",
              "name": "manufacturingYear",
              "type": "uint256"
            },
            {
              "internalType": "bytes32",
              "name": "hashUID",
              "type": "bytes32"
            },
            {
              "internalType": "enum WatchNFT.WatchState",
              "name": "state",
              "type": "uint8"
            },
            {
              "internalType": "address",
              "name": "manufacturer",
              "type": "address"
            }
          ],
          "internalType": "struct WatchNFT.Watch",
          "name": "",
          "type": "tuple"
        }
      ],
      "stateMutability": "view",
      "type": "function"
    },
    {
      "inputs": [
        {
          "internalType": "uint256",
          "name": "_tokenId",
          "type": "uint256"
        }
      ],
      "name": "getWatchManufacturer",
      "outputs": [
        {
          "internalType": "address",
          "name": "",
          "type": "address"
        }
      ],
      "stateMutability": "view",
      "type": "function"
    },
    {
      "inputs": [
        {
          "internalType": "address",
          "name": "owner",
          "type": "address"
        },
        {
          "internalType": "address",
          "name": "operator",
          "type": "address"
        }
      ],
      "name": "isApprovedForAll",
      "outputs": [
        {
          "internalType": "bool",
          "name": "",
          "type": "bool"
        }
      ],
      "stateMutability": "view",
      "type": "function"
    },
    {
      "inputs": [
        {
          "internalType": "uint256",
          "name": "",
          "type": "uint256"
        }
      ],
      "name": "isLocked",
      "outputs": [
        {
          "internalType": "bool",
          "name": "",
          "type": "bool"
        }
      ],
      "stateMutability": "view",
      "type": "function"
    },
    {
      "inputs": [
        {
          "internalType": "address",
          "name": "_dealer",
          "type": "address"
        },
        {
          "internalType": "bool",
          "name": "_status",
          "type": "bool"
        }
      ],
      "name": "manageDealer",
      "outputs": [],
      "stateMutability": "nonpayable",
      "type": "function"
    },
    {
      "inputs": [
        {
          "internalType": "address",
          "name": "_manufacturer",
          "type": "address"
        },
        {
          "internalType": "bool",
          "name": "_status",
          "type": "bool"
        }
      ],
      "name": "manageManufacturer",
      "outputs": [],
      "stateMutability": "nonpayable",
      "type": "function"
    },
    {
      "inputs": [
        {
          "internalType": "address",
          "name": "_watchmaker",
          "type": "address"
        },
        {
          "internalType": "bool",
          "name": "_status",
          "type": "bool"
        }
      ],
      "name": "manageWatchmaker",
      "outputs": [],
      "stateMutability": "nonpayable",
      "type": "function"
    },
    {
      "inputs": [],
      "name": "marketplaceAddress",
      "outputs": [
        {
          "internalType": "address",
          "name": "",
          "type": "address"
        }
      ],
      "stateMutability": "view",
      "type": "function"
    },
    {
      "inputs": [
        {
          "internalType": "string",
          "name": "_brand",
          "type": "string"
        },
        {
          "internalType": "string",
          "name": "_model",
          "type": "string"
        },
        {
          "internalType": "string",
          "name": "_serialNumber",
          "type": "string"
        },
        {
          "internalType": "uint256",
          "name": "_manufacturingYear",
          "type": "uint256"
        },
        {
          "internalType": "bytes32",
          "name": "_hashUID",
          "type": "bytes32"
        },
        {
          "internalType": "string",
          "name": "_tokenURI",
          "type": "string"
        },
        {
          "internalType": "address",
          "name": "_recipient",
          "type": "address"
        }
      ],
      "name": "mintWatch",
      "outputs": [
        {
          "internalType": "uint256",
          "name": "",
          "type": "uint256"
        }
      ],
      "stateMutability": "nonpayable",
      "type": "function"
    },
    {
      "inputs": [],
      "name": "name",
      "outputs": [
        {
          "internalType": "string",
          "name": "",
          "type": "string"
        }
      ],
      "stateMutability": "view",
      "type": "function"
    },
    {
      "inputs": [],
      "name": "nextTokenId",
      "outputs": [
        {
          "internalType": "uint256",
          "name": "",
          "type": "uint256"
        }
      ],
      "stateMutability": "view",
      "type": "function"
    },
    {
      "inputs": [
        {
          "internalType": "bytes32",
          "name": "",
          "type": "bytes32"
        }
      ],
      "name": "nfcToTokenId",
      "outputs": [
        {
          "internalType": "uint256",
          "name": "",
          "type": "uint256"
        }
      ],
      "stateMutability": "view",
      "type": "function"
    },
    {
      "inputs": [],
      "name": "owner",
      "outputs": [
        {
          "internalType": "address",
          "name": "",
          "type": "address"
        }
      ],
      "stateMutability": "view",
      "type": "function"
    },
    {
      "inputs": [
        {
          "internalType": "uint256",
          "name": "tokenId",
          "type": "uint256"
        }
      ],
      "name": "ownerOf",
      "outputs": [
        {
          "internalType": "address",
          "name": "",
          "type": "address"
        }
      ],
      "stateMutability": "view",
      "type": "function"
    },
    {
      "inputs": [],
      "name": "pauseContract",
      "outputs": [],
      "stateMutability": "nonpayable",
      "type": "function"
    },
    {
      "inputs": [],
      "name": "paused",
      "outputs": [
        {
          "internalType": "bool",
          "name": "",
          "type": "bool"
        }
      ],
      "stateMutability": "view",
      "type": "function"
    },
    {
      "inputs": [],
      "name": "renounceOwnership",
      "outputs": [],
      "stateMutability": "nonpayable",
      "type": "function"
    },
    {
      "inputs": [
        {
          "internalType": "uint256",
          "name": "_tokenId",
          "type": "uint256"
        },
        {
          "internalType": "string",
          "name": "_repairDescription",
          "type": "string"
        }
      ],
      "name": "restoreAuthenticity",
      "outputs": [],
      "stateMutability": "nonpayable",
      "type": "function"
    },
    {
      "inputs": [],
      "name": "resumeContract",
      "outputs": [],
      "stateMutability": "nonpayable",
      "type": "function"
    },
    {
      "inputs": [
        {
          "internalType": "address",
          "name": "from",
          "type": "address"
        },
        {
          "internalType": "address",
          "name": "to",
          "type": "address"
        },
        {
          "internalType": "uint256",
          "name": "tokenId",
          "type": "uint256"
        }
      ],
      "name": "safeTransferFrom",
      "outputs": [],
      "stateMutability": "nonpayable",
      "type": "function"
    },
    {
      "inputs": [
        {
          "internalType": "address",
          "name": "from",
          "type": "address"
        },
        {
          "internalType": "address",
          "name": "to",
          "type": "address"
        },
        {
          "internalType": "uint256",
          "name": "tokenId",
          "type": "uint256"
        },
        {
          "internalType": "bytes",
          "name": "data",
          "type": "bytes"
        }
      ],
      "name": "safeTransferFrom",
      "outputs": [],
      "stateMutability": "nonpayable",
      "type": "function"
    },
    {
      "inputs": [
        {
          "internalType": "string",
          "name": "",
          "type": "string"
        }
      ],
      "name": "serialNumberToTokenId",
      "outputs": [
        {
          "internalType": "uint256",
          "name": "",
          "type": "uint256"
        }
      ],
      "stateMutability": "view",
      "type": "function"
    },
    {
      "inputs": [
        {
          "internalType": "address",
          "name": "operator",
          "type": "address"
        },
        {
          "internalType": "bool",
          "name": "approved",
          "type": "bool"
        }
      ],
      "name": "setApprovalForAll",
      "outputs": [],
      "stateMutability": "nonpayable",
      "type": "function"
    },
    {
      "inputs": [
        {
          "internalType": "uint256",
          "name": "tokenId",
          "type": "uint256"
        },
        {
          "internalType": "bool",
          "name": "status",
          "type": "bool"
        }
      ],
      "name": "setLock",
      "outputs": [],
      "stateMutability": "nonpayable",
      "type": "function"
    },
    {
      "inputs": [
        {
          "internalType": "address",
          "name": "_marketplaceAddress",
          "type": "address"
        }
      ],
      "name": "setMarketplaceAddress",
      "outputs": [],
      "stateMutability": "nonpayable",
      "type": "function"
    },
    {
      "inputs": [
        {
          "internalType": "uint256",
          "name": "_tokenId",
          "type": "uint256"
        },
        {
          "internalType": "bytes32",
          "name": "_hash",
          "type": "bytes32"
        }
      ],
      "name": "setWatchHash",
      "outputs": [],
      "stateMutability": "nonpayable",
      "type": "function"
    },
    {
      "inputs": [
        {
          "internalType": "bytes4",
          "name": "interfaceId",
          "type": "bytes4"
        }
      ],
      "name": "supportsInterface",
      "outputs": [
        {
          "internalType": "bool",
          "name": "",
          "type": "bool"
        }
      ],
      "stateMutability": "view",
      "type": "function"
    },
    {
      "inputs": [],
      "name": "symbol",
      "outputs": [
        {
          "internalType": "string",
          "name": "",
          "type": "string"
        }
      ],
      "stateMutability": "view",
      "type": "function"
    },
    {
      "inputs": [
        {
          "internalType": "uint256",
          "name": "tokenId",
          "type": "uint256"
        }
      ],
      "name": "tokenURI",
      "outputs": [
        {
          "internalType": "string",
          "name": "",
          "type": "string"
        }
      ],
      "stateMutability": "view",
      "type": "function"
    },
    {
      "inputs": [
        {
          "internalType": "address",
          "name": "from",
          "type": "address"
        },
        {
          "internalType": "address",
          "name": "to",
          "type": "address"
        },
        {
          "internalType": "uint256",
          "name": "tokenId",
          "type": "uint256"
        }
      ],
      "name": "transferFrom",
      "outputs": [],
      "stateMutability": "nonpayable",
      "type": "function"
    },
    {
      "inputs": [
        {
          "internalType": "address",
          "name": "newOwner",
          "type": "address"
        }
      ],
      "name": "transferOwnership",
      "outputs": [],
      "stateMutability": "nonpayable",
      "type": "function"
    },
    {
      "inputs": [
        {
          "internalType": "uint256",
          "name": "_tokenId",
          "type": "uint256"
        },
        {
          "internalType": "string",
          "name": "_comment",
          "type": "string"
        }
      ],
      "name": "verifyAuthenticity",
      "outputs": [],
      "stateMutability": "nonpayable",
      "type": "function"
    },
    {
      "inputs": [
        {
          "internalType": "uint256",
          "name": "_tokenId",
          "type": "uint256"
        },
        {
          "internalType": "bytes32",
          "name": "_hashEnviado",
          "type": "bytes32"
        }
      ],
      "name": "verifyHash",
      "outputs": [
        {
          "internalType": "bool",
          "name": "",
          "type": "bool"
        }
      ],
      "stateMutability": "view",
      "type": "function"
    },
    {
      "inputs": [
        {
          "internalType": "uint256",
          "name": "",
          "type": "uint256"
        }
      ],
      "name": "watchHashes",
      "outputs": [
        {
          "internalType": "bytes32",
          "name": "",
          "type": "bytes32"
        }
      ],
      "stateMutability": "view",
      "type": "function"
    },
    {
      "inputs": [
        {
          "internalType": "uint256",
          "name": "",
          "type": "uint256"
        },
        {
          "internalType": "uint256",
          "name": "",
          "type": "uint256"
        }
      ],
      "name": "watchRevisions",
      "outputs": [
        {
          "internalType": "uint256",
          "name": "date",
          "type": "uint256"
        },
        {
          "internalType": "address",
          "name": "watchmaker",
          "type": "address"
        },
        {
          "internalType": "string",
          "name": "description",
          "type": "string"
        }
      ],
      "stateMutability": "view",
      "type": "function"
    },
    {
      "inputs": [
        {
          "internalType": "uint256",
          "name": "",
          "type": "uint256"
        },
        {
          "internalType": "uint256",
          "name": "",
          "type": "uint256"
        }
      ],
      "name": "watchVerifications",
      "outputs": [
        {
          "internalType": "address",
          "name": "watchmaker",
          "type": "address"
        },
        {
          "internalType": "uint256",
          "name": "date",
          "type": "uint256"
        },
        {
          "internalType": "string",
          "name": "comment",
          "type": "string"
        }
      ],
      "stateMutability": "view",
      "type": "function"
    },
    {
      "inputs": [
        {
          "internalType": "uint256",
          "name": "",
          "type": "uint256"
        }
      ],
      "name": "watches",
      "outputs": [
        {
          "internalType": "string",
          "name": "brand",
          "type": "string"
        },
        {
          "internalType": "string",
          "name": "model",
          "type": "string"
        },
        {
          "internalType": "string",
          "name": "serialNumber",
          "type": "string"
        },
        {
          "internalType": "uint256",
          "name": "manufacturingYear",
          "type": "uint256"
        },
        {
          "internalType": "bytes32",
          "name": "hashUID",
          "type": "bytes32"
        },
        {
          "internalType": "enum WatchNFT.WatchState",
          "name": "state",
          "type": "uint8"
        },
        {
          "internalType": "address",
          "name": "manufacturer",
          "type": "address"
        }
      ],
      "stateMutability": "view",
      "type": "function"
    }
  ],
  "bytecode": "0x608060405234801561000f575f5ffd5b50336040518060400160405280600a81526020017f41584941205761746368000000000000000000000000000000000000000000008152506040518060400160405280600481526020017f4158494100000000000000000000000000000000000000000000000000000000815250815f908161008b9190610423565b50806001908161009b9190610423565b5050505f73ffffffffffffffffffffffffffffffffffffffff168173ffffffffffffffffffffffffffffffffffffffff160361010e575f6040517f1e4fbdf70000000000000000000000000000000000000000000000000000000081526004016101059190610531565b60405180910390fd5b61011d8161012360201b60201c565b5061054a565b5f60075f9054906101000a900473ffffffffffffffffffffffffffffffffffffffff1690508160075f6101000a81548173ffffffffffffffffffffffffffffffffffffffff021916908373ffffffffffffffffffffffffffffffffffffffff1602179055508173ffffffffffffffffffffffffffffffffffffffff168173ffffffffffffffffffffffffffffffffffffffff167f8be0079c531659141344cd1fd0a4f28419497f9722a3daafe3b4186f6b6457e060405160405180910390a35050565b5f81519050919050565b7f4e487b71000000000000000000000000000000000000000000000000000000005f52604160045260245ffd5b7f4e487b71000000000000000000000000000000000000000000000000000000005f52602260045260245ffd5b5f600282049050600182168061026157607f821691505b6020821081036102745761027361021d565b5b50919050565b5f819050815f5260205f209050919050565b5f6020601f8301049050919050565b5f82821b905092915050565b5f600883026102d67fffffffffffffffffffffffffffffffffffffffffffffffffffffffffffffffff8261029b565b6102e0868361029b565b95508019841693508086168417925050509392505050565b5f819050919050565b5f819050919050565b5f61032461031f61031a846102f8565b610301565b6102f8565b9050919050565b5f819050919050565b61033d8361030a565b6103516103498261032b565b8484546102a7565b825550505050565b5f5f905090565b610368610359565b610373818484610334565b505050565b5b818110156103965761038b5f82610360565b600181019050610379565b5050565b601f8211156103db576103ac8161027a565b6103b58461028c565b810160208510156103c4578190505b6103d86103d08561028c565b830182610378565b50505b505050565b5f82821c905092915050565b5f6103fb5f19846008026103e0565b1980831691505092915050565b5f61041383836103ec565b9150826002028217905092915050565b61042c826101e6565b67ffffffffffffffff811115610445576104446101f0565b5b61044f825461024a565b61045a82828561039a565b5f60209050601f83116001811461048b575f8415610479578287015190505b6104838582610408565b8655506104ea565b601f1984166104998661027a565b5f5b828110156104c05784890151825560018201915060208501945060208101905061049b565b868310156104dd57848901516104d9601f8916826103ec565b8355505b6001600288020188555050505b505050505050565b5f73ffffffffffffffffffffffffffffffffffffffff82169050919050565b5f61051b826104f2565b9050919050565b61052b81610511565b82525050565b5f6020820190506105445f830184610522565b92915050565b61583a806105575f395ff3fe608060405234801561000f575f5ffd5b50600436106102ef575f3560e01c80637f30044c1161019b578063ccff3e5d116100e7578063e57624d6116100a0578063ec06d73b1161007a578063ec06d73b1461099b578063f2fde38b146109cb578063f6aacfb1146109e7578063fb3e098c14610a17576102ef565b8063e57624d61461091f578063e832c3991461094f578063e985e9c51461096b576102ef565b8063ccff3e5d14610847578063cdd1a6ee14610877578063d035537314610893578063d8f82ec2146108c9578063daa17f49146108e5578063e394ac8514610903576102ef565b8063ac19839111610154578063b88d4fde1161012e578063b88d4fde146107c1578063bb033cd4146107dd578063c4bc5da51461080d578063c87b56dd14610817576102ef565b8063ac19839114610757578063b47cc55614610773578063b5ad9a1d1461078f576102ef565b80637f30044c146106835780638da5cb5b1461069f57806395d89b41146106bd57806396d8f038146106db578063a22cb4651461070b578063a7c4af8014610727576102ef565b806347e1413f1161025a5780636352211e1161021357806375794a3c116101ed57806375794a3c146105d5578063772ecfd1146105f35780637e7892ad146106235780637ec9efe514610653576102ef565b80636352211e1461056b57806370a082311461059b578063715018a6146105cb576102ef565b806347e1413f14610497578063522db98a146104b357806352d0cd11146104cf57806359ebd99b146104eb5780635b0bfdb01461051d5780635c975abb1461054d576102ef565b80631a885919116102ac5780631a885919146103c557806323b872dd146103f557806324b0424514610411578063405234751461044157806342842e0e14610471578063439766ce1461048d576102ef565b806301ffc9a7146102f357806306fdde0314610323578063081812fc1461034157806308bbc51014610371578063095ea7b31461038d5780631757520e146103a9575b5f5ffd5b61030d600480360381019061030891906144b0565b610a47565b60405161031a91906144f5565b60405180910390f35b61032b610aa7565b604051610338919061457e565b60405180910390f35b61035b600480360381019061035691906145d1565b610b36565b604051610368919061463b565b60405180910390f35b61038b600480360381019061038691906145d1565b610b51565b005b6103a760048036038101906103a2919061467e565b610c0e565b005b6103c360048036038101906103be91906145d1565b610c24565b005b6103df60048036038101906103da91906145d1565b610d5f565b6040516103ec919061463b565b60405180910390f35b61040f600480360381019061040a91906146bc565b610d9c565b005b61042b6004803603810190610426919061470c565b610e9b565b60405161043891906144f5565b60405180910390f35b61045b600480360381019061045691906145d1565b610eb8565b60405161046891906148a5565b60405180910390f35b61048b600480360381019061048691906146bc565b611080565b005b61049561109f565b005b6104b160048036038101906104ac91906148ef565b6110b1565b005b6104cd60048036038101906104c89190614a59565b61111d565b005b6104e960048036038101906104e49190614ab3565b611328565b005b61050560048036038101906105009190614af1565b611388565b60405161051493929190614b3e565b60405180910390f35b610537600480360381019061053291906145d1565b61146d565b6040516105449190614b92565b60405180910390f35b610555611482565b60405161056291906144f5565b60405180910390f35b610585600480360381019061058091906145d1565b611498565b604051610592919061463b565b60405180910390f35b6105b560048036038101906105b0919061470c565b6114a9565b6040516105c29190614bab565b60405180910390f35b6105d361155f565b005b6105dd611572565b6040516105ea9190614bab565b60405180910390f35b61060d60048036038101906106089190614bee565b611578565b60405161061a9190614bab565b60405180910390f35b61063d600480360381019061063891906145d1565b61158d565b60405161064a9190614d42565b60405180910390f35b61066d60048036038101906106689190614bee565b611878565b60405161067a9190614bab565b60405180910390f35b61069d60048036038101906106989190614a59565b6118d0565b005b6106a7611b87565b6040516106b4919061463b565b60405180910390f35b6106c5611baf565b6040516106d2919061457e565b60405180910390f35b6106f560048036038101906106f0919061470c565b611c3f565b60405161070291906144f5565b60405180910390f35b61072560048036038101906107209190614ab3565b611c5c565b005b610741600480360381019061073c919061470c565b611c72565b60405161074e91906144f5565b60405180910390f35b610771600480360381019061076c9190614d62565b611c8f565b005b61078d6004803603810190610788919061470c565b611cca565b005b6107a960048036038101906107a49190614af1565b611d15565b6040516107b893929190614da0565b60405180910390f35b6107db60048036038101906107d69190614e7a565b611dfa565b005b6107f760048036038101906107f29190614efa565b611e1f565b6040516108049190614bab565b60405180910390f35b610815611e4c565b005b610831600480360381019061082c91906145d1565b611e5e565b60405161083e919061457e565b60405180910390f35b610861600480360381019061085c91906145d1565b611eda565b60405161086e9190615049565b60405180910390f35b610891600480360381019061088c9190614a59565b6120a2565b005b6108ad60048036038101906108a891906145d1565b6122ba565b6040516108c09796959493929190615078565b60405180910390f35b6108e360048036038101906108de9190614ab3565b6124b6565b005b6108ed612516565b6040516108fa919061463b565b60405180910390f35b61091d60048036038101906109189190614ab3565b61253b565b005b61093960048036038101906109349190614efa565b61259b565b6040516109469190614d42565b60405180910390f35b6109696004803603810190610964919061511d565b612875565b005b6109856004803603810190610980919061515b565b612b17565b60405161099291906144f5565b60405180910390f35b6109b560048036038101906109b09190614d62565b612ba5565b6040516109c291906144f5565b60405180910390f35b6109e560048036038101906109e0919061470c565b612bc2565b005b610a0160048036038101906109fc91906145d1565b612c46565b604051610a0e91906144f5565b60405180910390f35b610a316004803603810190610a2c9190615199565b612c63565b604051610a3e9190614bab565b60405180910390f35b5f634906490660e01b7bffffffffffffffffffffffffffffffffffffffffffffffffffffffff1916827bffffffffffffffffffffffffffffffffffffffffffffffffffffffff19161480610aa05750610a9f82612f88565b5b9050919050565b60605f8054610ab5906152d3565b80601f0160208091040260200160405190810160405280929190818152602001828054610ae1906152d3565b8015610b2c5780601f10610b0357610100808354040283529160200191610b2c565b820191905f5260205f20905b815481529060010190602001808311610b0f57829003601f168201915b5050505050905090565b5f610b4082613069565b50610b4a826130ef565b9050919050565b610b59613128565b5f73ffffffffffffffffffffffffffffffffffffffff16610b79826131af565b73ffffffffffffffffffffffffffffffffffffffff1603610bc6576040517fceea21b600000000000000000000000000000000000000000000000000000000815260040160405180910390fd5b6003600a5f8381526020019081526020015f206005015f6101000a81548160ff02191690836004811115610bfd57610bfc614c28565b5b0217905550610c0b816131e8565b50565b610c208282610c1b61326a565b613271565b5050565b60095f9054906101000a900473ffffffffffffffffffffffffffffffffffffffff1673ffffffffffffffffffffffffffffffffffffffff163373ffffffffffffffffffffffffffffffffffffffff161480610cb15750610c82611b87565b73ffffffffffffffffffffffffffffffffffffffff163373ffffffffffffffffffffffffffffffffffffffff16145b610ce7576040517fea8e4eb500000000000000000000000000000000000000000000000000000000815260040160405180910390fd5b6004600a5f8381526020019081526020015f206005015f6101000a81548160ff02191690836004811115610d1e57610d1d614c28565b5b0217905550807f742254a6f360c90275b3743d022408669fa824be784b5777eeea0a5e895bb2cd6004604051610d549190615303565b60405180910390a250565b5f600a5f8381526020019081526020015f2060050160019054906101000a900473ffffffffffffffffffffffffffffffffffffffff169050919050565b5f73ffffffffffffffffffffffffffffffffffffffff168273ffffffffffffffffffffffffffffffffffffffff1603610e0c575f6040517f64a0ae92000000000000000000000000000000000000000000000000000000008152600401610e03919061463b565b60405180910390fd5b5f610e1f8383610e1a61326a565b613283565b90508373ffffffffffffffffffffffffffffffffffffffff168173ffffffffffffffffffffffffffffffffffffffff1614610e95578382826040517f64283d7b000000000000000000000000000000000000000000000000000000008152600401610e8c9392919061531c565b60405180910390fd5b50505050565b600d602052805f5260405f205f915054906101000a900460ff1681565b60605f73ffffffffffffffffffffffffffffffffffffffff16610eda836131af565b73ffffffffffffffffffffffffffffffffffffffff1603610f27576040517fceea21b600000000000000000000000000000000000000000000000000000000815260040160405180910390fd5b60115f8381526020019081526020015f20805480602002602001604051908101604052809291908181526020015f905b82821015611075578382905f5260205f2090600302016040518060600160405290815f82015f9054906101000a900473ffffffffffffffffffffffffffffffffffffffff1673ffffffffffffffffffffffffffffffffffffffff1673ffffffffffffffffffffffffffffffffffffffff16815260200160018201548152602001600282018054610fe6906152d3565b80601f0160208091040260200160405190810160405280929190818152602001828054611012906152d3565b801561105d5780601f106110345761010080835404028352916020019161105d565b820191905f5260205f20905b81548152906001019060200180831161104057829003601f168201915b50505050508152505081526020019060010190610f57565b505050509050919050565b61109a83838360405180602001604052805f815250611dfa565b505050565b6110a7613128565b6110af6133e0565b565b6110b9613128565b8060105f8481526020019081526020015f205f6101000a81548160ff021916908315150217905550817f1061f8ecbb11992f94e9b36dac8f2d92c62e763f626409b6d965ea3dab3549a88260405161111191906144f5565b60405180910390a25050565b600e5f3373ffffffffffffffffffffffffffffffffffffffff1673ffffffffffffffffffffffffffffffffffffffff1681526020019081526020015f205f9054906101000a900460ff1661119d576040517fa6f9ccd400000000000000000000000000000000000000000000000000000000815260040160405180910390fd5b6111a5613443565b5f73ffffffffffffffffffffffffffffffffffffffff166111c5836131af565b73ffffffffffffffffffffffffffffffffffffffff1603611212576040517fceea21b600000000000000000000000000000000000000000000000000000000815260040160405180910390fd5b600b5f8381526020019081526020015f2060405180606001604052804281526020013373ffffffffffffffffffffffffffffffffffffffff16815260200183815250908060018154018082558091505060019003905f5260205f2090600302015f909190919091505f820151815f01556020820151816001015f6101000a81548173ffffffffffffffffffffffffffffffffffffffff021916908373ffffffffffffffffffffffffffffffffffffffff16021790555060408201518160020190816112dd91906154f1565b5050503373ffffffffffffffffffffffffffffffffffffffff16827f7ab070bb0027adc60c7d9b2d3cde3120cd26fa545b016ffe6fcbfd6bd29d9e9460405160405180910390a35050565b611330613128565b80600e5f8473ffffffffffffffffffffffffffffffffffffffff1673ffffffffffffffffffffffffffffffffffffffff1681526020019081526020015f205f6101000a81548160ff0219169083151502179055505050565b6011602052815f5260405f2081815481106113a1575f80fd5b905f5260205f2090600302015f9150915050805f015f9054906101000a900473ffffffffffffffffffffffffffffffffffffffff16908060010154908060020180546113ec906152d3565b80601f0160208091040260200160405190810160405280929190818152602001828054611418906152d3565b80156114635780601f1061143a57610100808354040283529160200191611463565b820191905f5260205f20905b81548152906001019060200180831161144657829003601f168201915b5050505050905083565b6013602052805f5260405f205f915090505481565b5f600760149054906101000a900460ff16905090565b5f6114a282613069565b9050919050565b5f5f73ffffffffffffffffffffffffffffffffffffffff168273ffffffffffffffffffffffffffffffffffffffff160361151a575f6040517f89c62b64000000000000000000000000000000000000000000000000000000008152600401611511919061463b565b60405180910390fd5b60035f8373ffffffffffffffffffffffffffffffffffffffff1673ffffffffffffffffffffffffffffffffffffffff1681526020019081526020015f20549050919050565b611567613128565b6115705f613484565b565b60085481565b600c602052805f5260405f205f915090505481565b6115956143e9565b5f73ffffffffffffffffffffffffffffffffffffffff166115b5836131af565b73ffffffffffffffffffffffffffffffffffffffff1603611602576040517fceea21b600000000000000000000000000000000000000000000000000000000815260040160405180910390fd5b600a5f8381526020019081526020015f206040518060e00160405290815f8201805461162d906152d3565b80601f0160208091040260200160405190810160405280929190818152602001828054611659906152d3565b80156116a45780601f1061167b576101008083540402835291602001916116a4565b820191905f5260205f20905b81548152906001019060200180831161168757829003601f168201915b505050505081526020016001820180546116bd906152d3565b80601f01602080910402602001604051908101604052809291908181526020018280546116e9906152d3565b80156117345780601f1061170b57610100808354040283529160200191611734565b820191905f5260205f20905b81548152906001019060200180831161171757829003601f168201915b5050505050815260200160028201805461174d906152d3565b80601f0160208091040260200160405190810160405280929190818152602001828054611779906152d3565b80156117c45780601f1061179b576101008083540402835291602001916117c4565b820191905f5260205f20905b8154815290600101906020018083116117a757829003601f168201915b505050505081526020016003820154815260200160048201548152602001600582015f9054906101000a900460ff16600481111561180557611804614c28565b5b600481111561181757611816614c28565b5b81526020016005820160019054906101000a900473ffffffffffffffffffffffffffffffffffffffff1673ffffffffffffffffffffffffffffffffffffffff1673ffffffffffffffffffffffffffffffffffffffff16815250509050919050565b5f5f600c5f8481526020019081526020015f205490505f81036118c7576040517f6c69de4400000000000000000000000000000000000000000000000000000000815260040160405180910390fd5b80915050919050565b600e5f3373ffffffffffffffffffffffffffffffffffffffff1673ffffffffffffffffffffffffffffffffffffffff1681526020019081526020015f205f9054906101000a900460ff16611950576040517fa6f9ccd400000000000000000000000000000000000000000000000000000000815260040160405180910390fd5b611958613443565b5f73ffffffffffffffffffffffffffffffffffffffff16611978836131af565b73ffffffffffffffffffffffffffffffffffffffff16036119c5576040517fceea21b600000000000000000000000000000000000000000000000000000000815260040160405180910390fd5b6004808111156119d8576119d7614c28565b5b600a5f8481526020019081526020015f206005015f9054906101000a900460ff166004811115611a0b57611a0a614c28565b5b14611a42576040517f3b5811be00000000000000000000000000000000000000000000000000000000815260040160405180910390fd5b5f600a5f8481526020019081526020015f206005015f6101000a81548160ff02191690836004811115611a7857611a77614c28565b5b0217905550600b5f8381526020019081526020015f2060405180606001604052804281526020013373ffffffffffffffffffffffffffffffffffffffff16815260200183815250908060018154018082558091505060019003905f5260205f2090600302015f909190919091505f820151815f01556020820151816001015f6101000a81548173ffffffffffffffffffffffffffffffffffffffff021916908373ffffffffffffffffffffffffffffffffffffffff1602179055506040820151816002019081611b4891906154f1565b505050817f742254a6f360c90275b3743d022408669fa824be784b5777eeea0a5e895bb2cd5f604051611b7b9190615303565b60405180910390a25050565b5f60075f9054906101000a900473ffffffffffffffffffffffffffffffffffffffff16905090565b606060018054611bbe906152d3565b80601f0160208091040260200160405190810160405280929190818152602001828054611bea906152d3565b8015611c355780601f10611c0c57610100808354040283529160200191611c35565b820191905f5260205f20905b815481529060010190602001808311611c1857829003601f168201915b5050505050905090565b600e602052805f5260405f205f915054906101000a900460ff1681565b611c6e611c6761326a565b8383613547565b5050565b600f602052805f5260405f205f915054906101000a900460ff1681565b611c97613128565b8060135f8481526020019081526020015f208190555080600a5f8481526020019081526020015f20600401819055505050565b611cd2613128565b8060095f6101000a81548173ffffffffffffffffffffffffffffffffffffffff021916908373ffffffffffffffffffffffffffffffffffffffff16021790555050565b600b602052815f5260405f208181548110611d2e575f80fd5b905f5260205f2090600302015f9150915050805f015490806001015f9054906101000a900473ffffffffffffffffffffffffffffffffffffffff1690806002018054611d79906152d3565b80601f0160208091040260200160405190810160405280929190818152602001828054611da5906152d3565b8015611df05780601f10611dc757610100808354040283529160200191611df0565b820191905f5260205f20905b815481529060010190602001808311611dd357829003601f168201915b5050505050905083565b611e05848484610d9c565b611e19611e1061326a565b85858585613720565b50505050565b6012818051602081018201805184825260208301602085012081835280955050505050505f915090505481565b611e54613128565b611e5c6138cc565b565b6060611e6982613069565b505f611e7361392e565b90505f611e7f84613944565b90505f825103611e93578092505050611ed5565b5f81511115611ec7578181604051602001611eaf9291906155fa565b60405160208183030381529060405292505050611ed5565b611ed0846139e5565b925050505b919050565b60605f73ffffffffffffffffffffffffffffffffffffffff16611efc836131af565b73ffffffffffffffffffffffffffffffffffffffff1603611f49576040517fceea21b600000000000000000000000000000000000000000000000000000000815260040160405180910390fd5b600b5f8381526020019081526020015f20805480602002602001604051908101604052809291908181526020015f905b82821015612097578382905f5260205f2090600302016040518060600160405290815f8201548152602001600182015f9054906101000a900473ffffffffffffffffffffffffffffffffffffffff1673ffffffffffffffffffffffffffffffffffffffff1673ffffffffffffffffffffffffffffffffffffffff168152602001600282018054612008906152d3565b80601f0160208091040260200160405190810160405280929190818152602001828054612034906152d3565b801561207f5780601f106120565761010080835404028352916020019161207f565b820191905f5260205f20905b81548152906001019060200180831161206257829003601f168201915b50505050508152505081526020019060010190611f79565b505050509050919050565b600e5f3373ffffffffffffffffffffffffffffffffffffffff1673ffffffffffffffffffffffffffffffffffffffff1681526020019081526020015f205f9054906101000a900460ff16612122576040517fa6f9ccd400000000000000000000000000000000000000000000000000000000815260040160405180910390fd5b61212a613443565b5f73ffffffffffffffffffffffffffffffffffffffff1661214a836131af565b73ffffffffffffffffffffffffffffffffffffffff1603612197576040517fceea21b600000000000000000000000000000000000000000000000000000000815260040160405180910390fd5b60115f8381526020019081526020015f2060405180606001604052803373ffffffffffffffffffffffffffffffffffffffff16815260200142815260200183815250908060018154018082558091505060019003905f5260205f2090600302015f909190919091505f820151815f015f6101000a81548173ffffffffffffffffffffffffffffffffffffffff021916908373ffffffffffffffffffffffffffffffffffffffff16021790555060208201518160010155604082015181600201908161226291906154f1565b5050503373ffffffffffffffffffffffffffffffffffffffff16827f3b1805a6d026cbe728d8a2ab23ba527f9a35360232d48c701d220b7562528c8a42846040516122ae92919061561d565b60405180910390a35050565b600a602052805f5260405f205f91509050805f0180546122d9906152d3565b80601f0160208091040260200160405190810160405280929190818152602001828054612305906152d3565b80156123505780601f1061232757610100808354040283529160200191612350565b820191905f5260205f20905b81548152906001019060200180831161233357829003601f168201915b505050505090806001018054612365906152d3565b80601f0160208091040260200160405190810160405280929190818152602001828054612391906152d3565b80156123dc5780601f106123b3576101008083540402835291602001916123dc565b820191905f5260205f20905b8154815290600101906020018083116123bf57829003601f168201915b5050505050908060020180546123f1906152d3565b80601f016020809104026020016040519081016040528092919081815260200182805461241d906152d3565b80156124685780601f1061243f57610100808354040283529160200191612468565b820191905f5260205f20905b81548152906001019060200180831161244b57829003601f168201915b505050505090806003015490806004015490806005015f9054906101000a900460ff16908060050160019054906101000a900473ffffffffffffffffffffffffffffffffffffffff16905087565b6124be613128565b80600d5f8473ffffffffffffffffffffffffffffffffffffffff1673ffffffffffffffffffffffffffffffffffffffff1681526020019081526020015f205f6101000a81548160ff0219169083151502179055505050565b60095f9054906101000a900473ffffffffffffffffffffffffffffffffffffffff1681565b612543613128565b80600f5f8473ffffffffffffffffffffffffffffffffffffffff1673ffffffffffffffffffffffffffffffffffffffff1681526020019081526020015f205f6101000a81548160ff0219169083151502179055505050565b6125a36143e9565b5f6012836040516125b4919061564b565b90815260200160405180910390205490505f81036125fe576040517f2350ad5600000000000000000000000000000000000000000000000000000000815260040160405180910390fd5b600a5f8281526020019081526020015f206040518060e00160405290815f82018054612629906152d3565b80601f0160208091040260200160405190810160405280929190818152602001828054612655906152d3565b80156126a05780601f10612677576101008083540402835291602001916126a0565b820191905f5260205f20905b81548152906001019060200180831161268357829003601f168201915b505050505081526020016001820180546126b9906152d3565b80601f01602080910402602001604051908101604052809291908181526020018280546126e5906152d3565b80156127305780601f1061270757610100808354040283529160200191612730565b820191905f5260205f20905b81548152906001019060200180831161271357829003601f168201915b50505050508152602001600282018054612749906152d3565b80601f0160208091040260200160405190810160405280929190818152602001828054612775906152d3565b80156127c05780601f10612797576101008083540402835291602001916127c0565b820191905f5260205f20905b8154815290600101906020018083116127a357829003601f168201915b505050505081526020016003820154815260200160048201548152602001600582015f9054906101000a900460ff16600481111561280157612800614c28565b5b600481111561281357612812614c28565b5b81526020016005820160019054906101000a900473ffffffffffffffffffffffffffffffffffffffff1673ffffffffffffffffffffffffffffffffffffffff1673ffffffffffffffffffffffffffffffffffffffff1681525050915050919050565b61287d613443565b3373ffffffffffffffffffffffffffffffffffffffff1661289d83611498565b73ffffffffffffffffffffffffffffffffffffffff16146128ea576040517f30cd747100000000000000000000000000000000000000000000000000000000815260040160405180910390fd5b6004808111156128fd576128fc614c28565b5b600a5f8481526020019081526020015f206005015f9054906101000a900460ff1660048111156129305761292f614c28565b5b03612967576040517f9fd5d7f800000000000000000000000000000000000000000000000000000000815260040160405180910390fd5b6003600481111561297b5761297a614c28565b5b600a5f8481526020019081526020015f206005015f9054906101000a900460ff1660048111156129ae576129ad614c28565b5b036129e5576040517fde9bbf4200000000000000000000000000000000000000000000000000000000815260040160405180910390fd5b600160048111156129f9576129f8614c28565b5b816004811115612a0c57612a0b614c28565b5b1480612a3c575060026004811115612a2757612a26614c28565b5b816004811115612a3a57612a39614c28565b5b145b80612a6a57505f6004811115612a5557612a54614c28565b5b816004811115612a6857612a67614c28565b5b145b612aa0576040517fbaf3f0f700000000000000000000000000000000000000000000000000000000815260040160405180910390fd5b80600a5f8481526020019081526020015f206005015f6101000a81548160ff02191690836004811115612ad657612ad5614c28565b5b0217905550817f742254a6f360c90275b3743d022408669fa824be784b5777eeea0a5e895bb2cd82604051612b0b9190615303565b60405180910390a25050565b5f60055f8473ffffffffffffffffffffffffffffffffffffffff1673ffffffffffffffffffffffffffffffffffffffff1681526020019081526020015f205f8373ffffffffffffffffffffffffffffffffffffffff1673ffffffffffffffffffffffffffffffffffffffff1681526020019081526020015f205f9054906101000a900460ff16905092915050565b5f8160135f8581526020019081526020015f205414905092915050565b612bca613128565b5f73ffffffffffffffffffffffffffffffffffffffff168173ffffffffffffffffffffffffffffffffffffffff1603612c3a575f6040517f1e4fbdf7000000000000000000000000000000000000000000000000000000008152600401612c31919061463b565b60405180910390fd5b612c4381613484565b50565b6010602052805f5260405f205f915054906101000a900460ff1681565b5f600d5f3373ffffffffffffffffffffffffffffffffffffffff1673ffffffffffffffffffffffffffffffffffffffff1681526020019081526020015f205f9054906101000a900460ff16612ce4576040517f5356b1ae00000000000000000000000000000000000000000000000000000000815260040160405180910390fd5b612cec613443565b5f5f1b8403612d27576040517fa27c6b3400000000000000000000000000000000000000000000000000000000815260040160405180910390fd5b5f600c5f8681526020019081526020015f205414612d71576040517f2987f17900000000000000000000000000000000000000000000000000000000815260040160405180910390fd5b60085f815480929190612d839061568e565b91905055505f60085490506040518060e001604052808a81526020018981526020018881526020018781526020018681526020015f6004811115612dca57612dc9614c28565b5b81526020013373ffffffffffffffffffffffffffffffffffffffff16815250600a5f8381526020019081526020015f205f820151815f019081612e0d91906154f1565b506020820151816001019081612e2391906154f1565b506040820151816002019081612e3991906154f1565b50606082015181600301556080820151816004015560a0820151816005015f6101000a81548160ff02191690836004811115612e7857612e77614c28565b5b021790555060c08201518160050160016101000a81548173ffffffffffffffffffffffffffffffffffffffff021916908373ffffffffffffffffffffffffffffffffffffffff16021790555090505080600c5f8781526020019081526020015f20819055508460135f8381526020019081526020015f208190555080601288604051612f04919061564b565b908152602001604051809103902081905550612f208382613a4b565b612f2a8185613a68565b8273ffffffffffffffffffffffffffffffffffffffff16817fbe60de64fefaba149eabf879d3546ed5ec86f5896065da975f59e11f1689712a87604051612f719190614b92565b60405180910390a380915050979650505050505050565b5f7f80ac58cd000000000000000000000000000000000000000000000000000000007bffffffffffffffffffffffffffffffffffffffffffffffffffffffff1916827bffffffffffffffffffffffffffffffffffffffffffffffffffffffff1916148061305257507f5b5e139f000000000000000000000000000000000000000000000000000000007bffffffffffffffffffffffffffffffffffffffffffffffffffffffff1916827bffffffffffffffffffffffffffffffffffffffffffffffffffffffff1916145b80613062575061306182613ac2565b5b9050919050565b5f5f613074836131af565b90505f73ffffffffffffffffffffffffffffffffffffffff168173ffffffffffffffffffffffffffffffffffffffff16036130e657826040517f7e2732890000000000000000000000000000000000000000000000000000000081526004016130dd9190614bab565b60405180910390fd5b80915050919050565b5f60045f8381526020019081526020015f205f9054906101000a900473ffffffffffffffffffffffffffffffffffffffff169050919050565b61313061326a565b73ffffffffffffffffffffffffffffffffffffffff1661314e611b87565b73ffffffffffffffffffffffffffffffffffffffff16146131ad5761317161326a565b6040517f118cdaa70000000000000000000000000000000000000000000000000000000081526004016131a4919061463b565b60405180910390fd5b565b5f60025f8381526020019081526020015f205f9054906101000a900473ffffffffffffffffffffffffffffffffffffffff169050919050565b5f6131f45f835f613283565b90505f73ffffffffffffffffffffffffffffffffffffffff168173ffffffffffffffffffffffffffffffffffffffff160361326657816040517f7e27328900000000000000000000000000000000000000000000000000000000815260040161325d9190614bab565b60405180910390fd5b5050565b5f33905090565b61327e8383836001613b2b565b505050565b5f61328c613443565b5f73ffffffffffffffffffffffffffffffffffffffff168273ffffffffffffffffffffffffffffffffffffffff16141580156132f457505f73ffffffffffffffffffffffffffffffffffffffff168473ffffffffffffffffffffffffffffffffffffffff1614155b156133cc575f600481111561330c5761330b614c28565b5b600a5f8581526020019081526020015f206005015f9054906101000a900460ff16600481111561333f5761333e614c28565b5b14613376576040517ff90e674a00000000000000000000000000000000000000000000000000000000815260040160405180910390fd5b60105f8481526020019081526020015f205f9054906101000a900460ff16156133cb576040517f90d9a5bb00000000000000000000000000000000000000000000000000000000815260040160405180910390fd5b5b6133d7848484613cea565b90509392505050565b6133e8613443565b6001600760146101000a81548160ff0219169083151502179055507f62e78cea01bee320cd4e420270b5ea74000d11b0c9f74754ebdbfc544b05a25861342c61326a565b604051613439919061463b565b60405180910390a1565b61344b611482565b15613482576040517fd93c066500000000000000000000000000000000000000000000000000000000815260040160405180910390fd5b565b5f60075f9054906101000a900473ffffffffffffffffffffffffffffffffffffffff1690508160075f6101000a81548173ffffffffffffffffffffffffffffffffffffffff021916908373ffffffffffffffffffffffffffffffffffffffff1602179055508173ffffffffffffffffffffffffffffffffffffffff168173ffffffffffffffffffffffffffffffffffffffff167f8be0079c531659141344cd1fd0a4f28419497f9722a3daafe3b4186f6b6457e060405160405180910390a35050565b5f73ffffffffffffffffffffffffffffffffffffffff168373ffffffffffffffffffffffffffffffffffffffff16036135b7575f6040517fa9fbf51f0000000000000000000000000000000000000000000000000000000081526004016135ae919061463b565b60405180910390fd5b5f73ffffffffffffffffffffffffffffffffffffffff168273ffffffffffffffffffffffffffffffffffffffff160361362757816040517f5b08ba1800000000000000000000000000000000000000000000000000000000815260040161361e919061463b565b60405180910390fd5b8060055f8573ffffffffffffffffffffffffffffffffffffffff1673ffffffffffffffffffffffffffffffffffffffff1681526020019081526020015f205f8473ffffffffffffffffffffffffffffffffffffffff1673ffffffffffffffffffffffffffffffffffffffff1681526020019081526020015f205f6101000a81548160ff0219169083151502179055508173ffffffffffffffffffffffffffffffffffffffff168373ffffffffffffffffffffffffffffffffffffffff167f17307eab39ab6107e8899845ad3d59bd9653f200f220920489ca2b5937696c318360405161371391906144f5565b60405180910390a3505050565b5f8373ffffffffffffffffffffffffffffffffffffffff163b11156138c5578273ffffffffffffffffffffffffffffffffffffffff1663150b7a02868685856040518563ffffffff1660e01b815260040161377e9493929190615727565b6020604051808303815f875af19250505080156137b957506040513d601f19601f820116820180604052508101906137b69190615785565b60015b61383a573d805f81146137e7576040519150601f19603f3d011682016040523d82523d5f602084013e6137ec565b606091505b505f81510361383257836040517f64a0ae92000000000000000000000000000000000000000000000000000000008152600401613829919061463b565b60405180910390fd5b805160208201fd5b63150b7a0260e01b7bffffffffffffffffffffffffffffffffffffffffffffffffffffffff1916817bffffffffffffffffffffffffffffffffffffffffffffffffffffffff1916146138c357836040517f64a0ae920000000000000000000000000000000000000000000000000000000081526004016138ba919061463b565b60405180910390fd5b505b5050505050565b6138d4613ef5565b5f600760146101000a81548160ff0219169083151502179055507f5db9ee0a495bf2e6ff9c91a7834c1ba4fdd244a5e8aa4e537bd38aeae4b073aa61391761326a565b604051613924919061463b565b60405180910390a1565b606060405180602001604052805f815250905090565b606060065f8381526020019081526020015f208054613962906152d3565b80601f016020809104026020016040519081016040528092919081815260200182805461398e906152d3565b80156139d95780601f106139b0576101008083540402835291602001916139d9565b820191905f5260205f20905b8154815290600101906020018083116139bc57829003601f168201915b50505050509050919050565b60606139f082613069565b505f6139fa61392e565b90505f815111613a185760405180602001604052805f815250613a43565b80613a2284613f35565b604051602001613a339291906155fa565b6040516020818303038152906040525b915050919050565b613a64828260405180602001604052805f815250613fff565b5050565b8060065f8481526020019081526020015f209081613a8691906154f1565b507ff8e1a15aba9398e019f0b49df1a4fde98ee17ae345cb5f6b5e2c27f5033e8ce782604051613ab69190614bab565b60405180910390a15050565b5f7f01ffc9a7000000000000000000000000000000000000000000000000000000007bffffffffffffffffffffffffffffffffffffffffffffffffffffffff1916827bffffffffffffffffffffffffffffffffffffffffffffffffffffffff1916149050919050565b8080613b6357505f73ffffffffffffffffffffffffffffffffffffffff168273ffffffffffffffffffffffffffffffffffffffff1614155b15613c95575f613b7284613069565b90505f73ffffffffffffffffffffffffffffffffffffffff168373ffffffffffffffffffffffffffffffffffffffff1614158015613bdc57508273ffffffffffffffffffffffffffffffffffffffff168173ffffffffffffffffffffffffffffffffffffffff1614155b8015613bef5750613bed8184612b17565b155b15613c3157826040517fa9fbf51f000000000000000000000000000000000000000000000000000000008152600401613c28919061463b565b60405180910390fd5b8115613c9357838573ffffffffffffffffffffffffffffffffffffffff168273ffffffffffffffffffffffffffffffffffffffff167f8c5be1e5ebec7d5bd14f71427d1e84f3dd0314c0f7b2291e5b200ac8c7c3b92560405160405180910390a45b505b8360045f8581526020019081526020015f205f6101000a81548173ffffffffffffffffffffffffffffffffffffffff021916908373ffffffffffffffffffffffffffffffffffffffff16021790555050505050565b5f5f613cf5846131af565b90505f73ffffffffffffffffffffffffffffffffffffffff168373ffffffffffffffffffffffffffffffffffffffff1614613d3657613d35818486614022565b5b5f73ffffffffffffffffffffffffffffffffffffffff168173ffffffffffffffffffffffffffffffffffffffff1614613dc157613d755f855f5f613b2b565b600160035f8373ffffffffffffffffffffffffffffffffffffffff1673ffffffffffffffffffffffffffffffffffffffff1681526020019081526020015f205f82825403925050819055505b5f73ffffffffffffffffffffffffffffffffffffffff168573ffffffffffffffffffffffffffffffffffffffff1614613e4057600160035f8773ffffffffffffffffffffffffffffffffffffffff1673ffffffffffffffffffffffffffffffffffffffff1681526020019081526020015f205f82825401925050819055505b8460025f8681526020019081526020015f205f6101000a81548173ffffffffffffffffffffffffffffffffffffffff021916908373ffffffffffffffffffffffffffffffffffffffff160217905550838573ffffffffffffffffffffffffffffffffffffffff168273ffffffffffffffffffffffffffffffffffffffff167fddf252ad1be2c89b69c2b068fc378daa952ba7f163c4a11628f55a4df523b3ef60405160405180910390a4809150509392505050565b613efd611482565b613f33576040517f8dfc202b00000000000000000000000000000000000000000000000000000000815260040160405180910390fd5b565b60605f6001613f43846140e5565b0190505f8167ffffffffffffffff811115613f6157613f60614935565b5b6040519080825280601f01601f191660200182016040528015613f935781602001600182028036833780820191505090505b5090505f82602083010190505b600115613ff4578080600190039150507f3031323334353637383961626364656600000000000000000000000000000000600a86061a8153600a8581613fe957613fe86157b0565b5b0494505f8503613fa0575b819350505050919050565b6140098383614236565b61401d61401461326a565b5f858585613720565b505050565b61402d838383614329565b6140e0575f73ffffffffffffffffffffffffffffffffffffffff168373ffffffffffffffffffffffffffffffffffffffff16036140a157806040517f7e2732890000000000000000000000000000000000000000000000000000000081526004016140989190614bab565b60405180910390fd5b81816040517f177e802f0000000000000000000000000000000000000000000000000000000081526004016140d79291906157dd565b60405180910390fd5b505050565b5f5f5f90507a184f03e93ff9f4daa797ed6e38ed64bf6a1f0100000000000000008310614141577a184f03e93ff9f4daa797ed6e38ed64bf6a1f0100000000000000008381614137576141366157b0565b5b0492506040810190505b6d04ee2d6d415b85acef8100000000831061417e576d04ee2d6d415b85acef81000000008381614174576141736157b0565b5b0492506020810190505b662386f26fc1000083106141ad57662386f26fc1000083816141a3576141a26157b0565b5b0492506010810190505b6305f5e10083106141d6576305f5e10083816141cc576141cb6157b0565b5b0492506008810190505b61271083106141fb5761271083816141f1576141f06157b0565b5b0492506004810190505b6064831061421e5760648381614214576142136157b0565b5b0492506002810190505b600a831061422d576001810190505b80915050919050565b5f73ffffffffffffffffffffffffffffffffffffffff168273ffffffffffffffffffffffffffffffffffffffff16036142a6575f6040517f64a0ae9200000000000000000000000000000000000000000000000000000000815260040161429d919061463b565b60405180910390fd5b5f6142b283835f613283565b90505f73ffffffffffffffffffffffffffffffffffffffff168173ffffffffffffffffffffffffffffffffffffffff1614614324575f6040517f73c6ac6e00000000000000000000000000000000000000000000000000000000815260040161431b919061463b565b60405180910390fd5b505050565b5f5f73ffffffffffffffffffffffffffffffffffffffff168373ffffffffffffffffffffffffffffffffffffffff16141580156143e057508273ffffffffffffffffffffffffffffffffffffffff168473ffffffffffffffffffffffffffffffffffffffff1614806143a157506143a08484612b17565b5b806143df57508273ffffffffffffffffffffffffffffffffffffffff166143c7836130ef565b73ffffffffffffffffffffffffffffffffffffffff16145b5b90509392505050565b6040518060e001604052806060815260200160608152602001606081526020015f81526020015f81526020015f600481111561442857614427614c28565b5b81526020015f73ffffffffffffffffffffffffffffffffffffffff1681525090565b5f604051905090565b5f5ffd5b5f5ffd5b5f7fffffffff0000000000000000000000000000000000000000000000000000000082169050919050565b61448f8161445b565b8114614499575f5ffd5b50565b5f813590506144aa81614486565b92915050565b5f602082840312156144c5576144c4614453565b5b5f6144d28482850161449c565b91505092915050565b5f8115159050919050565b6144ef816144db565b82525050565b5f6020820190506145085f8301846144e6565b92915050565b5f81519050919050565b5f82825260208201905092915050565b8281835e5f83830152505050565b5f601f19601f8301169050919050565b5f6145508261450e565b61455a8185614518565b935061456a818560208601614528565b61457381614536565b840191505092915050565b5f6020820190508181035f8301526145968184614546565b905092915050565b5f819050919050565b6145b08161459e565b81146145ba575f5ffd5b50565b5f813590506145cb816145a7565b92915050565b5f602082840312156145e6576145e5614453565b5b5f6145f3848285016145bd565b91505092915050565b5f73ffffffffffffffffffffffffffffffffffffffff82169050919050565b5f614625826145fc565b9050919050565b6146358161461b565b82525050565b5f60208201905061464e5f83018461462c565b92915050565b61465d8161461b565b8114614667575f5ffd5b50565b5f8135905061467881614654565b92915050565b5f5f6040838503121561469457614693614453565b5b5f6146a18582860161466a565b92505060206146b2858286016145bd565b9150509250929050565b5f5f5f606084860312156146d3576146d2614453565b5b5f6146e08682870161466a565b93505060206146f18682870161466a565b9250506040614702868287016145bd565b9150509250925092565b5f6020828403121561472157614720614453565b5b5f61472e8482850161466a565b91505092915050565b5f81519050919050565b5f82825260208201905092915050565b5f819050602082019050919050565b6147698161461b565b82525050565b6147788161459e565b82525050565b5f82825260208201905092915050565b5f6147988261450e565b6147a2818561477e565b93506147b2818560208601614528565b6147bb81614536565b840191505092915050565b5f606083015f8301516147db5f860182614760565b5060208301516147ee602086018261476f565b5060408301518482036040860152614806828261478e565b9150508091505092915050565b5f61481e83836147c6565b905092915050565b5f602082019050919050565b5f61483c82614737565b6148468185614741565b93508360208202850161485885614751565b805f5b8581101561489357848403895281516148748582614813565b945061487f83614826565b925060208a0199505060018101905061485b565b50829750879550505050505092915050565b5f6020820190508181035f8301526148bd8184614832565b905092915050565b6148ce816144db565b81146148d8575f5ffd5b50565b5f813590506148e9816148c5565b92915050565b5f5f6040838503121561490557614904614453565b5b5f614912858286016145bd565b9250506020614923858286016148db565b9150509250929050565b5f5ffd5b5f5ffd5b7f4e487b71000000000000000000000000000000000000000000000000000000005f52604160045260245ffd5b61496b82614536565b810181811067ffffffffffffffff8211171561498a57614989614935565b5b80604052505050565b5f61499c61444a565b90506149a88282614962565b919050565b5f67ffffffffffffffff8211156149c7576149c6614935565b5b6149d082614536565b9050602081019050919050565b828183375f83830152505050565b5f6149fd6149f8846149ad565b614993565b905082815260208101848484011115614a1957614a18614931565b5b614a248482856149dd565b509392505050565b5f82601f830112614a4057614a3f61492d565b5b8135614a508482602086016149eb565b91505092915050565b5f5f60408385031215614a6f57614a6e614453565b5b5f614a7c858286016145bd565b925050602083013567ffffffffffffffff811115614a9d57614a9c614457565b5b614aa985828601614a2c565b9150509250929050565b5f5f60408385031215614ac957614ac8614453565b5b5f614ad68582860161466a565b9250506020614ae7858286016148db565b9150509250929050565b5f5f60408385031215614b0757614b06614453565b5b5f614b14858286016145bd565b9250506020614b25858286016145bd565b9150509250929050565b614b388161459e565b82525050565b5f606082019050614b515f83018661462c565b614b5e6020830185614b2f565b8181036040830152614b708184614546565b9050949350505050565b5f819050919050565b614b8c81614b7a565b82525050565b5f602082019050614ba55f830184614b83565b92915050565b5f602082019050614bbe5f830184614b2f565b92915050565b614bcd81614b7a565b8114614bd7575f5ffd5b50565b5f81359050614be881614bc4565b92915050565b5f60208284031215614c0357614c02614453565b5b5f614c1084828501614bda565b91505092915050565b614c2281614b7a565b82525050565b7f4e487b71000000000000000000000000000000000000000000000000000000005f52602160045260245ffd5b60058110614c6657614c65614c28565b5b50565b5f819050614c7682614c55565b919050565b5f614c8582614c69565b9050919050565b614c9581614c7b565b82525050565b5f60e083015f8301518482035f860152614cb5828261478e565b91505060208301518482036020860152614ccf828261478e565b91505060408301518482036040860152614ce9828261478e565b9150506060830151614cfe606086018261476f565b506080830151614d116080860182614c19565b5060a0830151614d2460a0860182614c8c565b5060c0830151614d3760c0860182614760565b508091505092915050565b5f6020820190508181035f830152614d5a8184614c9b565b905092915050565b5f5f60408385031215614d7857614d77614453565b5b5f614d85858286016145bd565b9250506020614d9685828601614bda565b9150509250929050565b5f606082019050614db35f830186614b2f565b614dc0602083018561462c565b8181036040830152614dd28184614546565b9050949350505050565b5f67ffffffffffffffff821115614df657614df5614935565b5b614dff82614536565b9050602081019050919050565b5f614e1e614e1984614ddc565b614993565b905082815260208101848484011115614e3a57614e39614931565b5b614e458482856149dd565b509392505050565b5f82601f830112614e6157614e6061492d565b5b8135614e71848260208601614e0c565b91505092915050565b5f5f5f5f60808587031215614e9257614e91614453565b5b5f614e9f8782880161466a565b9450506020614eb08782880161466a565b9350506040614ec1878288016145bd565b925050606085013567ffffffffffffffff811115614ee257614ee1614457565b5b614eee87828801614e4d565b91505092959194509250565b5f60208284031215614f0f57614f0e614453565b5b5f82013567ffffffffffffffff811115614f2c57614f2b614457565b5b614f3884828501614a2c565b91505092915050565b5f81519050919050565b5f82825260208201905092915050565b5f819050602082019050919050565b5f606083015f830151614f7f5f86018261476f565b506020830151614f926020860182614760565b5060408301518482036040860152614faa828261478e565b9150508091505092915050565b5f614fc28383614f6a565b905092915050565b5f602082019050919050565b5f614fe082614f41565b614fea8185614f4b565b935083602082028501614ffc85614f5b565b805f5b8581101561503757848403895281516150188582614fb7565b945061502383614fca565b925060208a01995050600181019050614fff565b50829750879550505050505092915050565b5f6020820190508181035f8301526150618184614fd6565b905092915050565b61507281614c7b565b82525050565b5f60e0820190508181035f830152615090818a614546565b905081810360208301526150a48189614546565b905081810360408301526150b88188614546565b90506150c76060830187614b2f565b6150d46080830186614b83565b6150e160a0830185615069565b6150ee60c083018461462c565b98975050505050505050565b60058110615106575f5ffd5b50565b5f81359050615117816150fa565b92915050565b5f5f6040838503121561513357615132614453565b5b5f615140858286016145bd565b925050602061515185828601615109565b9150509250929050565b5f5f6040838503121561517157615170614453565b5b5f61517e8582860161466a565b925050602061518f8582860161466a565b9150509250929050565b5f5f5f5f5f5f5f60e0888a0312156151b4576151b3614453565b5b5f88013567ffffffffffffffff8111156151d1576151d0614457565b5b6151dd8a828b01614a2c565b975050602088013567ffffffffffffffff8111156151fe576151fd614457565b5b61520a8a828b01614a2c565b965050604088013567ffffffffffffffff81111561522b5761522a614457565b5b6152378a828b01614a2c565b95505060606152488a828b016145bd565b94505060806152598a828b01614bda565b93505060a088013567ffffffffffffffff81111561527a57615279614457565b5b6152868a828b01614a2c565b92505060c06152978a828b0161466a565b91505092959891949750929550565b7f4e487b71000000000000000000000000000000000000000000000000000000005f52602260045260245ffd5b5f60028204905060018216806152ea57607f821691505b6020821081036152fd576152fc6152a6565b5b50919050565b5f6020820190506153165f830184615069565b92915050565b5f60608201905061532f5f83018661462c565b61533c6020830185614b2f565b615349604083018461462c565b949350505050565b5f819050815f5260205f209050919050565b5f6020601f8301049050919050565b5f82821b905092915050565b5f600883026153ad7fffffffffffffffffffffffffffffffffffffffffffffffffffffffffffffffff82615372565b6153b78683615372565b95508019841693508086168417925050509392505050565b5f819050919050565b5f6153f26153ed6153e88461459e565b6153cf565b61459e565b9050919050565b5f819050919050565b61540b836153d8565b61541f615417826153f9565b84845461537e565b825550505050565b5f5f905090565b615436615427565b615441818484615402565b505050565b5b81811015615464576154595f8261542e565b600181019050615447565b5050565b601f8211156154a95761547a81615351565b61548384615363565b81016020851015615492578190505b6154a661549e85615363565b830182615446565b50505b505050565b5f82821c905092915050565b5f6154c95f19846008026154ae565b1980831691505092915050565b5f6154e183836154ba565b9150826002028217905092915050565b6154fa8261450e565b67ffffffffffffffff81111561551357615512614935565b5b61551d82546152d3565b615528828285615468565b5f60209050601f831160018114615559575f8415615547578287015190505b61555185826154d6565b8655506155b8565b601f19841661556786615351565b5f5b8281101561558e57848901518255600182019150602085019450602081019050615569565b868310156155ab57848901516155a7601f8916826154ba565b8355505b6001600288020188555050505b505050505050565b5f81905092915050565b5f6155d48261450e565b6155de81856155c0565b93506155ee818560208601614528565b80840191505092915050565b5f61560582856155ca565b915061561182846155ca565b91508190509392505050565b5f6040820190506156305f830185614b2f565b81810360208301526156428184614546565b90509392505050565b5f61565682846155ca565b915081905092915050565b7f4e487b71000000000000000000000000000000000000000000000000000000005f52601160045260245ffd5b5f6156988261459e565b91507fffffffffffffffffffffffffffffffffffffffffffffffffffffffffffffffff82036156ca576156c9615661565b5b600182019050919050565b5f81519050919050565b5f82825260208201905092915050565b5f6156f9826156d5565b61570381856156df565b9350615713818560208601614528565b61571c81614536565b840191505092915050565b5f60808201905061573a5f83018761462c565b615747602083018661462c565b6157546040830185614b2f565b818103606083015261576681846156ef565b905095945050505050565b5f8151905061577f81614486565b92915050565b5f6020828403121561579a57615799614453565b5b5f6157a784828501615771565b91505092915050565b7f4e487b71000000000000000000000000000000000000000000000000000000005f52601260045260245ffd5b5f6040820190506157f05f83018561462c565b6157fd6020830184614b2f565b939250505056fea2646970667358221220318e5080eb20c86312451704392991a05b6bf05472044c793c93fb3e1a61d2bc64736f6c634300081c0033",
  "linkReferences": {},
  "deployedLinkReferences": {}
}