{
  "_format": "hh-sol-artifact-1",
  "contractName": "WatchMarketplace",
  "sourceName": "contracts/WatchMarketplace.sol",
  "abi": [
    {
      "inputs": [
        {
          "internalType": "address",
          "name": "_watchNFTAddress",
          "type": "address"
        },
        {
          "internalType": "address",
          "name": "_paymentTokenAddress",
          "type": "address"
        }
      ],
      "stateMutability": "nonpayable",
      "type": "constructor"
    },
    {
      "inputs": [],
      "name": "AlreadyListed",
      "type": "error"
    },
    {
      "inputs": [],
      "name": "AlreadyShipped",
      "type": "error"
    },
    {
      "inputs": [],
      "name": "EnforcedPause",
      "type": "error"
    },
    {
      "inputs": [],
      "name": "ExpectedPause",
      "type": "error"
    },
    {
      "inputs": [],
      "name": "InactiveListing",
      "type": "error"
    },
    {
      "inputs": [],
      "name": "InvalidAddress",
      "type": "error"
    },
    {
      "inputs": [],
      "name": "InvalidPrice",
      "type": "error"
    },
    {
      "inputs": [],
      "name": "InvalidSignature",
      "type": "error"
    },
    {
      "inputs": [],
      "name": "MarketplaceNotApproved",
      "type": "error"
    },
    {
      "inputs": [],
      "name": "NotAssignedWatchmaker",
      "type": "error"
    },
    {
      "inputs": [],
      "name": "NotInEscrow",
      "type": "error"
    },
    {
      "inputs": [],
      "name": "NotLogisticsSystem",
      "type": "error"
    },
    {
      "inputs": [],
      "name": "NotOwner",
      "type": "error"
    },
    {
      "inputs": [],
      "name": "NotShipped",
      "type": "error"
    },
    {
      "inputs": [
        {
          "internalType": "address",
          "name": "owner",
          "type": "address"
        }
      ],
      "name": "OwnableInvalidOwner",
      "type": "error"
    },
    {
      "inputs": [
        {
          "internalType": "address",
          "name": "account",
          "type": "address"
        }
      ],
      "name": "OwnableUnauthorizedAccount",
      "type": "error"
    },
    {
      "inputs": [],
      "name": "PendingVerification",
      "type": "error"
    },
    {
      "inputs": [],
      "name": "ReentrancyGuardReentrantCall",
      "type": "error"
    },
    {
      "inputs": [],
      "name": "SelfPurchaseNotAllowed",
      "type": "error"
    },
    {
      "inputs": [],
      "name": "TransferFailed",
      "type": "error"
    },
    {
      "inputs": [],
      "name": "Unauthorized",
      "type": "error"
    },
    {
      "inputs": [],
      "name": "WatchNotActive",
      "type": "error"
    },
    {
      "anonymous": false,
      "inputs": [
        {
          "indexed": true,
          "internalType": "uint256",
          "name": "tokenId",
          "type": "uint256"
        },
        {
          "indexed": true,
          "internalType": "address",
          "name": "watchmaker",
          "type": "address"
        }
      ],
      "name": "AuthenticityApproved",
      "type": "event"
    },
    {
      "anonymous": false,
      "inputs": [
        {
          "indexed": true,
          "internalType": "uint256",
          "name": "tokenId",
          "type": "uint256"
        },
        {
          "indexed": true,
          "internalType": "address",
          "name": "watchmaker",
          "type": "address"
        }
      ],
      "name": "AuthenticityRejected",
      "type": "event"
    },
    {
      "anonymous": false,
      "inputs": [
        {
          "indexed": true,
          "internalType": "uint256",
          "name": "tokenId",
          "type": "uint256"
        },
        {
          "indexed": true,
          "internalType": "address",
          "name": "buyer",
          "type": "address"
        },
        {
          "indexed": false,
          "internalType": "uint256",
          "name": "price",
          "type": "uint256"
        }
      ],
      "name": "EscrowInitiated",
      "type": "event"
    },
    {
      "anonymous": false,
      "inputs": [
        {
          "indexed": true,
          "internalType": "uint256",
          "name": "tokenId",
          "type": "uint256"
        },
        {
          "indexed": true,
          "internalType": "address",
          "name": "buyer",
          "type": "address"
        },
        {
          "indexed": true,
          "internalType": "address",
          "name": "seller",
          "type": "address"
        },
        {
          "indexed": false,
          "internalType": "uint256",
          "name": "price",
          "type": "uint256"
        }
      ],
      "name": "EscrowRefunded",
      "type": "event"
    },
    {
      "anonymous": false,
      "inputs": [
        {
          "indexed": false,
          "internalType": "address",
          "name": "newRecipient",
          "type": "address"
        }
      ],
      "name": "FeeRecipientUpdated",
      "type": "event"
    },
    {
      "anonymous": false,
      "inputs": [
        {
          "indexed": true,
          "internalType": "uint256",
          "name": "tokenId",
          "type": "uint256"
        },
        {
          "indexed": true,
          "internalType": "address",
          "name": "seller",
          "type": "address"
        }
      ],
      "name": "ListingCancelled",
      "type": "event"
    },
    {
      "anonymous": false,
      "inputs": [
        {
          "indexed": true,
          "internalType": "uint256",
          "name": "tokenId",
          "type": "uint256"
        },
        {
          "indexed": false,
          "internalType": "uint256",
          "name": "oldPrice",
          "type": "uint256"
        },
        {
          "indexed": false,
          "internalType": "uint256",
          "name": "newPrice",
          "type": "uint256"
        }
      ],
      "name": "ListingPriceUpdated",
      "type": "event"
    },
    {
      "anonymous": false,
      "inputs": [
        {
          "indexed": true,
          "internalType": "address",
          "name": "previousOwner",
          "type": "address"
        },
        {
          "indexed": true,
          "internalType": "address",
          "name": "newOwner",
          "type": "address"
        }
      ],
      "name": "OwnershipTransferred",
      "type": "event"
    },
    {
      "anonymous": false,
      "inputs": [
        {
          "indexed": false,
          "internalType": "address",
          "name": "account",
          "type": "address"
        }
      ],
      "name": "Paused",
      "type": "event"
    },
    {
      "anonymous": false,
      "inputs": [
        {
          "indexed": true,
          "internalType": "uint256",
          "name": "tokenId",
          "type": "uint256"
        },
        {
          "indexed": true,
          "internalType": "address",
          "name": "buyer",
          "type": "address"
        },
        {
          "indexed": true,
          "internalType": "address",
          "name": "seller",
          "type": "address"
        },
        {
          "indexed": false,
          "internalType": "uint256",
          "name": "price",
          "type": "uint256"
        }
      ],
      "name": "SaleCompleted",
      "type": "event"
    },
    {
      "anonymous": false,
      "inputs": [
        {
          "indexed": false,
          "internalType": "address",
          "name": "account",
          "type": "address"
        }
      ],
      "name": "Unpaused",
      "type": "event"
    },
    {
      "anonymous": false,
      "inputs": [
        {
          "indexed": true,
          "internalType": "uint256",
          "name": "tokenId",
          "type": "uint256"
        },
        {
          "indexed": true,
          "internalType": "address",
          "name": "seller",
          "type": "address"
        },
        {
          "indexed": false,
          "internalType": "uint256",
          "name": "price",
          "type": "uint256"
        }
      ],
      "name": "WatchListed",
      "type": "event"
    },
    {
      "anonymous": false,
      "inputs": [
        {
          "indexed": true,
          "internalType": "uint256",
          "name": "tokenId",
          "type": "uint256"
        }
      ],
      "name": "WatchShipped",
      "type": "event"
    },
    {
      "anonymous": false,
      "inputs": [
        {
          "indexed": true,
          "internalType": "uint256",
          "name": "tokenId",
          "type": "uint256"
        },
        {
          "indexed": true,
          "internalType": "address",
          "name": "watchmaker",
          "type": "address"
        }
      ],
      "name": "WatchmakerAssigned",
      "type": "event"
    },
    {
      "inputs": [
        {
          "internalType": "uint256",
          "name": "_tokenId",
          "type": "uint256"
        },
        {
          "internalType": "address",
          "name": "_buyer",
          "type": "address"
        },
        {
          "internalType": "uint256",
          "name": "_amount",
          "type": "uint256"
        },
        {
          "internalType": "uint256",
          "name": "_deadline",
          "type": "uint256"
        },
        {
          "internalType": "bytes",
          "name": "_signature",
          "type": "bytes"
        }
      ],
      "name": "acceptOffChainOffer",
      "outputs": [],
      "stateMutability": "nonpayable",
      "type": "function"
    },
    {
      "inputs": [
        {
          "internalType": "uint256",
          "name": "_tokenId",
          "type": "uint256"
        }
      ],
      "name": "approveReturn",
      "outputs": [],
      "stateMutability": "nonpayable",
      "type": "function"
    },
    {
      "inputs": [
        {
          "internalType": "uint256",
          "name": "_tokenId",
          "type": "uint256"
        },
        {
          "internalType": "address",
          "name": "_watchmaker",
          "type": "address"
        }
      ],
      "name": "assignWatchmaker",
      "outputs": [],
      "stateMutability": "nonpayable",
      "type": "function"
    },
    {
      "inputs": [],
      "name": "auctionContract",
      "outputs": [
        {
          "internalType": "address",
          "name": "",
          "type": "address"
        }
      ],
      "stateMutability": "view",
      "type": "function"
    },
    {
      "inputs": [
        {
          "internalType": "uint256",
          "name": "_tokenId",
          "type": "uint256"
        }
      ],
      "name": "buyWatchEscrow",
      "outputs": [],
      "stateMutability": "nonpayable",
      "type": "function"
    },
    {
      "inputs": [
        {
          "internalType": "uint256",
          "name": "_tokenId",
          "type": "uint256"
        }
      ],
      "name": "cancelListing",
      "outputs": [],
      "stateMutability": "nonpayable",
      "type": "function"
    },
    {
      "inputs": [
        {
          "internalType": "bytes",
          "name": "_signature",
          "type": "bytes"
        }
      ],
      "name": "cancelMyOffer",
      "outputs": [],
      "stateMutability": "nonpayable",
      "type": "function"
    },
    {
      "inputs": [
        {
          "internalType": "uint256",
          "name": "_tokenId",
          "type": "uint256"
        }
      ],
      "name": "confirmDelivery",
      "outputs": [],
      "stateMutability": "nonpayable",
      "type": "function"
    },
    {
      "inputs": [
        {
          "internalType": "uint256",
          "name": "_tokenId",
          "type": "uint256"
        },
        {
          "internalType": "address",
          "name": "_seller",
          "type": "address"
        },
        {
          "internalType": "address",
          "name": "_buyer",
          "type": "address"
        },
        {
          "internalType": "uint256",
          "name": "_price",
          "type": "uint256"
        }
      ],
      "name": "createAuctionEscrow",
      "outputs": [],
      "stateMutability": "nonpayable",
      "type": "function"
    },
    {
      "inputs": [],
      "name": "feeRecipient",
      "outputs": [
        {
          "internalType": "address",
          "name": "",
          "type": "address"
        }
      ],
      "stateMutability": "view",
      "type": "function"
    },
    {
      "inputs": [
        {
          "internalType": "uint256",
          "name": "_tokenId",
          "type": "uint256"
        },
        {
          "internalType": "uint256",
          "name": "_price",
          "type": "uint256"
        }
      ],
      "name": "listWatch",
      "outputs": [],
      "stateMutability": "nonpayable",
      "type": "function"
    },
    {
      "inputs": [
        {
          "internalType": "uint256",
          "name": "",
          "type": "uint256"
        }
      ],
      "name": "listings",
      "outputs": [
        {
          "internalType": "address",
          "name": "seller",
          "type": "address"
        },
        {
          "internalType": "address",
          "name": "buyer",
          "type": "address"
        },
        {
          "internalType": "uint256",
          "name": "price",
          "type": "uint256"
        },
        {
          "internalType": "uint256",
          "name": "sellerDeposit",
          "type": "uint256"
        },
        {
          "internalType": "uint256",
          "name": "shippingDeadline",
          "type": "uint256"
        },
        {
          "internalType": "bool",
          "name": "isP2P",
          "type": "bool"
        },
        {
          "internalType": "bool",
          "name": "watchmakerApproved",
          "type": "bool"
        },
        {
          "internalType": "bool",
          "name": "isShipped",
          "type": "bool"
        },
        {
          "internalType": "address",
          "name": "assignedWatchmaker",
          "type": "address"
        },
        {
          "internalType": "address",
          "name": "verifyingWatchmaker",
          "type": "address"
        },
        {
          "internalType": "enum WatchMarketplace.ListingState",
          "name": "state",
          "type": "uint8"
        }
      ],
      "stateMutability": "view",
      "type": "function"
    },
    {
      "inputs": [],
      "name": "logisticsSystem",
      "outputs": [
        {
          "internalType": "address",
          "name": "",
          "type": "address"
        }
      ],
      "stateMutability": "view",
      "type": "function"
    },
    {
      "inputs": [
        {
          "internalType": "uint256",
          "name": "_tokenId",
          "type": "uint256"
        }
      ],
      "name": "markAsShipped",
      "outputs": [],
      "stateMutability": "nonpayable",
      "type": "function"
    },
    {
      "inputs": [],
      "name": "marketPlaceFeePercent",
      "outputs": [
        {
          "internalType": "uint256",
          "name": "",
          "type": "uint256"
        }
      ],
      "stateMutability": "view",
      "type": "function"
    },
    {
      "inputs": [],
      "name": "owner",
      "outputs": [
        {
          "internalType": "address",
          "name": "",
          "type": "address"
        }
      ],
      "stateMutability": "view",
      "type": "function"
    },
    {
      "inputs": [],
      "name": "pauseMarketplace",
      "outputs": [],
      "stateMutability": "nonpayable",
      "type": "function"
    },
    {
      "inputs": [],
      "name": "paused",
      "outputs": [
        {
          "internalType": "bool",
          "name": "",
          "type": "bool"
        }
      ],
      "stateMutability": "view",
      "type": "function"
    },
    {
      "inputs": [],
      "name": "paymentToken",
      "outputs": [
        {
          "internalType": "contract IERC20",
          "name": "",
          "type": "address"
        }
      ],
      "stateMutability": "view",
      "type": "function"
    },
    {
      "inputs": [
        {
          "internalType": "uint256",
          "name": "_tokenId",
          "type": "uint256"
        },
        {
          "internalType": "bool",
          "name": "punishSeller",
          "type": "bool"
        }
      ],
      "name": "refundEscrow",
      "outputs": [],
      "stateMutability": "nonpayable",
      "type": "function"
    },
    {
      "inputs": [],
      "name": "renounceOwnership",
      "outputs": [],
      "stateMutability": "nonpayable",
      "type": "function"
    },
    {
      "inputs": [],
      "name": "resumeMarketplace",
      "outputs": [],
      "stateMutability": "nonpayable",
      "type": "function"
    },
    {
      "inputs": [],
      "name": "royaltyPercent",
      "outputs": [
        {
          "internalType": "uint256",
          "name": "",
          "type": "uint256"
        }
      ],
      "stateMutability": "view",
      "type": "function"
    },
    {
      "inputs": [],
      "name": "sellerDepositPercent",
      "outputs": [
        {
          "internalType": "uint256",
          "name": "",
          "type": "uint256"
        }
      ],
      "stateMutability": "view",
      "type": "function"
    },
    {
      "inputs": [
        {
          "internalType": "address",
          "name": "_auctionContract",
          "type": "address"
        }
      ],
      "name": "setAuctionContract",
      "outputs": [],
      "stateMutability": "nonpayable",
      "type": "function"
    },
    {
      "inputs": [
        {
          "internalType": "uint256",
          "name": "_market",
          "type": "uint256"
        },
        {
          "internalType": "uint256",
          "name": "_royalty",
          "type": "uint256"
        },
        {
          "internalType": "uint256",
          "name": "_wm",
          "type": "uint256"
        },
        {
          "internalType": "uint256",
          "name": "_deposit",
          "type": "uint256"
        }
      ],
      "name": "setFees",
      "outputs": [],
      "stateMutability": "nonpayable",
      "type": "function"
    },
    {
      "inputs": [
        {
          "internalType": "address",
          "name": "_systemAddress",
          "type": "address"
        }
      ],
      "name": "setLogisticsSystem",
      "outputs": [],
      "stateMutability": "nonpayable",
      "type": "function"
    },
    {
      "inputs": [
        {
          "internalType": "address",
          "name": "_verifierAddress",
          "type": "address"
        }
      ],
      "name": "setSignatureVerifier",
      "outputs": [],
      "stateMutability": "nonpayable",
      "type": "function"
    },
    {
      "inputs": [
        {
          "internalType": "address",
          "name": "newOwner",
          "type": "address"
        }
      ],
      "name": "transferOwnership",
      "outputs": [],
      "stateMutability": "nonpayable",
      "type": "function"
    },
    {
      "inputs": [
        {
          "internalType": "address",
          "name": "_newRecipient",
          "type": "address"
        }
      ],
      "name": "updateFeeRecipient",
      "outputs": [],
      "stateMutability": "nonpayable",
      "type": "function"
    },
    {
      "inputs": [
        {
          "internalType": "uint256",
          "name": "_tokenId",
          "type": "uint256"
        },
        {
          "internalType": "uint256",
          "name": "_newPrice",
          "type": "uint256"
        }
      ],
      "name": "updateListingPrice",
      "outputs": [],
      "stateMutability": "nonpayable",
      "type": "function"
    },
    {
      "inputs": [
        {
          "internalType": "bytes32",
          "name": "",
          "type": "bytes32"
        }
      ],
      "name": "usedSignatures",
      "outputs": [
        {
          "internalType": "bool",
          "name": "",
          "type": "bool"
        }
      ],
      "stateMutability": "view",
      "type": "function"
    },
    {
      "inputs": [
        {
          "internalType": "uint256",
          "name": "_tokenId",
          "type": "uint256"
        },
        {
          "internalType": "bool",
          "name": "_isAuthentic",
          "type": "bool"
        }
      ],
      "name": "verifyAuthenticity",
      "outputs": [],
      "stateMutability": "nonpayable",
      "type": "function"
    },
    {
      "inputs": [],
      "name": "watchNFT",
      "outputs": [
        {
          "internalType": "contract WatchNFT",
          "name": "",
          "type": "address"
        }
      ],
      "stateMutability": "view",
      "type": "function"
    },
    {
      "inputs": [],
      "name": "watchmakerFeePercent",
      "outputs": [
        {
          "internalType": "uint256",
          "name": "",
          "type": "uint256"
        }
      ],
      "stateMutability": "view",
      "type": "function"
    }
  ],
  "bytecode": "0x60806040526096600455606460055560c860065560c8600755348015610023575f5ffd5b50604051615f0a380380615f0a833981810160405281019061004591906103cc565b335f73ffffffffffffffffffffffffffffffffffffffff168173ffffffffffffffffffffffffffffffffffffffff16036100b6575f6040517f1e4fbdf70000000000000000000000000000000000000000000000000000000081526004016100ad9190610419565b60405180910390fd5b6100c58161027b60201b60201c565b5060016100e46100d961033c60201b60201c565b61036560201b60201c565b5f01819055505f73ffffffffffffffffffffffffffffffffffffffff168273ffffffffffffffffffffffffffffffffffffffff160361014f576040517fe6c4247b00000000000000000000000000000000000000000000000000000000815260040160405180910390fd5b5f73ffffffffffffffffffffffffffffffffffffffff168173ffffffffffffffffffffffffffffffffffffffff16036101b4576040517fe6c4247b00000000000000000000000000000000000000000000000000000000815260040160405180910390fd5b8160015f6101000a81548173ffffffffffffffffffffffffffffffffffffffff021916908373ffffffffffffffffffffffffffffffffffffffff1602179055508060025f6101000a81548173ffffffffffffffffffffffffffffffffffffffff021916908373ffffffffffffffffffffffffffffffffffffffff1602179055503360085f6101000a81548173ffffffffffffffffffffffffffffffffffffffff021916908373ffffffffffffffffffffffffffffffffffffffff1602179055505050610432565b5f5f5f9054906101000a900473ffffffffffffffffffffffffffffffffffffffff169050815f5f6101000a81548173ffffffffffffffffffffffffffffffffffffffff021916908373ffffffffffffffffffffffffffffffffffffffff1602179055508173ffffffffffffffffffffffffffffffffffffffff168173ffffffffffffffffffffffffffffffffffffffff167f8be0079c531659141344cd1fd0a4f28419497f9722a3daafe3b4186f6b6457e060405160405180910390a35050565b5f7f9b779b17422d0df92223018b32b4d1fa46e071723d6817e2486d003becc55f005f1b905090565b5f819050919050565b5f5ffd5b5f73ffffffffffffffffffffffffffffffffffffffff82169050919050565b5f61039b82610372565b9050919050565b6103ab81610391565b81146103b5575f5ffd5b50565b5f815190506103c6816103a2565b92915050565b5f5f604083850312156103e2576103e161036e565b5b5f6103ef858286016103b8565b9250506020610400858286016103b8565b9150509250929050565b61041381610391565b82525050565b5f60208201905061042c5f83018461040a565b92915050565b615acb8061043f5f395ff3fe608060405234801561000f575f5ffd5b506004361061021a575f3560e01c806384874eb811610123578063de74e57b116100ab578063f2fde38b1161007a578063f2fde38b14610580578063f6a03b271461059c578063f978fd61146105b8578063fd84cb97146105e8578063fde919f6146106045761021a565b8063de74e57b146104f0578063e08a66051461052a578063e3d20a3614610546578063f160d369146105645761021a565b8063a30379b8116100f2578063a30379b814610464578063a626a68214610480578063bd99840e1461049c578063c4604943146104b8578063cd88c828146104d45761021a565b806384874eb8146104005780638da5cb5b1461041e578063941fdbfe1461043c5780639f67756d146104465761021a565b806346431a56116101a65780635baef4ac116101755780635baef4ac146103805780635c975abb1461039e5780636fcba377146103bc578063715018a6146103d857806379ee4e36146103e25761021a565b806346431a561461030c5780634690484014610328578063592c7f0a146103465780635a3c88ea146103645761021a565b806328596a58116101ed57806328596a58146102905780633013ce29146102ac578063305a67a8146102ca5780633ec62279146102e6578063409b8c94146102f05761021a565b8063023924c71461021e57806305f1fb281461023a5780630ab8afac14610256578063158cfe9714610274575b5f5ffd5b61023860048036038101906102339190614e19565b610622565b005b610254600480360381019061024f9190614e77565b6106d2565b005b61025e6108b3565b60405161026b9190614eea565b60405180910390f35b61028e6004803603810190610289919061503f565b6108d8565b005b6102aa60048036038101906102a59190615086565b610910565b005b6102b4610aaf565b6040516102c1919061511f565b60405180910390f35b6102e460048036038101906102df9190615138565b610ad4565b005b6102ee610d3e565b005b61030a60048036038101906103059190615198565b610d50565b005b610326600480360381019061032191906151d6565b6113c4565b005b610330611c4b565b60405161033d9190614eea565b60405180910390f35b61034e611c70565b60405161035b9190615223565b60405180910390f35b61037e60048036038101906103799190615138565b611c76565b005b61038861241a565b604051610395919061525c565b60405180910390f35b6103a661243f565b6040516103b39190615284565b60405180910390f35b6103d660048036038101906103d1919061529d565b612454565b005b6103e06124dd565b005b6103ea6124f0565b6040516103f79190615223565b60405180910390f35b6104086124f6565b6040516104159190615223565b60405180910390f35b6104266124fc565b6040516104339190614eea565b60405180910390f35b610444612523565b005b61044e612535565b60405161045b9190615223565b60405180910390f35b61047e60048036038101906104799190615301565b61253b565b005b61049a60048036038101906104959190614e19565b612bba565b005b6104b660048036038101906104b19190615138565b612c6a565b005b6104d260048036038101906104cd91906151d6565b612e09565b005b6104ee60048036038101906104e99190615138565b612f9c565b005b61050a60048036038101906105059190615138565b613459565b6040516105219b9a99989796959493929190615407565b60405180910390f35b610544600480360381019061053f9190614e19565b61355f565b005b61054e61360f565b60405161055b9190614eea565b60405180910390f35b61057e60048036038101906105799190614e19565b613634565b005b61059a60048036038101906105959190614e19565b61371b565b005b6105b660048036038101906105b19190615198565b61379f565b005b6105d260048036038101906105cd91906154e3565b613f8a565b6040516105df9190615284565b60405180910390f35b61060260048036038101906105fd9190615138565b613fa7565b005b61060c614a2b565b604051610619919061552e565b60405180910390f35b61062a614a50565b5f73ffffffffffffffffffffffffffffffffffffffff168173ffffffffffffffffffffffffffffffffffffffff160361068f576040517fe6c4247b00000000000000000000000000000000000000000000000000000000815260040160405180910390fd5b80600a5f6101000a81548173ffffffffffffffffffffffffffffffffffffffff021916908373ffffffffffffffffffffffffffffffffffffffff16021790555050565b600a5f9054906101000a900473ffffffffffffffffffffffffffffffffffffffff1673ffffffffffffffffffffffffffffffffffffffff163373ffffffffffffffffffffffffffffffffffffffff1614610758576040517f82b4290000000000000000000000000000000000000000000000000000000000815260040160405180910390fd5b5f600b5f8681526020019081526020015f20905083815f015f6101000a81548173ffffffffffffffffffffffffffffffffffffffff021916908373ffffffffffffffffffffffffffffffffffffffff16021790555082816001015f6101000a81548173ffffffffffffffffffffffffffffffffffffffff021916908373ffffffffffffffffffffffffffffffffffffffff16021790555081816002018190555060028160060160146101000a81548160ff021916908360028111156108205761081f615394565b5b021790555060018160050160016101000a81548160ff0219169083151502179055505f816005015f6101000a81548160ff0219169083151502179055508273ffffffffffffffffffffffffffffffffffffffff16857f2662de1021999d111db09723c07dc9b40847f2054ef3ef7912a31446531c4503846040516108a49190615223565b60405180910390a35050505050565b600a5f9054906101000a900473ffffffffffffffffffffffffffffffffffffffff1681565b5f818051906020012090506001600c5f8381526020019081526020015f205f6101000a81548160ff0219169083151502179055505050565b60095f9054906101000a900473ffffffffffffffffffffffffffffffffffffffff1673ffffffffffffffffffffffffffffffffffffffff163373ffffffffffffffffffffffffffffffffffffffff1614610996576040517f82b4290000000000000000000000000000000000000000000000000000000000815260040160405180910390fd5b6002808111156109a9576109a8615394565b5b600b5f8481526020019081526020015f2060060160149054906101000a900460ff1660028111156109dd576109dc615394565b5b14610a14576040517f9ce8b72100000000000000000000000000000000000000000000000000000000815260040160405180910390fd5b80600b5f8481526020019081526020015f2060050160036101000a81548173ffffffffffffffffffffffffffffffffffffffff021916908373ffffffffffffffffffffffffffffffffffffffff1602179055508073ffffffffffffffffffffffffffffffffffffffff16827f5cd02397af3c9df12becbe41d4e442bd7cbc8c84f4dae3ceb4d985f93c68808a60405160405180910390a35050565b60025f9054906101000a900473ffffffffffffffffffffffffffffffffffffffff1681565b610adc614ad7565b5f600b5f8381526020019081526020015f2090503373ffffffffffffffffffffffffffffffffffffffff16815f015f9054906101000a900473ffffffffffffffffffffffffffffffffffffffff1673ffffffffffffffffffffffffffffffffffffffff1614610b77576040517f82b4290000000000000000000000000000000000000000000000000000000000815260040160405180910390fd5b60016002811115610b8b57610b8a615394565b5b8160060160149054906101000a900460ff166002811115610baf57610bae615394565b5b14610be6576040517faa41c14700000000000000000000000000000000000000000000000000000000815260040160405180910390fd5b600b5f8381526020019081526020015f205f5f82015f6101000a81549073ffffffffffffffffffffffffffffffffffffffff0219169055600182015f6101000a81549073ffffffffffffffffffffffffffffffffffffffff0219169055600282015f9055600382015f9055600482015f9055600582015f6101000a81549060ff02191690556005820160016101000a81549060ff02191690556005820160026101000a81549060ff02191690556005820160036101000a81549073ffffffffffffffffffffffffffffffffffffffff0219169055600682015f6101000a81549073ffffffffffffffffffffffffffffffffffffffff02191690556006820160146101000a81549060ff021916905550503373ffffffffffffffffffffffffffffffffffffffff16827f8e25282255ab31897df2b0456bb993ac7f84d376861aefd84901d2d63a7428a260405160405180910390a35050565b610d46614a50565b610d4e614b18565b565b610d58614ad7565b610d60614b7a565b5f600b5f8481526020019081526020015f209050600280811115610d8757610d86615394565b5b8160060160149054906101000a900460ff166002811115610dab57610daa615394565b5b14610de2576040517faa41c14700000000000000000000000000000000000000000000000000000000815260040160405180910390fd5b610dea6124fc565b73ffffffffffffffffffffffffffffffffffffffff163373ffffffffffffffffffffffffffffffffffffffff1614158015610e72575060095f9054906101000a900473ffffffffffffffffffffffffffffffffffffffff1673ffffffffffffffffffffffffffffffffffffffff163373ffffffffffffffffffffffffffffffffffffffff1614155b15610ea9576040517f82b4290000000000000000000000000000000000000000000000000000000000815260040160405180910390fd5b5f816001015f9054906101000a900473ffffffffffffffffffffffffffffffffffffffff1690505f825f015f9054906101000a900473ffffffffffffffffffffffffffffffffffffffff1690505f836002015490505f84600301549050600b5f8881526020019081526020015f205f5f82015f6101000a81549073ffffffffffffffffffffffffffffffffffffffff0219169055600182015f6101000a81549073ffffffffffffffffffffffffffffffffffffffff0219169055600282015f9055600382015f9055600482015f9055600582015f6101000a81549060ff02191690556005820160016101000a81549060ff02191690556005820160026101000a81549060ff02191690556005820160036101000a81549073ffffffffffffffffffffffffffffffffffffffff0219169055600682015f6101000a81549073ffffffffffffffffffffffffffffffffffffffff02191690556006820160146101000a81549060ff0219169055505060025f9054906101000a900473ffffffffffffffffffffffffffffffffffffffff1673ffffffffffffffffffffffffffffffffffffffff1663a9059cbb85846040518363ffffffff1660e01b8152600401611072929190615547565b6020604051808303815f875af115801561108e573d5f5f3e3d5ffd5b505050506040513d601f19601f820116820180604052508101906110b29190615582565b6110e8576040517f90b8ec1800000000000000000000000000000000000000000000000000000000815260040160405180910390fd5b5f8111156112c25785156111ee5760025f9054906101000a900473ffffffffffffffffffffffffffffffffffffffff1673ffffffffffffffffffffffffffffffffffffffff1663a9059cbb60085f9054906101000a900473ffffffffffffffffffffffffffffffffffffffff16836040518363ffffffff1660e01b8152600401611173929190615547565b6020604051808303815f875af115801561118f573d5f5f3e3d5ffd5b505050506040513d601f19601f820116820180604052508101906111b39190615582565b6111e9576040517f90b8ec1800000000000000000000000000000000000000000000000000000000815260040160405180910390fd5b6112c1565b60025f9054906101000a900473ffffffffffffffffffffffffffffffffffffffff1673ffffffffffffffffffffffffffffffffffffffff1663a9059cbb84836040518363ffffffff1660e01b815260040161124a929190615547565b6020604051808303815f875af1158015611266573d5f5f3e3d5ffd5b505050506040513d601f19601f8201168201806040525081019061128a9190615582565b6112c0576040517f90b8ec1800000000000000000000000000000000000000000000000000000000815260040160405180910390fd5b5b5b60015f9054906101000a900473ffffffffffffffffffffffffffffffffffffffff1673ffffffffffffffffffffffffffffffffffffffff166323b872dd30858a6040518463ffffffff1660e01b8152600401611320939291906155ad565b5f604051808303815f87803b158015611337575f5ffd5b505af1158015611349573d5f5f3e3d5ffd5b505050508273ffffffffffffffffffffffffffffffffffffffff168473ffffffffffffffffffffffffffffffffffffffff16887f469dcfeabdfb097901614c8b01cc632c073274fd19f39b9b64e2d72a2f0ab99b856040516113ab9190615223565b60405180910390a450505050506113c0614b9c565b5050565b6113cc614ad7565b6113d4614b7a565b5f810361140c576040517ebfc92100000000000000000000000000000000000000000000000000000000815260040160405180910390fd5b3373ffffffffffffffffffffffffffffffffffffffff1660015f9054906101000a900473ffffffffffffffffffffffffffffffffffffffff1673ffffffffffffffffffffffffffffffffffffffff16636352211e846040518263ffffffff1660e01b815260040161147d9190615223565b602060405180830381865afa158015611498573d5f5f3e3d5ffd5b505050506040513d601f19601f820116820180604052508101906114bc91906155f6565b73ffffffffffffffffffffffffffffffffffffffff1614611509576040517f30cd747100000000000000000000000000000000000000000000000000000000815260040160405180910390fd5b5f600281111561151c5761151b615394565b5b600b5f8481526020019081526020015f2060060160149054906101000a900460ff1660028111156115505761154f615394565b5b14611587576040517fa3d582ec00000000000000000000000000000000000000000000000000000000815260040160405180910390fd5b3073ffffffffffffffffffffffffffffffffffffffff1660015f9054906101000a900473ffffffffffffffffffffffffffffffffffffffff1673ffffffffffffffffffffffffffffffffffffffff1663081812fc846040518263ffffffff1660e01b81526004016115f89190615223565b602060405180830381865afa158015611613573d5f5f3e3d5ffd5b505050506040513d601f19601f8201168201806040525081019061163791906155f6565b73ffffffffffffffffffffffffffffffffffffffff1614806116f0575060015f9054906101000a900473ffffffffffffffffffffffffffffffffffffffff1673ffffffffffffffffffffffffffffffffffffffff1663e985e9c533306040518363ffffffff1660e01b81526004016116b0929190615621565b602060405180830381865afa1580156116cb573d5f5f3e3d5ffd5b505050506040513d601f19601f820116820180604052508101906116ef9190615582565b5b611726576040517fa9248d2500000000000000000000000000000000000000000000000000000000815260040160405180910390fd5b5f60015f9054906101000a900473ffffffffffffffffffffffffffffffffffffffff1673ffffffffffffffffffffffffffffffffffffffff16637e7892ad846040518263ffffffff1660e01b81526004016117819190615223565b5f60405180830381865afa15801561179b573d5f5f3e3d5ffd5b505050506040513d5f823e3d601f19601f820116820180604052508101906117c3919061584c565b90505f8160a0015160048111156117dd576117dc615394565b5b14611814576040517f5537533e00000000000000000000000000000000000000000000000000000000815260040160405180910390fd5b5f60015f9054906101000a900473ffffffffffffffffffffffffffffffffffffffff1673ffffffffffffffffffffffffffffffffffffffff1663a7c4af80336040518263ffffffff1660e01b815260040161186f9190614eea565b602060405180830381865afa15801561188a573d5f5f3e3d5ffd5b505050506040513d601f19601f820116820180604052508101906118ae9190615582565b8061194e575060015f9054906101000a900473ffffffffffffffffffffffffffffffffffffffff1673ffffffffffffffffffffffffffffffffffffffff166324b04245336040518263ffffffff1660e01b815260040161190e9190614eea565b602060405180830381865afa158015611929573d5f5f3e3d5ffd5b505050506040513d601f19601f8201168201806040525081019061194d9190615582565b5b90505f811590506040518061016001604052803373ffffffffffffffffffffffffffffffffffffffff1681526020015f73ffffffffffffffffffffffffffffffffffffffff1681526020018581526020015f81526020015f8152602001821515815260200183151581526020015f151581526020015f73ffffffffffffffffffffffffffffffffffffffff1681526020015f73ffffffffffffffffffffffffffffffffffffffff16815260200160016002811115611a0f57611a0e615394565b5b815250600b5f8781526020019081526020015f205f820151815f015f6101000a81548173ffffffffffffffffffffffffffffffffffffffff021916908373ffffffffffffffffffffffffffffffffffffffff1602179055506020820151816001015f6101000a81548173ffffffffffffffffffffffffffffffffffffffff021916908373ffffffffffffffffffffffffffffffffffffffff16021790555060408201518160020155606082015181600301556080820151816004015560a0820151816005015f6101000a81548160ff02191690831515021790555060c08201518160050160016101000a81548160ff02191690831515021790555060e08201518160050160026101000a81548160ff0219169083151502179055506101008201518160050160036101000a81548173ffffffffffffffffffffffffffffffffffffffff021916908373ffffffffffffffffffffffffffffffffffffffff160217905550610120820151816006015f6101000a81548173ffffffffffffffffffffffffffffffffffffffff021916908373ffffffffffffffffffffffffffffffffffffffff1602179055506101408201518160060160146101000a81548160ff02191690836002811115611be557611be4615394565b5b02179055509050503373ffffffffffffffffffffffffffffffffffffffff16857ff5808f80cabd6e9e5fdb4c9b558ea920d9261a8b12265368808c7dc6fbdd960986604051611c349190615223565b60405180910390a3505050611c47614b9c565b5050565b60085f9054906101000a900473ffffffffffffffffffffffffffffffffffffffff1681565b60045481565b611c7e614ad7565b611c86614b7a565b5f600b5f8381526020019081526020015f209050600280811115611cad57611cac615394565b5b8160060160149054906101000a900460ff166002811115611cd157611cd0615394565b5b14611d08576040517f9ce8b72100000000000000000000000000000000000000000000000000000000815260040160405180910390fd5b3373ffffffffffffffffffffffffffffffffffffffff16815f015f9054906101000a900473ffffffffffffffffffffffffffffffffffffffff1673ffffffffffffffffffffffffffffffffffffffff1614611d8f576040517f82b4290000000000000000000000000000000000000000000000000000000000815260040160405180910390fd5b5f816001015f9054906101000a900473ffffffffffffffffffffffffffffffffffffffff1690505f825f015f9054906101000a900473ffffffffffffffffffffffffffffffffffffffff1690505f836002015490505f846003015490505f5f90505f866006015f9054906101000a900473ffffffffffffffffffffffffffffffffffffffff169050866005015f9054906101000a900460ff168015611e4257508660050160019054906101000a900460ff165b8015611e7a57505f73ffffffffffffffffffffffffffffffffffffffff168173ffffffffffffffffffffffffffffffffffffffff1614155b15611e9d5761271060065485611e9091906158c0565b611e9a919061592e565b91505b600b5f8981526020019081526020015f205f5f82015f6101000a81549073ffffffffffffffffffffffffffffffffffffffff0219169055600182015f6101000a81549073ffffffffffffffffffffffffffffffffffffffff0219169055600282015f9055600382015f9055600482015f9055600582015f6101000a81549060ff02191690556005820160016101000a81549060ff02191690556005820160026101000a81549060ff02191690556005820160036101000a81549073ffffffffffffffffffffffffffffffffffffffff0219169055600682015f6101000a81549073ffffffffffffffffffffffffffffffffffffffff02191690556006820160146101000a81549060ff021916905550505f8211156121695760025f9054906101000a900473ffffffffffffffffffffffffffffffffffffffff1673ffffffffffffffffffffffffffffffffffffffff1663a9059cbb82846040518363ffffffff1660e01b8152600401612011929190615547565b6020604051808303815f875af115801561202d573d5f5f3e3d5ffd5b505050506040513d601f19601f820116820180604052508101906120519190615582565b612087576040517f90b8ec1800000000000000000000000000000000000000000000000000000000815260040160405180910390fd5b60025f9054906101000a900473ffffffffffffffffffffffffffffffffffffffff1673ffffffffffffffffffffffffffffffffffffffff1663a9059cbb8784876120d1919061595e565b6040518363ffffffff1660e01b81526004016120ee929190615547565b6020604051808303815f875af115801561210a573d5f5f3e3d5ffd5b505050506040513d601f19601f8201168201806040525081019061212e9190615582565b612164576040517f90b8ec1800000000000000000000000000000000000000000000000000000000815260040160405180910390fd5b61223c565b60025f9054906101000a900473ffffffffffffffffffffffffffffffffffffffff1673ffffffffffffffffffffffffffffffffffffffff1663a9059cbb87866040518363ffffffff1660e01b81526004016121c5929190615547565b6020604051808303815f875af11580156121e1573d5f5f3e3d5ffd5b505050506040513d601f19601f820116820180604052508101906122059190615582565b61223b576040517f90b8ec1800000000000000000000000000000000000000000000000000000000815260040160405180910390fd5b5b5f8311156123175760025f9054906101000a900473ffffffffffffffffffffffffffffffffffffffff1673ffffffffffffffffffffffffffffffffffffffff1663a9059cbb86856040518363ffffffff1660e01b81526004016122a0929190615547565b6020604051808303815f875af11580156122bc573d5f5f3e3d5ffd5b505050506040513d601f19601f820116820180604052508101906122e09190615582565b612316576040517f90b8ec1800000000000000000000000000000000000000000000000000000000815260040160405180910390fd5b5b60015f9054906101000a900473ffffffffffffffffffffffffffffffffffffffff1673ffffffffffffffffffffffffffffffffffffffff166323b872dd30878b6040518463ffffffff1660e01b8152600401612375939291906155ad565b5f604051808303815f87803b15801561238c575f5ffd5b505af115801561239e573d5f5f3e3d5ffd5b505050508473ffffffffffffffffffffffffffffffffffffffff168673ffffffffffffffffffffffffffffffffffffffff16897f469dcfeabdfb097901614c8b01cc632c073274fd19f39b9b64e2d72a2f0ab99b876040516124009190615223565b60405180910390a450505050505050612417614b9c565b50565b60015f9054906101000a900473ffffffffffffffffffffffffffffffffffffffff1681565b5f5f60149054906101000a900460ff16905090565b61245c614a50565b6103e884118061246d57506103e883115b8061247957506101f482115b8061248557506101f481115b156124bb576040517ebfc92100000000000000000000000000000000000000000000000000000000815260040160405180910390fd5b8360048190555082600581905550816006819055508060078190555050505050565b6124e5614a50565b6124ee5f614bb6565b565b60075481565b60065481565b5f5f5f9054906101000a900473ffffffffffffffffffffffffffffffffffffffff16905090565b61252b614a50565b612533614c77565b565b60055481565b612543614ad7565b61254b614b7a565b5f600b5f8781526020019081526020015f2090506001600281111561257357612572615394565b5b8160060160149054906101000a900460ff16600281111561259757612596615394565b5b146125ce576040517faa41c14700000000000000000000000000000000000000000000000000000000815260040160405180910390fd5b3373ffffffffffffffffffffffffffffffffffffffff16815f015f9054906101000a900473ffffffffffffffffffffffffffffffffffffffff1673ffffffffffffffffffffffffffffffffffffffff1614612655576040517f82b4290000000000000000000000000000000000000000000000000000000000815260040160405180910390fd5b3373ffffffffffffffffffffffffffffffffffffffff168573ffffffffffffffffffffffffffffffffffffffff16036126ba576040517fcb01f96a00000000000000000000000000000000000000000000000000000000815260040160405180910390fd5b824211156126f4576040517f8baa579f00000000000000000000000000000000000000000000000000000000815260040160405180910390fd5b5f82805190602001209050600c5f8281526020019081526020015f205f9054906101000a900460ff1615612754576040517f8baa579f00000000000000000000000000000000000000000000000000000000815260040160405180910390fd5b5f60035f9054906101000a900473ffffffffffffffffffffffffffffffffffffffff1673ffffffffffffffffffffffffffffffffffffffff1663a590928d888a8989896040518663ffffffff1660e01b81526004016127b79594939291906159e3565b602060405180830381865afa1580156127d2573d5f5f3e3d5ffd5b505050506040513d601f19601f820116820180604052508101906127f69190615582565b90508061282f576040517f8baa579f00000000000000000000000000000000000000000000000000000000815260040160405180910390fd5b6001600c5f8481526020019081526020015f205f6101000a81548160ff02191690831515021790555086836001015f6101000a81548173ffffffffffffffffffffffffffffffffffffffff021916908373ffffffffffffffffffffffffffffffffffffffff16021790555085836002018190555060028360060160146101000a81548160ff021916908360028111156128cb576128ca615394565b5b0217905550826005015f9054906101000a900460ff16156129fa575f612710600754886128f891906158c0565b612902919061592e565b9050808460030181905550620697804261291c9190615a3b565b846004018190555060025f9054906101000a900473ffffffffffffffffffffffffffffffffffffffff1673ffffffffffffffffffffffffffffffffffffffff166323b872dd3330846040518463ffffffff1660e01b8152600401612982939291906155ad565b6020604051808303815f875af115801561299e573d5f5f3e3d5ffd5b505050506040513d601f19601f820116820180604052508101906129c29190615582565b6129f8576040517f90b8ec1800000000000000000000000000000000000000000000000000000000815260040160405180910390fd5b505b60025f9054906101000a900473ffffffffffffffffffffffffffffffffffffffff1673ffffffffffffffffffffffffffffffffffffffff166323b872dd8830896040518463ffffffff1660e01b8152600401612a58939291906155ad565b6020604051808303815f875af1158015612a74573d5f5f3e3d5ffd5b505050506040513d601f19601f82011682018060405250810190612a989190615582565b612ace576040517f90b8ec1800000000000000000000000000000000000000000000000000000000815260040160405180910390fd5b60015f9054906101000a900473ffffffffffffffffffffffffffffffffffffffff1673ffffffffffffffffffffffffffffffffffffffff166323b872dd33308b6040518463ffffffff1660e01b8152600401612b2c939291906155ad565b5f604051808303815f87803b158015612b43575f5ffd5b505af1158015612b55573d5f5f3e3d5ffd5b505050508673ffffffffffffffffffffffffffffffffffffffff16887f2662de1021999d111db09723c07dc9b40847f2054ef3ef7912a31446531c450388604051612ba09190615223565b60405180910390a3505050612bb3614b9c565b5050505050565b612bc2614a50565b5f73ffffffffffffffffffffffffffffffffffffffff168173ffffffffffffffffffffffffffffffffffffffff1603612c27576040517fe6c4247b00000000000000000000000000000000000000000000000000000000815260040160405180910390fd5b8060095f6101000a81548173ffffffffffffffffffffffffffffffffffffffff021916908373ffffffffffffffffffffffffffffffffffffffff16021790555050565b60095f9054906101000a900473ffffffffffffffffffffffffffffffffffffffff1673ffffffffffffffffffffffffffffffffffffffff163373ffffffffffffffffffffffffffffffffffffffff1614612cf0576040517f7817702700000000000000000000000000000000000000000000000000000000815260040160405180910390fd5b5f600b5f8381526020019081526020015f209050600280811115612d1757612d16615394565b5b8160060160149054906101000a900460ff166002811115612d3b57612d3a615394565b5b14612d72576040517f9ce8b72100000000000000000000000000000000000000000000000000000000815260040160405180910390fd5b8060050160029054906101000a900460ff1615612dbb576040517f86dfc9e500000000000000000000000000000000000000000000000000000000815260040160405180910390fd5b60018160050160026101000a81548160ff021916908315150217905550817f0ed4077f3b9cc367bc77e8a2cff86f30075ed708a0ae9d5b0cd8d51a0a2f63c860405160405180910390a25050565b5f600b5f8481526020019081526020015f2090503373ffffffffffffffffffffffffffffffffffffffff16815f015f9054906101000a900473ffffffffffffffffffffffffffffffffffffffff1673ffffffffffffffffffffffffffffffffffffffff1614612ea4576040517f82b4290000000000000000000000000000000000000000000000000000000000815260040160405180910390fd5b5f8203612edc576040517ebfc92100000000000000000000000000000000000000000000000000000000815260040160405180910390fd5b60016002811115612ef057612eef615394565b5b8160060160149054906101000a900460ff166002811115612f1457612f13615394565b5b14612f4b576040517faa41c14700000000000000000000000000000000000000000000000000000000815260040160405180910390fd5b5f81600201549050828260020181905550837f36cfe22dfcf2d3781d9de6b307d67a5431b45492dad5e70e53dd4af34c25b8498285604051612f8e929190615a6e565b60405180910390a250505050565b612fa4614ad7565b612fac614b7a565b5f600b5f8381526020019081526020015f20905060016002811115612fd457612fd3615394565b5b8160060160149054906101000a900460ff166002811115612ff857612ff7615394565b5b1461302f576040517faa41c14700000000000000000000000000000000000000000000000000000000815260040160405180910390fd5b3373ffffffffffffffffffffffffffffffffffffffff16815f015f9054906101000a900473ffffffffffffffffffffffffffffffffffffffff1673ffffffffffffffffffffffffffffffffffffffff16036130b6576040517fcb01f96a00000000000000000000000000000000000000000000000000000000815260040160405180910390fd5b806005015f9054906101000a900460ff1615613206575f61271060075483600201546130e291906158c0565b6130ec919061592e565b905080826003018190555062069780426131069190615a3b565b826004018190555060025f9054906101000a900473ffffffffffffffffffffffffffffffffffffffff1673ffffffffffffffffffffffffffffffffffffffff166323b872dd835f015f9054906101000a900473ffffffffffffffffffffffffffffffffffffffff1630846040518463ffffffff1660e01b815260040161318e939291906155ad565b6020604051808303815f875af11580156131aa573d5f5f3e3d5ffd5b505050506040513d601f19601f820116820180604052508101906131ce9190615582565b613204576040517f90b8ec1800000000000000000000000000000000000000000000000000000000815260040160405180910390fd5b505b60025f9054906101000a900473ffffffffffffffffffffffffffffffffffffffff1673ffffffffffffffffffffffffffffffffffffffff166323b872dd333084600201546040518463ffffffff1660e01b8152600401613268939291906155ad565b6020604051808303815f875af1158015613284573d5f5f3e3d5ffd5b505050506040513d601f19601f820116820180604052508101906132a89190615582565b6132de576040517f90b8ec1800000000000000000000000000000000000000000000000000000000815260040160405180910390fd5b33816001015f6101000a81548173ffffffffffffffffffffffffffffffffffffffff021916908373ffffffffffffffffffffffffffffffffffffffff16021790555060028160060160146101000a81548160ff0219169083600281111561334857613347615394565b5b021790555060015f9054906101000a900473ffffffffffffffffffffffffffffffffffffffff1673ffffffffffffffffffffffffffffffffffffffff166323b872dd825f015f9054906101000a900473ffffffffffffffffffffffffffffffffffffffff1630856040518463ffffffff1660e01b81526004016133cd939291906155ad565b5f604051808303815f87803b1580156133e4575f5ffd5b505af11580156133f6573d5f5f3e3d5ffd5b505050503373ffffffffffffffffffffffffffffffffffffffff16827f2662de1021999d111db09723c07dc9b40847f2054ef3ef7912a31446531c450383600201546040516134459190615223565b60405180910390a350613456614b9c565b50565b600b602052805f5260405f205f91509050805f015f9054906101000a900473ffffffffffffffffffffffffffffffffffffffff1690806001015f9054906101000a900473ffffffffffffffffffffffffffffffffffffffff1690806002015490806003015490806004015490806005015f9054906101000a900460ff16908060050160019054906101000a900460ff16908060050160029054906101000a900460ff16908060050160039054906101000a900473ffffffffffffffffffffffffffffffffffffffff1690806006015f9054906101000a900473ffffffffffffffffffffffffffffffffffffffff16908060060160149054906101000a900460ff1690508b565b613567614a50565b5f73ffffffffffffffffffffffffffffffffffffffff168173ffffffffffffffffffffffffffffffffffffffff16036135cc576040517fe6c4247b00000000000000000000000000000000000000000000000000000000815260040160405180910390fd5b8060035f6101000a81548173ffffffffffffffffffffffffffffffffffffffff021916908373ffffffffffffffffffffffffffffffffffffffff16021790555050565b60095f9054906101000a900473ffffffffffffffffffffffffffffffffffffffff1681565b61363c614a50565b5f73ffffffffffffffffffffffffffffffffffffffff168173ffffffffffffffffffffffffffffffffffffffff16036136a1576040517fe6c4247b00000000000000000000000000000000000000000000000000000000815260040160405180910390fd5b8060085f6101000a81548173ffffffffffffffffffffffffffffffffffffffff021916908373ffffffffffffffffffffffffffffffffffffffff1602179055507f7a7b5a0a132f9e0581eb8527f66eae9ee89c2a3e79d4ac7e41a1f1f4d48a7fc2816040516137109190614eea565b60405180910390a150565b613723614a50565b5f73ffffffffffffffffffffffffffffffffffffffff168173ffffffffffffffffffffffffffffffffffffffff1603613793575f6040517f1e4fbdf700000000000000000000000000000000000000000000000000000000815260040161378a9190614eea565b60405180910390fd5b61379c81614bb6565b50565b6137a7614ad7565b6137af614b7a565b5f600b5f8481526020019081526020015f2090506002808111156137d6576137d5615394565b5b8160060160149054906101000a900460ff1660028111156137fa576137f9615394565b5b14613831576040517f9ce8b72100000000000000000000000000000000000000000000000000000000815260040160405180910390fd5b8060050160029054906101000a900460ff16613879576040517fb9fca4ec00000000000000000000000000000000000000000000000000000000815260040160405180910390fd5b8060050160039054906101000a900473ffffffffffffffffffffffffffffffffffffffff1673ffffffffffffffffffffffffffffffffffffffff163373ffffffffffffffffffffffffffffffffffffffff1614613902576040517fc9bc72d300000000000000000000000000000000000000000000000000000000815260040160405180910390fd5b5f612710600654836002015461391891906158c0565b613922919061592e565b905082156139d25760018260050160016101000a81548160ff02191690831515021790555033826006015f6101000a81548173ffffffffffffffffffffffffffffffffffffffff021916908373ffffffffffffffffffffffffffffffffffffffff1602179055503373ffffffffffffffffffffffffffffffffffffffff16847f213ed9c62fc3f1ceb155014ceb9460317e4f4f9736c49c00c0e80f3dbdcd567f60405160405180910390a3613f7c565b5f826001015f9054906101000a900473ffffffffffffffffffffffffffffffffffffffff1690505f835f015f9054906101000a900473ffffffffffffffffffffffffffffffffffffffff1690505f846002015490505f85600301549050600b5f8981526020019081526020015f205f5f82015f6101000a81549073ffffffffffffffffffffffffffffffffffffffff0219169055600182015f6101000a81549073ffffffffffffffffffffffffffffffffffffffff0219169055600282015f9055600382015f9055600482015f9055600582015f6101000a81549060ff02191690556005820160016101000a81549060ff02191690556005820160026101000a81549060ff02191690556005820160036101000a81549073ffffffffffffffffffffffffffffffffffffffff0219169055600682015f6101000a81549073ffffffffffffffffffffffffffffffffffffffff02191690556006820160146101000a81549060ff0219169055505060025f9054906101000a900473ffffffffffffffffffffffffffffffffffffffff1673ffffffffffffffffffffffffffffffffffffffff1663a9059cbb85846040518363ffffffff1660e01b8152600401613b9b929190615547565b6020604051808303815f875af1158015613bb7573d5f5f3e3d5ffd5b505050506040513d601f19601f82011682018060405250810190613bdb9190615582565b613c11576040517f90b8ec1800000000000000000000000000000000000000000000000000000000815260040160405180910390fd5b5f818611613c1f5785613c21565b815b90505f81118015613ccb575060025f9054906101000a900473ffffffffffffffffffffffffffffffffffffffff1673ffffffffffffffffffffffffffffffffffffffff1663a9059cbb33836040518363ffffffff1660e01b8152600401613c89929190615547565b6020604051808303815f875af1158015613ca5573d5f5f3e3d5ffd5b505050506040513d601f19601f82011682018060405250810190613cc99190615582565b155b15613d02576040517f90b8ec1800000000000000000000000000000000000000000000000000000000815260040160405180910390fd5b5f818311613d10575f613d1d565b8183613d1c919061595e565b5b90505f81118015613de8575060025f9054906101000a900473ffffffffffffffffffffffffffffffffffffffff1673ffffffffffffffffffffffffffffffffffffffff1663a9059cbb60085f9054906101000a900473ffffffffffffffffffffffffffffffffffffffff16836040518363ffffffff1660e01b8152600401613da6929190615547565b6020604051808303815f875af1158015613dc2573d5f5f3e3d5ffd5b505050506040513d601f19601f82011682018060405250810190613de69190615582565b155b15613e1f576040517f90b8ec1800000000000000000000000000000000000000000000000000000000815260040160405180910390fd5b60015f9054906101000a900473ffffffffffffffffffffffffffffffffffffffff1673ffffffffffffffffffffffffffffffffffffffff166323b872dd30878d6040518463ffffffff1660e01b8152600401613e7d939291906155ad565b5f604051808303815f87803b158015613e94575f5ffd5b505af1158015613ea6573d5f5f3e3d5ffd5b5050505060015f9054906101000a900473ffffffffffffffffffffffffffffffffffffffff1673ffffffffffffffffffffffffffffffffffffffff16631757520e8b6040518263ffffffff1660e01b8152600401613f049190615223565b5f604051808303815f87803b158015613f1b575f5ffd5b505af1158015613f2d573d5f5f3e3d5ffd5b505050503373ffffffffffffffffffffffffffffffffffffffff168a7f6220127034fd15fd91b9d561504747d36924c1bce9ca2127fdf6bca19e17069a60405160405180910390a35050505050505b5050613f86614b9c565b5050565b600c602052805f5260405f205f915054906101000a900460ff1681565b613faf614ad7565b613fb7614b7a565b5f600b5f8381526020019081526020015f209050600280811115613fde57613fdd615394565b5b8160060160149054906101000a900460ff16600281111561400257614001615394565b5b14614039576040517f9ce8b72100000000000000000000000000000000000000000000000000000000815260040160405180910390fd5b8060050160019054906101000a900460ff16614081576040517f193413f600000000000000000000000000000000000000000000000000000000815260040160405180910390fd5b806001015f9054906101000a900473ffffffffffffffffffffffffffffffffffffffff1673ffffffffffffffffffffffffffffffffffffffff163373ffffffffffffffffffffffffffffffffffffffff161415801561411357506140e36124fc565b73ffffffffffffffffffffffffffffffffffffffff163373ffffffffffffffffffffffffffffffffffffffff1614155b801561416c575060095f9054906101000a900473ffffffffffffffffffffffffffffffffffffffff1673ffffffffffffffffffffffffffffffffffffffff163373ffffffffffffffffffffffffffffffffffffffff1614155b156141a3576040517f82b4290000000000000000000000000000000000000000000000000000000000815260040160405180910390fd5b5f60015f9054906101000a900473ffffffffffffffffffffffffffffffffffffffff1673ffffffffffffffffffffffffffffffffffffffff16631a885919846040518263ffffffff1660e01b81526004016141fe9190615223565b602060405180830381865afa158015614219573d5f5f3e3d5ffd5b505050506040513d601f19601f8201168201806040525081019061423d91906155f6565b90505f826002015490505f836003015490505f845f015f9054906101000a900473ffffffffffffffffffffffffffffffffffffffff1690505f6127106004548561428791906158c0565b614291919061592e565b90505f5f73ffffffffffffffffffffffffffffffffffffffff168673ffffffffffffffffffffffffffffffffffffffff16036142cd575f6142e9565b612710600554866142de91906158c0565b6142e8919061592e565b5b90505f876005015f9054906101000a900460ff16614307575f614323565b6127106006548761431891906158c0565b614322919061592e565b5b90505f81838589614334919061595e565b61433e919061595e565b614348919061595e565b90505f896001015f9054906101000a900473ffffffffffffffffffffffffffffffffffffffff1690505f8a6006015f9054906101000a900473ffffffffffffffffffffffffffffffffffffffff169050600b5f8d81526020019081526020015f205f5f82015f6101000a81549073ffffffffffffffffffffffffffffffffffffffff0219169055600182015f6101000a81549073ffffffffffffffffffffffffffffffffffffffff0219169055600282015f9055600382015f9055600482015f9055600582015f6101000a81549060ff02191690556005820160016101000a81549060ff02191690556005820160026101000a81549060ff02191690556005820160036101000a81549073ffffffffffffffffffffffffffffffffffffffff0219169055600682015f6101000a81549073ffffffffffffffffffffffffffffffffffffffff02191690556006820160146101000a81549060ff021916905550505f86118015614571575060025f9054906101000a900473ffffffffffffffffffffffffffffffffffffffff1673ffffffffffffffffffffffffffffffffffffffff1663a9059cbb60085f9054906101000a900473ffffffffffffffffffffffffffffffffffffffff16886040518363ffffffff1660e01b815260040161452f929190615547565b6020604051808303815f875af115801561454b573d5f5f3e3d5ffd5b505050506040513d601f19601f8201168201806040525081019061456f9190615582565b155b156145a8576040517f90b8ec1800000000000000000000000000000000000000000000000000000000815260040160405180910390fd5b5f85118015614650575060025f9054906101000a900473ffffffffffffffffffffffffffffffffffffffff1673ffffffffffffffffffffffffffffffffffffffff1663a9059cbb8b876040518363ffffffff1660e01b815260040161460e929190615547565b6020604051808303815f875af115801561462a573d5f5f3e3d5ffd5b505050506040513d601f19601f8201168201806040525081019061464e9190615582565b155b15614687576040517f90b8ec1800000000000000000000000000000000000000000000000000000000815260040160405180910390fd5b5f8411801561472f575060025f9054906101000a900473ffffffffffffffffffffffffffffffffffffffff1673ffffffffffffffffffffffffffffffffffffffff1663a9059cbb82866040518363ffffffff1660e01b81526004016146ed929190615547565b6020604051808303815f875af1158015614709573d5f5f3e3d5ffd5b505050506040513d601f19601f8201168201806040525081019061472d9190615582565b155b15614766576040517f90b8ec1800000000000000000000000000000000000000000000000000000000815260040160405180910390fd5b5f8311801561480e575060025f9054906101000a900473ffffffffffffffffffffffffffffffffffffffff1673ffffffffffffffffffffffffffffffffffffffff1663a9059cbb88856040518363ffffffff1660e01b81526004016147cc929190615547565b6020604051808303815f875af11580156147e8573d5f5f3e3d5ffd5b505050506040513d601f19601f8201168201806040525081019061480c9190615582565b155b15614845576040517f90b8ec1800000000000000000000000000000000000000000000000000000000815260040160405180910390fd5b5f881180156148ed575060025f9054906101000a900473ffffffffffffffffffffffffffffffffffffffff1673ffffffffffffffffffffffffffffffffffffffff1663a9059cbb888a6040518363ffffffff1660e01b81526004016148ab929190615547565b6020604051808303815f875af11580156148c7573d5f5f3e3d5ffd5b505050506040513d601f19601f820116820180604052508101906148eb9190615582565b155b15614924576040517f90b8ec1800000000000000000000000000000000000000000000000000000000815260040160405180910390fd5b60015f9054906101000a900473ffffffffffffffffffffffffffffffffffffffff1673ffffffffffffffffffffffffffffffffffffffff166323b872dd30848f6040518463ffffffff1660e01b8152600401614982939291906155ad565b5f604051808303815f87803b158015614999575f5ffd5b505af11580156149ab573d5f5f3e3d5ffd5b505050508673ffffffffffffffffffffffffffffffffffffffff163373ffffffffffffffffffffffffffffffffffffffff168d7f1b44502901e931a03e1ed724d3d7746167e9699a6831744cc24066c94ee414f08c604051614a0d9190615223565b60405180910390a45050505050505050505050614a28614b9c565b50565b60035f9054906101000a900473ffffffffffffffffffffffffffffffffffffffff1681565b614a58614cd8565b73ffffffffffffffffffffffffffffffffffffffff16614a766124fc565b73ffffffffffffffffffffffffffffffffffffffff1614614ad557614a99614cd8565b6040517f118cdaa7000000000000000000000000000000000000000000000000000000008152600401614acc9190614eea565b60405180910390fd5b565b614adf61243f565b15614b16576040517fd93c066500000000000000000000000000000000000000000000000000000000815260040160405180910390fd5b565b614b20614ad7565b60015f60146101000a81548160ff0219169083151502179055507f62e78cea01bee320cd4e420270b5ea74000d11b0c9f74754ebdbfc544b05a258614b63614cd8565b604051614b709190614eea565b60405180910390a1565b614b82614cdf565b6002614b94614b8f614d20565b614d49565b5f0181905550565b6001614bae614ba9614d20565b614d49565b5f0181905550565b5f5f5f9054906101000a900473ffffffffffffffffffffffffffffffffffffffff169050815f5f6101000a81548173ffffffffffffffffffffffffffffffffffffffff021916908373ffffffffffffffffffffffffffffffffffffffff1602179055508173ffffffffffffffffffffffffffffffffffffffff168173ffffffffffffffffffffffffffffffffffffffff167f8be0079c531659141344cd1fd0a4f28419497f9722a3daafe3b4186f6b6457e060405160405180910390a35050565b614c7f614d52565b5f5f60146101000a81548160ff0219169083151502179055507f5db9ee0a495bf2e6ff9c91a7834c1ba4fdd244a5e8aa4e537bd38aeae4b073aa614cc1614cd8565b604051614cce9190614eea565b60405180910390a1565b5f33905090565b614ce7614d92565b15614d1e576040517f3ee5aeb500000000000000000000000000000000000000000000000000000000815260040160405180910390fd5b565b5f7f9b779b17422d0df92223018b32b4d1fa46e071723d6817e2486d003becc55f005f1b905090565b5f819050919050565b614d5a61243f565b614d90576040517f8dfc202b00000000000000000000000000000000000000000000000000000000815260040160405180910390fd5b565b5f6002614da5614da0614d20565b614d49565b5f015414905090565b5f604051905090565b5f5ffd5b5f5ffd5b5f73ffffffffffffffffffffffffffffffffffffffff82169050919050565b5f614de882614dbf565b9050919050565b614df881614dde565b8114614e02575f5ffd5b50565b5f81359050614e1381614def565b92915050565b5f60208284031215614e2e57614e2d614db7565b5b5f614e3b84828501614e05565b91505092915050565b5f819050919050565b614e5681614e44565b8114614e60575f5ffd5b50565b5f81359050614e7181614e4d565b92915050565b5f5f5f5f60808587031215614e8f57614e8e614db7565b5b5f614e9c87828801614e63565b9450506020614ead87828801614e05565b9350506040614ebe87828801614e05565b9250506060614ecf87828801614e63565b91505092959194509250565b614ee481614dde565b82525050565b5f602082019050614efd5f830184614edb565b92915050565b5f5ffd5b5f5ffd5b5f601f19601f8301169050919050565b7f4e487b71000000000000000000000000000000000000000000000000000000005f52604160045260245ffd5b614f5182614f0b565b810181811067ffffffffffffffff82111715614f7057614f6f614f1b565b5b80604052505050565b5f614f82614dae565b9050614f8e8282614f48565b919050565b5f67ffffffffffffffff821115614fad57614fac614f1b565b5b614fb682614f0b565b9050602081019050919050565b828183375f83830152505050565b5f614fe3614fde84614f93565b614f79565b905082815260208101848484011115614fff57614ffe614f07565b5b61500a848285614fc3565b509392505050565b5f82601f83011261502657615025614f03565b5b8135615036848260208601614fd1565b91505092915050565b5f6020828403121561505457615053614db7565b5b5f82013567ffffffffffffffff81111561507157615070614dbb565b5b61507d84828501615012565b91505092915050565b5f5f6040838503121561509c5761509b614db7565b5b5f6150a985828601614e63565b92505060206150ba85828601614e05565b9150509250929050565b5f819050919050565b5f6150e76150e26150dd84614dbf565b6150c4565b614dbf565b9050919050565b5f6150f8826150cd565b9050919050565b5f615109826150ee565b9050919050565b615119816150ff565b82525050565b5f6020820190506151325f830184615110565b92915050565b5f6020828403121561514d5761514c614db7565b5b5f61515a84828501614e63565b91505092915050565b5f8115159050919050565b61517781615163565b8114615181575f5ffd5b50565b5f813590506151928161516e565b92915050565b5f5f604083850312156151ae576151ad614db7565b5b5f6151bb85828601614e63565b92505060206151cc85828601615184565b9150509250929050565b5f5f604083850312156151ec576151eb614db7565b5b5f6151f985828601614e63565b925050602061520a85828601614e63565b9150509250929050565b61521d81614e44565b82525050565b5f6020820190506152365f830184615214565b92915050565b5f615246826150ee565b9050919050565b6152568161523c565b82525050565b5f60208201905061526f5f83018461524d565b92915050565b61527e81615163565b82525050565b5f6020820190506152975f830184615275565b92915050565b5f5f5f5f608085870312156152b5576152b4614db7565b5b5f6152c287828801614e63565b94505060206152d387828801614e63565b93505060406152e487828801614e63565b92505060606152f587828801614e63565b91505092959194509250565b5f5f5f5f5f60a0868803121561531a57615319614db7565b5b5f61532788828901614e63565b955050602061533888828901614e05565b945050604061534988828901614e63565b935050606061535a88828901614e63565b925050608086013567ffffffffffffffff81111561537b5761537a614dbb565b5b61538788828901615012565b9150509295509295909350565b7f4e487b71000000000000000000000000000000000000000000000000000000005f52602160045260245ffd5b600381106153d2576153d1615394565b5b50565b5f8190506153e2826153c1565b919050565b5f6153f1826153d5565b9050919050565b615401816153e7565b82525050565b5f6101608201905061541b5f83018e614edb565b615428602083018d614edb565b615435604083018c615214565b615442606083018b615214565b61544f608083018a615214565b61545c60a0830189615275565b61546960c0830188615275565b61547660e0830187615275565b615484610100830186614edb565b615492610120830185614edb565b6154a06101408301846153f8565b9c9b505050505050505050505050565b5f819050919050565b6154c2816154b0565b81146154cc575f5ffd5b50565b5f813590506154dd816154b9565b92915050565b5f602082840312156154f8576154f7614db7565b5b5f615505848285016154cf565b91505092915050565b5f615518826150ee565b9050919050565b6155288161550e565b82525050565b5f6020820190506155415f83018461551f565b92915050565b5f60408201905061555a5f830185614edb565b6155676020830184615214565b9392505050565b5f8151905061557c8161516e565b92915050565b5f6020828403121561559757615596614db7565b5b5f6155a48482850161556e565b91505092915050565b5f6060820190506155c05f830186614edb565b6155cd6020830185614edb565b6155da6040830184615214565b949350505050565b5f815190506155f081614def565b92915050565b5f6020828403121561560b5761560a614db7565b5b5f615618848285016155e2565b91505092915050565b5f6040820190506156345f830185614edb565b6156416020830184614edb565b9392505050565b5f5ffd5b5f5ffd5b5f67ffffffffffffffff82111561566a57615669614f1b565b5b61567382614f0b565b9050602081019050919050565b8281835e5f83830152505050565b5f6156a061569b84615650565b614f79565b9050828152602081018484840111156156bc576156bb614f07565b5b6156c7848285615680565b509392505050565b5f82601f8301126156e3576156e2614f03565b5b81516156f384826020860161568e565b91505092915050565b5f8151905061570a81614e4d565b92915050565b5f8151905061571e816154b9565b92915050565b60058110615730575f5ffd5b50565b5f8151905061574181615724565b92915050565b5f60e0828403121561575c5761575b615648565b5b61576660e0614f79565b90505f82015167ffffffffffffffff8111156157855761578461564c565b5b615791848285016156cf565b5f83015250602082015167ffffffffffffffff8111156157b4576157b361564c565b5b6157c0848285016156cf565b602083015250604082015167ffffffffffffffff8111156157e4576157e361564c565b5b6157f0848285016156cf565b6040830152506060615804848285016156fc565b606083015250608061581884828501615710565b60808301525060a061582c84828501615733565b60a08301525060c0615840848285016155e2565b60c08301525092915050565b5f6020828403121561586157615860614db7565b5b5f82015167ffffffffffffffff81111561587e5761587d614dbb565b5b61588a84828501615747565b91505092915050565b7f4e487b71000000000000000000000000000000000000000000000000000000005f52601160045260245ffd5b5f6158ca82614e44565b91506158d583614e44565b92508282026158e381614e44565b915082820484148315176158fa576158f9615893565b5b5092915050565b7f4e487b71000000000000000000000000000000000000000000000000000000005f52601260045260245ffd5b5f61593882614e44565b915061594383614e44565b92508261595357615952615901565b5b828204905092915050565b5f61596882614e44565b915061597383614e44565b925082820390508181111561598b5761598a615893565b5b92915050565b5f81519050919050565b5f82825260208201905092915050565b5f6159b582615991565b6159bf818561599b565b93506159cf818560208601615680565b6159d881614f0b565b840191505092915050565b5f60a0820190506159f65f830188614edb565b615a036020830187615214565b615a106040830186615214565b615a1d6060830185615214565b8181036080830152615a2f81846159ab565b90509695505050505050565b5f615a4582614e44565b9150615a5083614e44565b9250828201905080821115615a6857615a67615893565b5b92915050565b5f604082019050615a815f830185615214565b615a8e6020830184615214565b939250505056fea2646970667358221220f5e169870efbe1d6632d9c91df3417f661a824324810a83979cae50b8fc82cf764736f6c634300081c0033",
  "linkReferences": {},
  "deployedLinkReferences": {}
}